Archive member included to satisfy reference by file (symbol)

d:/cubeide/stm32cubeide_1.4.0/stm32cubeide/plugins/com.st.stm32cube.ide.mcu.externaltools.gnu-tools-for-stm32.7-2018-q2-update.win32_1.4.0.202007081208/tools/bin/../lib/gcc/arm-none-eabi/7.3.1/../../../../arm-none-eabi/lib/thumb/v7e-m/fpv4-sp/hard\libc_nano.a(lib_a-errno.o)
                              Core/Src/syscalls.o (__errno)
d:/cubeide/stm32cubeide_1.4.0/stm32cubeide/plugins/com.st.stm32cube.ide.mcu.externaltools.gnu-tools-for-stm32.7-2018-q2-update.win32_1.4.0.202007081208/tools/bin/../lib/gcc/arm-none-eabi/7.3.1/../../../../arm-none-eabi/lib/thumb/v7e-m/fpv4-sp/hard\libc_nano.a(lib_a-exit.o)
                              d:/cubeide/stm32cubeide_1.4.0/stm32cubeide/plugins/com.st.stm32cube.ide.mcu.externaltools.gnu-tools-for-stm32.7-2018-q2-update.win32_1.4.0.202007081208/tools/bin/../lib/gcc/arm-none-eabi/7.3.1/../../../../arm-none-eabi/lib/thumb/v7e-m/fpv4-sp/hard/crt0.o (exit)
d:/cubeide/stm32cubeide_1.4.0/stm32cubeide/plugins/com.st.stm32cube.ide.mcu.externaltools.gnu-tools-for-stm32.7-2018-q2-update.win32_1.4.0.202007081208/tools/bin/../lib/gcc/arm-none-eabi/7.3.1/../../../../arm-none-eabi/lib/thumb/v7e-m/fpv4-sp/hard\libc_nano.a(lib_a-impure.o)
                              d:/cubeide/stm32cubeide_1.4.0/stm32cubeide/plugins/com.st.stm32cube.ide.mcu.externaltools.gnu-tools-for-stm32.7-2018-q2-update.win32_1.4.0.202007081208/tools/bin/../lib/gcc/arm-none-eabi/7.3.1/../../../../arm-none-eabi/lib/thumb/v7e-m/fpv4-sp/hard\libc_nano.a(lib_a-exit.o) (_global_impure_ptr)
d:/cubeide/stm32cubeide_1.4.0/stm32cubeide/plugins/com.st.stm32cube.ide.mcu.externaltools.gnu-tools-for-stm32.7-2018-q2-update.win32_1.4.0.202007081208/tools/bin/../lib/gcc/arm-none-eabi/7.3.1/../../../../arm-none-eabi/lib/thumb/v7e-m/fpv4-sp/hard\libc_nano.a(lib_a-init.o)
                              d:/cubeide/stm32cubeide_1.4.0/stm32cubeide/plugins/com.st.stm32cube.ide.mcu.externaltools.gnu-tools-for-stm32.7-2018-q2-update.win32_1.4.0.202007081208/tools/bin/../lib/gcc/arm-none-eabi/7.3.1/../../../../arm-none-eabi/lib/thumb/v7e-m/fpv4-sp/hard/crt0.o (__libc_init_array)
d:/cubeide/stm32cubeide_1.4.0/stm32cubeide/plugins/com.st.stm32cube.ide.mcu.externaltools.gnu-tools-for-stm32.7-2018-q2-update.win32_1.4.0.202007081208/tools/bin/../lib/gcc/arm-none-eabi/7.3.1/../../../../arm-none-eabi/lib/thumb/v7e-m/fpv4-sp/hard\libc_nano.a(lib_a-memset.o)
                              d:/cubeide/stm32cubeide_1.4.0/stm32cubeide/plugins/com.st.stm32cube.ide.mcu.externaltools.gnu-tools-for-stm32.7-2018-q2-update.win32_1.4.0.202007081208/tools/bin/../lib/gcc/arm-none-eabi/7.3.1/../../../../arm-none-eabi/lib/thumb/v7e-m/fpv4-sp/hard/crt0.o (memset)
d:/cubeide/stm32cubeide_1.4.0/stm32cubeide/plugins/com.st.stm32cube.ide.mcu.externaltools.gnu-tools-for-stm32.7-2018-q2-update.win32_1.4.0.202007081208/tools/bin/../lib/gcc/arm-none-eabi/7.3.1/thumb/v7e-m/fpv4-sp/hard\libgcc.a(_aeabi_uldivmod.o)
                              Drivers/STM32F4xx_HAL_Driver/Src/stm32f4xx_hal_rcc.o (__aeabi_uldivmod)
d:/cubeide/stm32cubeide_1.4.0/stm32cubeide/plugins/com.st.stm32cube.ide.mcu.externaltools.gnu-tools-for-stm32.7-2018-q2-update.win32_1.4.0.202007081208/tools/bin/../lib/gcc/arm-none-eabi/7.3.1/thumb/v7e-m/fpv4-sp/hard\libgcc.a(_udivmoddi4.o)
                              d:/cubeide/stm32cubeide_1.4.0/stm32cubeide/plugins/com.st.stm32cube.ide.mcu.externaltools.gnu-tools-for-stm32.7-2018-q2-update.win32_1.4.0.202007081208/tools/bin/../lib/gcc/arm-none-eabi/7.3.1/thumb/v7e-m/fpv4-sp/hard\libgcc.a(_aeabi_uldivmod.o) (__udivmoddi4)
d:/cubeide/stm32cubeide_1.4.0/stm32cubeide/plugins/com.st.stm32cube.ide.mcu.externaltools.gnu-tools-for-stm32.7-2018-q2-update.win32_1.4.0.202007081208/tools/bin/../lib/gcc/arm-none-eabi/7.3.1/thumb/v7e-m/fpv4-sp/hard\libgcc.a(_dvmd_tls.o)
                              d:/cubeide/stm32cubeide_1.4.0/stm32cubeide/plugins/com.st.stm32cube.ide.mcu.externaltools.gnu-tools-for-stm32.7-2018-q2-update.win32_1.4.0.202007081208/tools/bin/../lib/gcc/arm-none-eabi/7.3.1/thumb/v7e-m/fpv4-sp/hard\libgcc.a(_aeabi_uldivmod.o) (__aeabi_ldiv0)

Allocating common symbols
Common symbol       size              file

hi2c1               0x54              Core/Src/i2c.o
uwTick              0x4               Drivers/STM32F4xx_HAL_Driver/Src/stm32f4xx_hal.o
pFlash              0x20              Drivers/STM32F4xx_HAL_Driver/Src/stm32f4xx_hal_flash.o
huart1              0x40              Core/Src/usart.o
u8g2_pg             0x4c              u8g2/u8g2_polygon.o

Discarded input sections

 .text          0x0000000000000000        0x0 d:/cubeide/stm32cubeide_1.4.0/stm32cubeide/plugins/com.st.stm32cube.ide.mcu.externaltools.gnu-tools-for-stm32.7-2018-q2-update.win32_1.4.0.202007081208/tools/bin/../lib/gcc/arm-none-eabi/7.3.1/thumb/v7e-m/fpv4-sp/hard/crti.o
 .data          0x0000000000000000        0x0 d:/cubeide/stm32cubeide_1.4.0/stm32cubeide/plugins/com.st.stm32cube.ide.mcu.externaltools.gnu-tools-for-stm32.7-2018-q2-update.win32_1.4.0.202007081208/tools/bin/../lib/gcc/arm-none-eabi/7.3.1/thumb/v7e-m/fpv4-sp/hard/crti.o
 .bss           0x0000000000000000        0x0 d:/cubeide/stm32cubeide_1.4.0/stm32cubeide/plugins/com.st.stm32cube.ide.mcu.externaltools.gnu-tools-for-stm32.7-2018-q2-update.win32_1.4.0.202007081208/tools/bin/../lib/gcc/arm-none-eabi/7.3.1/thumb/v7e-m/fpv4-sp/hard/crti.o
 .data          0x0000000000000000        0x4 d:/cubeide/stm32cubeide_1.4.0/stm32cubeide/plugins/com.st.stm32cube.ide.mcu.externaltools.gnu-tools-for-stm32.7-2018-q2-update.win32_1.4.0.202007081208/tools/bin/../lib/gcc/arm-none-eabi/7.3.1/thumb/v7e-m/fpv4-sp/hard/crtbegin.o
 .text          0x0000000000000000       0x74 d:/cubeide/stm32cubeide_1.4.0/stm32cubeide/plugins/com.st.stm32cube.ide.mcu.externaltools.gnu-tools-for-stm32.7-2018-q2-update.win32_1.4.0.202007081208/tools/bin/../lib/gcc/arm-none-eabi/7.3.1/../../../../arm-none-eabi/lib/thumb/v7e-m/fpv4-sp/hard/crt0.o
 .data          0x0000000000000000        0x0 d:/cubeide/stm32cubeide_1.4.0/stm32cubeide/plugins/com.st.stm32cube.ide.mcu.externaltools.gnu-tools-for-stm32.7-2018-q2-update.win32_1.4.0.202007081208/tools/bin/../lib/gcc/arm-none-eabi/7.3.1/../../../../arm-none-eabi/lib/thumb/v7e-m/fpv4-sp/hard/crt0.o
 .bss           0x0000000000000000        0x0 d:/cubeide/stm32cubeide_1.4.0/stm32cubeide/plugins/com.st.stm32cube.ide.mcu.externaltools.gnu-tools-for-stm32.7-2018-q2-update.win32_1.4.0.202007081208/tools/bin/../lib/gcc/arm-none-eabi/7.3.1/../../../../arm-none-eabi/lib/thumb/v7e-m/fpv4-sp/hard/crt0.o
 .ARM.extab     0x0000000000000000        0x0 d:/cubeide/stm32cubeide_1.4.0/stm32cubeide/plugins/com.st.stm32cube.ide.mcu.externaltools.gnu-tools-for-stm32.7-2018-q2-update.win32_1.4.0.202007081208/tools/bin/../lib/gcc/arm-none-eabi/7.3.1/../../../../arm-none-eabi/lib/thumb/v7e-m/fpv4-sp/hard/crt0.o
 .ARM.exidx     0x0000000000000000        0x8 d:/cubeide/stm32cubeide_1.4.0/stm32cubeide/plugins/com.st.stm32cube.ide.mcu.externaltools.gnu-tools-for-stm32.7-2018-q2-update.win32_1.4.0.202007081208/tools/bin/../lib/gcc/arm-none-eabi/7.3.1/../../../../arm-none-eabi/lib/thumb/v7e-m/fpv4-sp/hard/crt0.o
 .ARM.attributes
                0x0000000000000000       0x20 d:/cubeide/stm32cubeide_1.4.0/stm32cubeide/plugins/com.st.stm32cube.ide.mcu.externaltools.gnu-tools-for-stm32.7-2018-q2-update.win32_1.4.0.202007081208/tools/bin/../lib/gcc/arm-none-eabi/7.3.1/../../../../arm-none-eabi/lib/thumb/v7e-m/fpv4-sp/hard/crt0.o
 .group         0x0000000000000000        0xc Core/Src/gpio.o
 .group         0x0000000000000000        0xc Core/Src/gpio.o
 .group         0x0000000000000000        0xc Core/Src/gpio.o
 .group         0x0000000000000000        0xc Core/Src/gpio.o
 .group         0x0000000000000000        0xc Core/Src/gpio.o
 .group         0x0000000000000000        0xc Core/Src/gpio.o
 .group         0x0000000000000000        0xc Core/Src/gpio.o
Memory Configuration

Name             Origin             Length             Attributes
CCMRAM           0x0000000010000000 0x0000000000010000 xrw
RAM              0x0000000020000000 0x0000000000020000 xrw
FLASH            0x0000000008000000 0x0000000000080000 xr
*default*        0x0000000000000000 0xffffffffffffffff

Linker script and memory map

LOAD d:/cubeide/stm32cubeide_1.4.0/stm32cubeide/plugins/com.st.stm32cube.ide.mcu.externaltools.gnu-tools-for-stm32.7-2018-q2-update.win32_1.4.0.202007081208/tools/bin/../lib/gcc/arm-none-eabi/7.3.1/thumb/v7e-m/fpv4-sp/hard/crti.o
LOAD d:/cubeide/stm32cubeide_1.4.0/stm32cubeide/plugins/com.st.stm32cube.ide.mcu.externaltools.gnu-tools-for-stm32.7-2018-q2-update.win32_1.4.0.202007081208/tools/bin/../lib/gcc/arm-none-eabi/7.3.1/thumb/v7e-m/fpv4-sp/hard/crtbegin.o
LOAD d:/cubeide/stm32cubeide_1.4.0/stm32cubeide/plugins/com.st.stm32cube.ide.mcu.externaltools.gnu-tools-for-stm32.7-2018-q2-update.win32_1.4.0.202007081208/tools/bin/../lib/gcc/arm-none-eabi/7.3.1/../../../../arm-none-eabi/lib/thumb/v7e-m/fpv4-sp/hard/crt0.o
LOAD Core/Src/gpio.o
LOAD Core/Src/i2c.o
LOAD Core/Src/main.o
LOAD Core/Src/oled.o
LOAD Core/Src/stm32f4xx_hal_msp.o
LOAD Core/Src/stm32f4xx_it.o
LOAD Core/Src/syscalls.o
LOAD Core/Src/sysmem.o
LOAD Core/Src/system_stm32f4xx.o
LOAD Core/Src/usart.o
LOAD Core/Startup/startup_stm32f407vetx.o
LOAD Drivers/STM32F4xx_HAL_Driver/Src/stm32f4xx_hal.o
LOAD Drivers/STM32F4xx_HAL_Driver/Src/stm32f4xx_hal_cortex.o
LOAD Drivers/STM32F4xx_HAL_Driver/Src/stm32f4xx_hal_dma.o
LOAD Drivers/STM32F4xx_HAL_Driver/Src/stm32f4xx_hal_dma_ex.o
LOAD Drivers/STM32F4xx_HAL_Driver/Src/stm32f4xx_hal_exti.o
LOAD Drivers/STM32F4xx_HAL_Driver/Src/stm32f4xx_hal_flash.o
LOAD Drivers/STM32F4xx_HAL_Driver/Src/stm32f4xx_hal_flash_ex.o
LOAD Drivers/STM32F4xx_HAL_Driver/Src/stm32f4xx_hal_flash_ramfunc.o
LOAD Drivers/STM32F4xx_HAL_Driver/Src/stm32f4xx_hal_gpio.o
LOAD Drivers/STM32F4xx_HAL_Driver/Src/stm32f4xx_hal_i2c.o
LOAD Drivers/STM32F4xx_HAL_Driver/Src/stm32f4xx_hal_i2c_ex.o
LOAD Drivers/STM32F4xx_HAL_Driver/Src/stm32f4xx_hal_pwr.o
LOAD Drivers/STM32F4xx_HAL_Driver/Src/stm32f4xx_hal_pwr_ex.o
LOAD Drivers/STM32F4xx_HAL_Driver/Src/stm32f4xx_hal_rcc.o
LOAD Drivers/STM32F4xx_HAL_Driver/Src/stm32f4xx_hal_rcc_ex.o
LOAD Drivers/STM32F4xx_HAL_Driver/Src/stm32f4xx_hal_tim.o
LOAD Drivers/STM32F4xx_HAL_Driver/Src/stm32f4xx_hal_tim_ex.o
LOAD Drivers/STM32F4xx_HAL_Driver/Src/stm32f4xx_hal_uart.o
LOAD u8g2/u8g2_bitmap.o
LOAD u8g2/u8g2_box.o
LOAD u8g2/u8g2_buffer.o
LOAD u8g2/u8g2_circle.o
LOAD u8g2/u8g2_cleardisplay.o
LOAD u8g2/u8g2_d_memory.o
LOAD u8g2/u8g2_d_setup.o
LOAD u8g2/u8g2_font.o
LOAD u8g2/u8g2_fonts.o
LOAD u8g2/u8g2_hvline.o
LOAD u8g2/u8g2_input_value.o
LOAD u8g2/u8g2_intersection.o
LOAD u8g2/u8g2_kerning.o
LOAD u8g2/u8g2_line.o
LOAD u8g2/u8g2_ll_hvline.o
LOAD u8g2/u8g2_message.o
LOAD u8g2/u8g2_polygon.o
LOAD u8g2/u8g2_selection_list.o
LOAD u8g2/u8g2_setup.o
LOAD u8g2/u8log.o
LOAD u8g2/u8log_u8g2.o
LOAD u8g2/u8log_u8x8.o
LOAD u8g2/u8x8_8x8.o
LOAD u8g2/u8x8_byte.o
LOAD u8g2/u8x8_cad.o
LOAD u8g2/u8x8_capture.o
LOAD u8g2/u8x8_d_ssd1306_128x64_noname.o
LOAD u8g2/u8x8_debounce.o
LOAD u8g2/u8x8_display.o
LOAD u8g2/u8x8_fonts.o
LOAD u8g2/u8x8_gpio.o
LOAD u8g2/u8x8_input_value.o
LOAD u8g2/u8x8_message.o
LOAD u8g2/u8x8_selection_list.o
LOAD u8g2/u8x8_setup.o
LOAD u8g2/u8x8_string.o
LOAD u8g2/u8x8_u16toa.o
LOAD u8g2/u8x8_u8toa.o
START GROUP
LOAD d:/cubeide/stm32cubeide_1.4.0/stm32cubeide/plugins/com.st.stm32cube.ide.mcu.externaltools.gnu-tools-for-stm32.7-2018-q2-update.win32_1.4.0.202007081208/tools/bin/../lib/gcc/arm-none-eabi/7.3.1/../../../../arm-none-eabi/lib/thumb/v7e-m/fpv4-sp/hard\libc_nano.a
LOAD d:/cubeide/stm32cubeide_1.4.0/stm32cubeide/plugins/com.st.stm32cube.ide.mcu.externaltools.gnu-tools-for-stm32.7-2018-q2-update.win32_1.4.0.202007081208/tools/bin/../lib/gcc/arm-none-eabi/7.3.1/../../../../arm-none-eabi/lib/thumb/v7e-m/fpv4-sp/hard\libm.a
END GROUP
START GROUP
LOAD d:/cubeide/stm32cubeide_1.4.0/stm32cubeide/plugins/com.st.stm32cube.ide.mcu.externaltools.gnu-tools-for-stm32.7-2018-q2-update.win32_1.4.0.202007081208/tools/bin/../lib/gcc/arm-none-eabi/7.3.1/thumb/v7e-m/fpv4-sp/hard\libgcc.a
LOAD d:/cubeide/stm32cubeide_1.4.0/stm32cubeide/plugins/com.st.stm32cube.ide.mcu.externaltools.gnu-tools-for-stm32.7-2018-q2-update.win32_1.4.0.202007081208/tools/bin/../lib/gcc/arm-none-eabi/7.3.1/../../../../arm-none-eabi/lib/thumb/v7e-m/fpv4-sp/hard\libc_nano.a
END GROUP
START GROUP
LOAD d:/cubeide/stm32cubeide_1.4.0/stm32cubeide/plugins/com.st.stm32cube.ide.mcu.externaltools.gnu-tools-for-stm32.7-2018-q2-update.win32_1.4.0.202007081208/tools/bin/../lib/gcc/arm-none-eabi/7.3.1/thumb/v7e-m/fpv4-sp/hard\libgcc.a
LOAD d:/cubeide/stm32cubeide_1.4.0/stm32cubeide/plugins/com.st.stm32cube.ide.mcu.externaltools.gnu-tools-for-stm32.7-2018-q2-update.win32_1.4.0.202007081208/tools/bin/../lib/gcc/arm-none-eabi/7.3.1/../../../../arm-none-eabi/lib/thumb/v7e-m/fpv4-sp/hard\libc_nano.a
LOAD d:/cubeide/stm32cubeide_1.4.0/stm32cubeide/plugins/com.st.stm32cube.ide.mcu.externaltools.gnu-tools-for-stm32.7-2018-q2-update.win32_1.4.0.202007081208/tools/bin/../lib/gcc/arm-none-eabi/7.3.1/../../../../arm-none-eabi/lib/thumb/v7e-m/fpv4-sp/hard\libnosys.a
END GROUP
START GROUP
LOAD d:/cubeide/stm32cubeide_1.4.0/stm32cubeide/plugins/com.st.stm32cube.ide.mcu.externaltools.gnu-tools-for-stm32.7-2018-q2-update.win32_1.4.0.202007081208/tools/bin/../lib/gcc/arm-none-eabi/7.3.1/thumb/v7e-m/fpv4-sp/hard\libgcc.a
LOAD d:/cubeide/stm32cubeide_1.4.0/stm32cubeide/plugins/com.st.stm32cube.ide.mcu.externaltools.gnu-tools-for-stm32.7-2018-q2-update.win32_1.4.0.202007081208/tools/bin/../lib/gcc/arm-none-eabi/7.3.1/../../../../arm-none-eabi/lib/thumb/v7e-m/fpv4-sp/hard\libc_nano.a
LOAD d:/cubeide/stm32cubeide_1.4.0/stm32cubeide/plugins/com.st.stm32cube.ide.mcu.externaltools.gnu-tools-for-stm32.7-2018-q2-update.win32_1.4.0.202007081208/tools/bin/../lib/gcc/arm-none-eabi/7.3.1/../../../../arm-none-eabi/lib/thumb/v7e-m/fpv4-sp/hard\libnosys.a
END GROUP
LOAD d:/cubeide/stm32cubeide_1.4.0/stm32cubeide/plugins/com.st.stm32cube.ide.mcu.externaltools.gnu-tools-for-stm32.7-2018-q2-update.win32_1.4.0.202007081208/tools/bin/../lib/gcc/arm-none-eabi/7.3.1/thumb/v7e-m/fpv4-sp/hard/crtend.o
LOAD d:/cubeide/stm32cubeide_1.4.0/stm32cubeide/plugins/com.st.stm32cube.ide.mcu.externaltools.gnu-tools-for-stm32.7-2018-q2-update.win32_1.4.0.202007081208/tools/bin/../lib/gcc/arm-none-eabi/7.3.1/thumb/v7e-m/fpv4-sp/hard/crtn.o
                0x0000000020020000                _estack = (ORIGIN (RAM) + LENGTH (RAM))
                0x0000000000000200                _Min_Heap_Size = 0x200
                0x0000000000000400                _Min_Stack_Size = 0x400

.isr_vector     0x0000000008000000      0x188
                0x0000000008000000                . = ALIGN (0x4)
 *(.isr_vector)
 .isr_vector    0x0000000008000000      0x188 Core/Startup/startup_stm32f407vetx.o
                0x0000000008000000                g_pfnVectors
                0x0000000008000188                . = ALIGN (0x4)

.text           0x0000000008000188     0x4604
                0x0000000008000188                . = ALIGN (0x4)
 *(.text)
 .text          0x0000000008000188       0x40 d:/cubeide/stm32cubeide_1.4.0/stm32cubeide/plugins/com.st.stm32cube.ide.mcu.externaltools.gnu-tools-for-stm32.7-2018-q2-update.win32_1.4.0.202007081208/tools/bin/../lib/gcc/arm-none-eabi/7.3.1/thumb/v7e-m/fpv4-sp/hard/crtbegin.o
 .text          0x00000000080001c8       0x30 d:/cubeide/stm32cubeide_1.4.0/stm32cubeide/plugins/com.st.stm32cube.ide.mcu.externaltools.gnu-tools-for-stm32.7-2018-q2-update.win32_1.4.0.202007081208/tools/bin/../lib/gcc/arm-none-eabi/7.3.1/thumb/v7e-m/fpv4-sp/hard\libgcc.a(_aeabi_uldivmod.o)
                0x00000000080001c8                __aeabi_uldivmod
 .text          0x00000000080001f8      0x2cc d:/cubeide/stm32cubeide_1.4.0/stm32cubeide/plugins/com.st.stm32cube.ide.mcu.externaltools.gnu-tools-for-stm32.7-2018-q2-update.win32_1.4.0.202007081208/tools/bin/../lib/gcc/arm-none-eabi/7.3.1/thumb/v7e-m/fpv4-sp/hard\libgcc.a(_udivmoddi4.o)
                0x00000000080001f8                __udivmoddi4
 .text          0x00000000080004c4        0x4 d:/cubeide/stm32cubeide_1.4.0/stm32cubeide/plugins/com.st.stm32cube.ide.mcu.externaltools.gnu-tools-for-stm32.7-2018-q2-update.win32_1.4.0.202007081208/tools/bin/../lib/gcc/arm-none-eabi/7.3.1/thumb/v7e-m/fpv4-sp/hard\libgcc.a(_dvmd_tls.o)
                0x00000000080004c4                __aeabi_idiv0
                0x00000000080004c4                __aeabi_ldiv0
 *(.text*)
 .text.MX_GPIO_Init
                0x00000000080004c8       0x6c Core/Src/gpio.o
                0x00000000080004c8                MX_GPIO_Init
 .text.MX_I2C1_Init
                0x0000000008000534       0x5c Core/Src/i2c.o
                0x0000000008000534                MX_I2C1_Init
 .text.HAL_I2C_MspInit
                0x0000000008000590       0x90 Core/Src/i2c.o
                0x0000000008000590                HAL_I2C_MspInit
 .text.main     0x0000000008000620       0xb0 Core/Src/main.o
                0x0000000008000620                main
 .text.SystemClock_Config
                0x00000000080006d0       0xd4 Core/Src/main.o
                0x00000000080006d0                SystemClock_Config
 .text.Error_Handler
                0x00000000080007a4        0xe Core/Src/main.o
                0x00000000080007a4                Error_Handler
 *fill*         0x00000000080007b2        0x2 
 .text.u8x8_byte_hw_i2c
                0x00000000080007b4       0xd4 Core/Src/oled.o
                0x00000000080007b4                u8x8_byte_hw_i2c
 .text.delay_us
                0x0000000008000888       0x26 Core/Src/oled.o
                0x0000000008000888                delay_us
 *fill*         0x00000000080008ae        0x2 
 .text.u8x8_gpio_and_delay
                0x00000000080008b0      0x13c Core/Src/oled.o
                0x00000000080008b0                u8x8_gpio_and_delay
 .text.u8g2Init
                0x00000000080009ec       0x3c Core/Src/oled.o
                0x00000000080009ec                u8g2Init
 .text.HAL_MspInit
                0x0000000008000a28       0x50 Core/Src/stm32f4xx_hal_msp.o
                0x0000000008000a28                HAL_MspInit
 .text.NMI_Handler
                0x0000000008000a78        0xe Core/Src/stm32f4xx_it.o
                0x0000000008000a78                NMI_Handler
 .text.HardFault_Handler
                0x0000000008000a86        0x6 Core/Src/stm32f4xx_it.o
                0x0000000008000a86                HardFault_Handler
 .text.MemManage_Handler
                0x0000000008000a8c        0x6 Core/Src/stm32f4xx_it.o
                0x0000000008000a8c                MemManage_Handler
 .text.BusFault_Handler
                0x0000000008000a92        0x6 Core/Src/stm32f4xx_it.o
                0x0000000008000a92                BusFault_Handler
 .text.UsageFault_Handler
                0x0000000008000a98        0x6 Core/Src/stm32f4xx_it.o
                0x0000000008000a98                UsageFault_Handler
 .text.SVC_Handler
                0x0000000008000a9e        0xe Core/Src/stm32f4xx_it.o
                0x0000000008000a9e                SVC_Handler
 .text.DebugMon_Handler
                0x0000000008000aac        0xe Core/Src/stm32f4xx_it.o
                0x0000000008000aac                DebugMon_Handler
 .text.PendSV_Handler
                0x0000000008000aba        0xe Core/Src/stm32f4xx_it.o
                0x0000000008000aba                PendSV_Handler
 .text.SysTick_Handler
                0x0000000008000ac8        0xc Core/Src/stm32f4xx_it.o
                0x0000000008000ac8                SysTick_Handler
 .text.SystemInit
                0x0000000008000ad4       0x2c Core/Src/system_stm32f4xx.o
                0x0000000008000ad4                SystemInit
 .text.MX_USART1_UART_Init
                0x0000000008000b00       0x54 Core/Src/usart.o
                0x0000000008000b00                MX_USART1_UART_Init
 .text.HAL_UART_MspInit
                0x0000000008000b54       0x90 Core/Src/usart.o
                0x0000000008000b54                HAL_UART_MspInit
 .text.Reset_Handler
                0x0000000008000be4       0x50 Core/Startup/startup_stm32f407vetx.o
                0x0000000008000be4                Reset_Handler
 .text.Default_Handler
                0x0000000008000c34        0x2 Core/Startup/startup_stm32f407vetx.o
                0x0000000008000c34                RTC_Alarm_IRQHandler
                0x0000000008000c34                HASH_RNG_IRQHandler
                0x0000000008000c34                EXTI2_IRQHandler
                0x0000000008000c34                TIM8_CC_IRQHandler
                0x0000000008000c34                TIM1_CC_IRQHandler
                0x0000000008000c34                DMA2_Stream5_IRQHandler
                0x0000000008000c34                DMA1_Stream5_IRQHandler
                0x0000000008000c34                PVD_IRQHandler
                0x0000000008000c34                SDIO_IRQHandler
                0x0000000008000c34                TAMP_STAMP_IRQHandler
                0x0000000008000c34                CAN2_RX1_IRQHandler
                0x0000000008000c34                EXTI3_IRQHandler
                0x0000000008000c34                TIM8_TRG_COM_TIM14_IRQHandler
                0x0000000008000c34                TIM1_UP_TIM10_IRQHandler
                0x0000000008000c34                TIM8_UP_TIM13_IRQHandler
                0x0000000008000c34                I2C3_ER_IRQHandler
                0x0000000008000c34                EXTI0_IRQHandler
                0x0000000008000c34                I2C2_EV_IRQHandler
                0x0000000008000c34                DMA1_Stream2_IRQHandler
                0x0000000008000c34                CAN1_RX0_IRQHandler
                0x0000000008000c34                FPU_IRQHandler
                0x0000000008000c34                OTG_HS_WKUP_IRQHandler
                0x0000000008000c34                CAN2_SCE_IRQHandler
                0x0000000008000c34                DMA2_Stream2_IRQHandler
                0x0000000008000c34                SPI1_IRQHandler
                0x0000000008000c34                TIM6_DAC_IRQHandler
                0x0000000008000c34                TIM1_BRK_TIM9_IRQHandler
                0x0000000008000c34                DCMI_IRQHandler
                0x0000000008000c34                CAN2_RX0_IRQHandler
                0x0000000008000c34                DMA2_Stream3_IRQHandler
                0x0000000008000c34                USART6_IRQHandler
                0x0000000008000c34                USART3_IRQHandler
                0x0000000008000c34                CAN1_RX1_IRQHandler
                0x0000000008000c34                UART5_IRQHandler
                0x0000000008000c34                DMA2_Stream0_IRQHandler
                0x0000000008000c34                TIM4_IRQHandler
                0x0000000008000c34                I2C1_EV_IRQHandler
                0x0000000008000c34                DMA1_Stream6_IRQHandler
                0x0000000008000c34                DMA1_Stream1_IRQHandler
                0x0000000008000c34                UART4_IRQHandler
                0x0000000008000c34                TIM3_IRQHandler
                0x0000000008000c34                RCC_IRQHandler
                0x0000000008000c34                TIM8_BRK_TIM12_IRQHandler
                0x0000000008000c34                Default_Handler
                0x0000000008000c34                EXTI15_10_IRQHandler
                0x0000000008000c34                ADC_IRQHandler
                0x0000000008000c34                DMA1_Stream7_IRQHandler
                0x0000000008000c34                TIM7_IRQHandler
                0x0000000008000c34                CAN2_TX_IRQHandler
                0x0000000008000c34                TIM5_IRQHandler
                0x0000000008000c34                DMA2_Stream7_IRQHandler
                0x0000000008000c34                I2C3_EV_IRQHandler
                0x0000000008000c34                EXTI9_5_IRQHandler
                0x0000000008000c34                RTC_WKUP_IRQHandler
                0x0000000008000c34                ETH_WKUP_IRQHandler
                0x0000000008000c34                SPI2_IRQHandler
                0x0000000008000c34                OTG_HS_EP1_IN_IRQHandler
                0x0000000008000c34                DMA1_Stream0_IRQHandler
                0x0000000008000c34                CAN1_TX_IRQHandler
                0x0000000008000c34                EXTI4_IRQHandler
                0x0000000008000c34                FSMC_IRQHandler
                0x0000000008000c34                ETH_IRQHandler
                0x0000000008000c34                OTG_HS_EP1_OUT_IRQHandler
                0x0000000008000c34                WWDG_IRQHandler
                0x0000000008000c34                TIM2_IRQHandler
                0x0000000008000c34                OTG_FS_WKUP_IRQHandler
                0x0000000008000c34                TIM1_TRG_COM_TIM11_IRQHandler
                0x0000000008000c34                OTG_HS_IRQHandler
                0x0000000008000c34                EXTI1_IRQHandler
                0x0000000008000c34                USART2_IRQHandler
                0x0000000008000c34                I2C2_ER_IRQHandler
                0x0000000008000c34                DMA2_Stream1_IRQHandler
                0x0000000008000c34                CAN1_SCE_IRQHandler
                0x0000000008000c34                FLASH_IRQHandler
                0x0000000008000c34                DMA2_Stream4_IRQHandler
                0x0000000008000c34                USART1_IRQHandler
                0x0000000008000c34                OTG_FS_IRQHandler
                0x0000000008000c34                SPI3_IRQHandler
                0x0000000008000c34                DMA1_Stream4_IRQHandler
                0x0000000008000c34                I2C1_ER_IRQHandler
                0x0000000008000c34                DMA2_Stream6_IRQHandler
                0x0000000008000c34                DMA1_Stream3_IRQHandler
 *fill*         0x0000000008000c36        0x2 
 .text.HAL_Init
                0x0000000008000c38       0x44 Drivers/STM32F4xx_HAL_Driver/Src/stm32f4xx_hal.o
                0x0000000008000c38                HAL_Init
 .text.HAL_InitTick
                0x0000000008000c7c       0x60 Drivers/STM32F4xx_HAL_Driver/Src/stm32f4xx_hal.o
                0x0000000008000c7c                HAL_InitTick
 .text.HAL_IncTick
                0x0000000008000cdc       0x28 Drivers/STM32F4xx_HAL_Driver/Src/stm32f4xx_hal.o
                0x0000000008000cdc                HAL_IncTick
 .text.HAL_GetTick
                0x0000000008000d04       0x18 Drivers/STM32F4xx_HAL_Driver/Src/stm32f4xx_hal.o
                0x0000000008000d04                HAL_GetTick
 .text.HAL_Delay
                0x0000000008000d1c       0x44 Drivers/STM32F4xx_HAL_Driver/Src/stm32f4xx_hal.o
                0x0000000008000d1c                HAL_Delay
 .text.__NVIC_SetPriorityGrouping
                0x0000000008000d60       0x48 Drivers/STM32F4xx_HAL_Driver/Src/stm32f4xx_hal_cortex.o
 .text.__NVIC_GetPriorityGrouping
                0x0000000008000da8       0x1c Drivers/STM32F4xx_HAL_Driver/Src/stm32f4xx_hal_cortex.o
 .text.__NVIC_SetPriority
                0x0000000008000dc4       0x54 Drivers/STM32F4xx_HAL_Driver/Src/stm32f4xx_hal_cortex.o
 .text.NVIC_EncodePriority
                0x0000000008000e18       0x66 Drivers/STM32F4xx_HAL_Driver/Src/stm32f4xx_hal_cortex.o
 *fill*         0x0000000008000e7e        0x2 
 .text.SysTick_Config
                0x0000000008000e80       0x44 Drivers/STM32F4xx_HAL_Driver/Src/stm32f4xx_hal_cortex.o
 .text.HAL_NVIC_SetPriorityGrouping
                0x0000000008000ec4       0x16 Drivers/STM32F4xx_HAL_Driver/Src/stm32f4xx_hal_cortex.o
                0x0000000008000ec4                HAL_NVIC_SetPriorityGrouping
 .text.HAL_NVIC_SetPriority
                0x0000000008000eda       0x38 Drivers/STM32F4xx_HAL_Driver/Src/stm32f4xx_hal_cortex.o
                0x0000000008000eda                HAL_NVIC_SetPriority
 .text.HAL_SYSTICK_Config
                0x0000000008000f12       0x18 Drivers/STM32F4xx_HAL_Driver/Src/stm32f4xx_hal_cortex.o
                0x0000000008000f12                HAL_SYSTICK_Config
 *fill*         0x0000000008000f2a        0x2 
 .text.HAL_GPIO_Init
                0x0000000008000f2c      0x334 Drivers/STM32F4xx_HAL_Driver/Src/stm32f4xx_hal_gpio.o
                0x0000000008000f2c                HAL_GPIO_Init
 .text.HAL_I2C_Init
                0x0000000008001260      0x270 Drivers/STM32F4xx_HAL_Driver/Src/stm32f4xx_hal_i2c.o
                0x0000000008001260                HAL_I2C_Init
 .text.HAL_I2C_Master_Transmit
                0x00000000080014d0      0x1fc Drivers/STM32F4xx_HAL_Driver/Src/stm32f4xx_hal_i2c.o
                0x00000000080014d0                HAL_I2C_Master_Transmit
 .text.I2C_MasterRequestWrite
                0x00000000080016cc      0x104 Drivers/STM32F4xx_HAL_Driver/Src/stm32f4xx_hal_i2c.o
 .text.I2C_WaitOnFlagUntilTimeout
                0x00000000080017d0       0xae Drivers/STM32F4xx_HAL_Driver/Src/stm32f4xx_hal_i2c.o
 .text.I2C_WaitOnMasterAddressFlagUntilTimeout
                0x000000000800187e       0xfe Drivers/STM32F4xx_HAL_Driver/Src/stm32f4xx_hal_i2c.o
 .text.I2C_WaitOnTXEFlagUntilTimeout
                0x000000000800197c       0x82 Drivers/STM32F4xx_HAL_Driver/Src/stm32f4xx_hal_i2c.o
 .text.I2C_WaitOnBTFFlagUntilTimeout
                0x00000000080019fe       0x82 Drivers/STM32F4xx_HAL_Driver/Src/stm32f4xx_hal_i2c.o
 .text.I2C_IsAcknowledgeFailed
                0x0000000008001a80       0x5e Drivers/STM32F4xx_HAL_Driver/Src/stm32f4xx_hal_i2c.o
 *fill*         0x0000000008001ade        0x2 
 .text.HAL_RCC_OscConfig
                0x0000000008001ae0      0x4e0 Drivers/STM32F4xx_HAL_Driver/Src/stm32f4xx_hal_rcc.o
                0x0000000008001ae0                HAL_RCC_OscConfig
 .text.HAL_RCC_ClockConfig
                0x0000000008001fc0      0x1cc Drivers/STM32F4xx_HAL_Driver/Src/stm32f4xx_hal_rcc.o
                0x0000000008001fc0                HAL_RCC_ClockConfig
 .text.HAL_RCC_GetSysClockFreq
                0x000000000800218c      0x1b0 Drivers/STM32F4xx_HAL_Driver/Src/stm32f4xx_hal_rcc.o
                0x000000000800218c                HAL_RCC_GetSysClockFreq
 .text.HAL_RCC_GetHCLKFreq
                0x000000000800233c       0x18 Drivers/STM32F4xx_HAL_Driver/Src/stm32f4xx_hal_rcc.o
                0x000000000800233c                HAL_RCC_GetHCLKFreq
 .text.HAL_RCC_GetPCLK1Freq
                0x0000000008002354       0x28 Drivers/STM32F4xx_HAL_Driver/Src/stm32f4xx_hal_rcc.o
                0x0000000008002354                HAL_RCC_GetPCLK1Freq
 .text.HAL_RCC_GetPCLK2Freq
                0x000000000800237c       0x28 Drivers/STM32F4xx_HAL_Driver/Src/stm32f4xx_hal_rcc.o
                0x000000000800237c                HAL_RCC_GetPCLK2Freq
 .text.HAL_UART_Init
                0x00000000080023a4       0x9a Drivers/STM32F4xx_HAL_Driver/Src/stm32f4xx_hal_uart.o
                0x00000000080023a4                HAL_UART_Init
 *fill*         0x000000000800243e        0x2 
 .text.UART_SetConfig
                0x0000000008002440      0x6f8 Drivers/STM32F4xx_HAL_Driver/Src/stm32f4xx_hal_uart.o
 .text.u8g2_DrawBox
                0x0000000008002b38       0x6e u8g2/u8g2_box.o
                0x0000000008002b38                u8g2_DrawBox
 .text.u8g2_DrawFrame
                0x0000000008002ba6       0xc2 u8g2/u8g2_box.o
                0x0000000008002ba6                u8g2_DrawFrame
 .text.u8g2_ClearBuffer
                0x0000000008002c68       0x3c u8g2/u8g2_buffer.o
                0x0000000008002c68                u8g2_ClearBuffer
 .text.u8g2_send_tile_row
                0x0000000008002ca4       0x56 u8g2/u8g2_buffer.o
 .text.u8g2_send_buffer
                0x0000000008002cfa       0x54 u8g2/u8g2_buffer.o
 .text.u8g2_SendBuffer
                0x0000000008002d4e       0x1c u8g2/u8g2_buffer.o
                0x0000000008002d4e                u8g2_SendBuffer
 *fill*         0x0000000008002d6a        0x2 
 .text.u8g2_m_16_8_f
                0x0000000008002d6c       0x20 u8g2/u8g2_d_memory.o
                0x0000000008002d6c                u8g2_m_16_8_f
 .text.u8g2_Setup_ssd1306_i2c_128x64_noname_f
                0x0000000008002d8c       0x50 u8g2/u8g2_d_setup.o
                0x0000000008002d8c                u8g2_Setup_ssd1306_i2c_128x64_noname_f
 .text.u8g2_font_get_byte
                0x0000000008002ddc       0x24 u8g2/u8g2_font.o
 .text.u8g2_font_get_word
                0x0000000008002e00       0x40 u8g2/u8g2_font.o
 .text.u8g2_read_font_info
                0x0000000008002e40      0x152 u8g2/u8g2_font.o
                0x0000000008002e40                u8g2_read_font_info
 .text.u8g2_font_decode_get_unsigned_bits
                0x0000000008002f92       0x96 u8g2/u8g2_font.o
                0x0000000008002f92                u8g2_font_decode_get_unsigned_bits
 .text.u8g2_font_decode_get_signed_bits
                0x0000000008003028       0x46 u8g2/u8g2_font.o
                0x0000000008003028                u8g2_font_decode_get_signed_bits
 .text.u8g2_add_vector_y
                0x000000000800306e       0x70 u8g2/u8g2_font.o
                0x000000000800306e                u8g2_add_vector_y
 .text.u8g2_add_vector_x
                0x00000000080030de       0x70 u8g2/u8g2_font.o
                0x00000000080030de                u8g2_add_vector_x
 .text.u8g2_font_decode_len
                0x000000000800314e      0x110 u8g2/u8g2_font.o
                0x000000000800314e                u8g2_font_decode_len
 .text.u8g2_font_setup_decode
                0x000000000800325e       0x6e u8g2/u8g2_font.o
 .text.u8g2_font_decode_glyph
                0x00000000080032cc      0x21c u8g2/u8g2_font.o
                0x00000000080032cc                u8g2_font_decode_glyph
 .text.u8g2_font_get_glyph_data
                0x00000000080034e8      0x100 u8g2/u8g2_font.o
                0x00000000080034e8                u8g2_font_get_glyph_data
 .text.u8g2_font_draw_glyph
                0x00000000080035e8       0x56 u8g2/u8g2_font.o
 *fill*         0x000000000800363e        0x2 
 .text.u8g2_DrawGlyph
                0x0000000008003640       0xa4 u8g2/u8g2_font.o
                0x0000000008003640                u8g2_DrawGlyph
 .text.u8g2_draw_string
                0x00000000080036e4       0xb8 u8g2/u8g2_font.o
 .text.u8g2_DrawStr
                0x000000000800379c       0x34 u8g2/u8g2_font.o
                0x000000000800379c                u8g2_DrawStr
 .text.u8g2_UpdateRefHeight
                0x00000000080037d0       0xd8 u8g2/u8g2_font.o
                0x00000000080037d0                u8g2_UpdateRefHeight
 .text.u8g2_font_calc_vref_font
                0x00000000080038a8       0x16 u8g2/u8g2_font.o
                0x00000000080038a8                u8g2_font_calc_vref_font
 *fill*         0x00000000080038be        0x2 
 .text.u8g2_SetFontPosBaseline
                0x00000000080038c0       0x20 u8g2/u8g2_font.o
                0x00000000080038c0                u8g2_SetFontPosBaseline
 .text.u8g2_SetFont
                0x00000000080038e0       0x34 u8g2/u8g2_font.o
                0x00000000080038e0                u8g2_SetFont
 .text.u8g2_clip_intersection2
                0x0000000008003914       0x9c u8g2/u8g2_hvline.o
 .text.u8g2_draw_hv_line_2dir
                0x00000000080039b0       0x42 u8g2/u8g2_hvline.o
                0x00000000080039b0                u8g2_draw_hv_line_2dir
 .text.u8g2_DrawHVLine
                0x00000000080039f2      0x116 u8g2/u8g2_hvline.o
                0x00000000080039f2                u8g2_DrawHVLine
 .text.u8g2_is_intersection_decision_tree
                0x0000000008003b08       0x66 u8g2/u8g2_intersection.o
                0x0000000008003b08                u8g2_is_intersection_decision_tree
 .text.u8g2_IsIntersection
                0x0000000008003b6e       0x56 u8g2/u8g2_intersection.o
                0x0000000008003b6e                u8g2_IsIntersection
 .text.u8g2_ll_hvline_vertical_top_lsb
                0x0000000008003bc4      0x140 u8g2/u8g2_ll_hvline.o
                0x0000000008003bc4                u8g2_ll_hvline_vertical_top_lsb
 .text.u8g2_SetMaxClipWindow
                0x0000000008003d04       0x3e u8g2/u8g2_setup.o
                0x0000000008003d04                u8g2_SetMaxClipWindow
 .text.u8g2_SetupBuffer
                0x0000000008003d42       0x7e u8g2/u8g2_setup.o
                0x0000000008003d42                u8g2_SetupBuffer
 .text.u8g2_update_dimension_common
                0x0000000008003dc0       0xc2 u8g2/u8g2_setup.o
 .text.u8g2_apply_clip_window
                0x0000000008003e82       0xba u8g2/u8g2_setup.o
 .text.u8g2_update_dimension_r0
                0x0000000008003f3c       0x16 u8g2/u8g2_setup.o
                0x0000000008003f3c                u8g2_update_dimension_r0
 .text.u8g2_update_page_win_r0
                0x0000000008003f52       0x42 u8g2/u8g2_setup.o
                0x0000000008003f52                u8g2_update_page_win_r0
 .text.u8g2_draw_l90_r0
                0x0000000008003f94       0x34 u8g2/u8g2_setup.o
                0x0000000008003f94                u8g2_draw_l90_r0
 .text.u8x8_utf8_init
                0x0000000008003fc8       0x1c u8g2/u8x8_8x8.o
                0x0000000008003fc8                u8x8_utf8_init
 .text.u8x8_ascii_next
                0x0000000008003fe4       0x2e u8g2/u8x8_8x8.o
                0x0000000008003fe4                u8x8_ascii_next
 .text.u8x8_byte_SendBytes
                0x0000000008004012       0x26 u8g2/u8x8_byte.o
                0x0000000008004012                u8x8_byte_SendBytes
 .text.u8x8_byte_SendByte
                0x0000000008004038       0x22 u8g2/u8x8_byte.o
                0x0000000008004038                u8x8_byte_SendByte
 .text.u8x8_byte_StartTransfer
                0x000000000800405a       0x20 u8g2/u8x8_byte.o
                0x000000000800405a                u8x8_byte_StartTransfer
 .text.u8x8_byte_EndTransfer
                0x000000000800407a       0x20 u8g2/u8x8_byte.o
                0x000000000800407a                u8x8_byte_EndTransfer
 .text.u8x8_cad_SendCmd
                0x000000000800409a       0x24 u8g2/u8x8_cad.o
                0x000000000800409a                u8x8_cad_SendCmd
 .text.u8x8_cad_SendArg
                0x00000000080040be       0x24 u8g2/u8x8_cad.o
                0x00000000080040be                u8x8_cad_SendArg
 .text.u8x8_cad_SendData
                0x00000000080040e2       0x26 u8g2/u8x8_cad.o
                0x00000000080040e2                u8x8_cad_SendData
 .text.u8x8_cad_StartTransfer
                0x0000000008004108       0x20 u8g2/u8x8_cad.o
                0x0000000008004108                u8x8_cad_StartTransfer
 .text.u8x8_cad_EndTransfer
                0x0000000008004128       0x20 u8g2/u8x8_cad.o
                0x0000000008004128                u8x8_cad_EndTransfer
 .text.u8x8_cad_SendSequence
                0x0000000008004148       0x9c u8g2/u8x8_cad.o
                0x0000000008004148                u8x8_cad_SendSequence
 .text.u8x8_i2c_data_transfer
                0x00000000080041e4       0x38 u8g2/u8x8_cad.o
 .text.u8x8_cad_ssd13xx_fast_i2c
                0x000000000800421c      0x10c u8g2/u8x8_cad.o
                0x000000000800421c                u8x8_cad_ssd13xx_fast_i2c
 .text.u8x8_d_ssd1306_sh1106_generic
                0x0000000008004328      0x150 u8g2/u8x8_d_ssd1306_128x64_noname.o
 .text.u8x8_d_ssd1306_128x64_noname
                0x0000000008004478       0x64 u8g2/u8x8_d_ssd1306_128x64_noname.o
                0x0000000008004478                u8x8_d_ssd1306_128x64_noname
 .text.u8x8_d_helper_display_setup_memory
                0x00000000080044dc       0x28 u8g2/u8x8_display.o
                0x00000000080044dc                u8x8_d_helper_display_setup_memory
 .text.u8x8_d_helper_display_init
                0x0000000008004504       0x7a u8g2/u8x8_display.o
                0x0000000008004504                u8x8_d_helper_display_init
 .text.u8x8_DrawTile
                0x000000000800457e       0x44 u8g2/u8x8_display.o
                0x000000000800457e                u8x8_DrawTile
 .text.u8x8_SetupMemory
                0x00000000080045c2       0x1e u8g2/u8x8_display.o
                0x00000000080045c2                u8x8_SetupMemory
 .text.u8x8_InitDisplay
                0x00000000080045e0       0x1e u8g2/u8x8_display.o
                0x00000000080045e0                u8x8_InitDisplay
 .text.u8x8_SetPowerSave
                0x00000000080045fe       0x22 u8g2/u8x8_display.o
                0x00000000080045fe                u8x8_SetPowerSave
 .text.u8x8_RefreshDisplay
                0x0000000008004620       0x1e u8g2/u8x8_display.o
                0x0000000008004620                u8x8_RefreshDisplay
 .text.u8x8_gpio_call
                0x000000000800463e       0x26 u8g2/u8x8_gpio.o
                0x000000000800463e                u8x8_gpio_call
 .text.u8x8_dummy_cb
                0x0000000008004664       0x20 u8g2/u8x8_setup.o
                0x0000000008004664                u8x8_dummy_cb
 .text.u8x8_SetupDefaults
                0x0000000008004684       0x5c u8g2/u8x8_setup.o
                0x0000000008004684                u8x8_SetupDefaults
 .text.u8x8_Setup
                0x00000000080046e0       0x3a u8g2/u8x8_setup.o
                0x00000000080046e0                u8x8_Setup
 *fill*         0x000000000800471a        0x2 
 .text.__libc_init_array
                0x000000000800471c       0x48 d:/cubeide/stm32cubeide_1.4.0/stm32cubeide/plugins/com.st.stm32cube.ide.mcu.externaltools.gnu-tools-for-stm32.7-2018-q2-update.win32_1.4.0.202007081208/tools/bin/../lib/gcc/arm-none-eabi/7.3.1/../../../../arm-none-eabi/lib/thumb/v7e-m/fpv4-sp/hard\libc_nano.a(lib_a-init.o)
                0x000000000800471c                __libc_init_array
 .text.memset   0x0000000008004764       0x10 d:/cubeide/stm32cubeide_1.4.0/stm32cubeide/plugins/com.st.stm32cube.ide.mcu.externaltools.gnu-tools-for-stm32.7-2018-q2-update.win32_1.4.0.202007081208/tools/bin/../lib/gcc/arm-none-eabi/7.3.1/../../../../arm-none-eabi/lib/thumb/v7e-m/fpv4-sp/hard\libc_nano.a(lib_a-memset.o)
                0x0000000008004764                memset
 *(.glue_7)
 .glue_7        0x0000000008004774        0x0 linker stubs
 *(.glue_7t)
 .glue_7t       0x0000000008004774        0x0 linker stubs
 *(.eh_frame)
 .eh_frame      0x0000000008004774        0x0 d:/cubeide/stm32cubeide_1.4.0/stm32cubeide/plugins/com.st.stm32cube.ide.mcu.externaltools.gnu-tools-for-stm32.7-2018-q2-update.win32_1.4.0.202007081208/tools/bin/../lib/gcc/arm-none-eabi/7.3.1/thumb/v7e-m/fpv4-sp/hard/crtbegin.o
 *(.init)
 .init          0x0000000008004774        0x4 d:/cubeide/stm32cubeide_1.4.0/stm32cubeide/plugins/com.st.stm32cube.ide.mcu.externaltools.gnu-tools-for-stm32.7-2018-q2-update.win32_1.4.0.202007081208/tools/bin/../lib/gcc/arm-none-eabi/7.3.1/thumb/v7e-m/fpv4-sp/hard/crti.o
                0x0000000008004774                _init
 .init          0x0000000008004778        0x8 d:/cubeide/stm32cubeide_1.4.0/stm32cubeide/plugins/com.st.stm32cube.ide.mcu.externaltools.gnu-tools-for-stm32.7-2018-q2-update.win32_1.4.0.202007081208/tools/bin/../lib/gcc/arm-none-eabi/7.3.1/thumb/v7e-m/fpv4-sp/hard/crtn.o
 *(.fini)
 .fini          0x0000000008004780        0x4 d:/cubeide/stm32cubeide_1.4.0/stm32cubeide/plugins/com.st.stm32cube.ide.mcu.externaltools.gnu-tools-for-stm32.7-2018-q2-update.win32_1.4.0.202007081208/tools/bin/../lib/gcc/arm-none-eabi/7.3.1/thumb/v7e-m/fpv4-sp/hard/crti.o
                0x0000000008004780                _fini
 .fini          0x0000000008004784        0x8 d:/cubeide/stm32cubeide_1.4.0/stm32cubeide/plugins/com.st.stm32cube.ide.mcu.externaltools.gnu-tools-for-stm32.7-2018-q2-update.win32_1.4.0.202007081208/tools/bin/../lib/gcc/arm-none-eabi/7.3.1/thumb/v7e-m/fpv4-sp/hard/crtn.o
                0x000000000800478c                . = ALIGN (0x4)
                0x000000000800478c                _etext = .

.vfp11_veneer   0x000000000800478c        0x0
 .vfp11_veneer  0x000000000800478c        0x0 linker stubs

.v4_bx          0x000000000800478c        0x0
 .v4_bx         0x000000000800478c        0x0 linker stubs

.iplt           0x000000000800478c        0x0
 .iplt          0x000000000800478c        0x0 d:/cubeide/stm32cubeide_1.4.0/stm32cubeide/plugins/com.st.stm32cube.ide.mcu.externaltools.gnu-tools-for-stm32.7-2018-q2-update.win32_1.4.0.202007081208/tools/bin/../lib/gcc/arm-none-eabi/7.3.1/thumb/v7e-m/fpv4-sp/hard/crtbegin.o

.rodata         0x000000000800478c     0x2e28
                0x000000000800478c                . = ALIGN (0x4)
 *(.rodata)
 .rodata        0x000000000800478c        0x8 Core/Src/main.o
 *(.rodata*)
 .rodata.AHBPrescTable
                0x0000000008004794       0x10 Core/Src/system_stm32f4xx.o
                0x0000000008004794                AHBPrescTable
 .rodata.APBPrescTable
                0x00000000080047a4        0x8 Core/Src/system_stm32f4xx.o
                0x00000000080047a4                APBPrescTable
 .rodata.u8g2_font_9x15_tf
                0x00000000080047ac      0xa61 u8g2/u8g2_fonts.o
                0x00000000080047ac                u8g2_font_9x15_tf
 *fill*         0x000000000800520d        0x3 
 .rodata.u8g2_font_unifont_t_symbols
                0x0000000008005210     0x2327 u8g2/u8g2_fonts.o
                0x0000000008005210                u8g2_font_unifont_t_symbols
 *fill*         0x0000000008007537        0x1 
 .rodata.u8g2_cb_r0
                0x0000000008007538        0xc u8g2/u8g2_setup.o
                0x0000000008007538                u8g2_cb_r0
 .rodata.u8x8_d_ssd1306_128x64_noname_init_seq
                0x0000000008007544       0x35 u8g2/u8x8_d_ssd1306_128x64_noname.o
 *fill*         0x0000000008007579        0x3 
 .rodata.u8x8_d_ssd1306_128x64_noname_powersave0_seq
                0x000000000800757c        0x5 u8g2/u8x8_d_ssd1306_128x64_noname.o
 *fill*         0x0000000008007581        0x3 
 .rodata.u8x8_d_ssd1306_128x64_noname_powersave1_seq
                0x0000000008007584        0x5 u8g2/u8x8_d_ssd1306_128x64_noname.o
 *fill*         0x0000000008007589        0x3 
 .rodata.u8x8_d_ssd1306_128x64_noname_flip0_seq
                0x000000000800758c        0x7 u8g2/u8x8_d_ssd1306_128x64_noname.o
 *fill*         0x0000000008007593        0x1 
 .rodata.u8x8_d_ssd1306_128x64_noname_flip1_seq
                0x0000000008007594        0x7 u8g2/u8x8_d_ssd1306_128x64_noname.o
 *fill*         0x000000000800759b        0x1 
 .rodata.u8x8_ssd1306_128x64_noname_display_info
                0x000000000800759c       0x18 u8g2/u8x8_d_ssd1306_128x64_noname.o
                0x00000000080075b4                . = ALIGN (0x4)

.ARM.extab      0x00000000080075b4        0x0
                0x00000000080075b4                . = ALIGN (0x4)
 *(.ARM.extab* .gnu.linkonce.armextab.*)
                0x00000000080075b4                . = ALIGN (0x4)

.ARM            0x00000000080075b4        0x8
                0x00000000080075b4                . = ALIGN (0x4)
                0x00000000080075b4                __exidx_start = .
 *(.ARM.exidx*)
 .ARM.exidx     0x00000000080075b4        0x8 d:/cubeide/stm32cubeide_1.4.0/stm32cubeide/plugins/com.st.stm32cube.ide.mcu.externaltools.gnu-tools-for-stm32.7-2018-q2-update.win32_1.4.0.202007081208/tools/bin/../lib/gcc/arm-none-eabi/7.3.1/thumb/v7e-m/fpv4-sp/hard\libgcc.a(_udivmoddi4.o)
                0x00000000080075bc                __exidx_end = .
                0x00000000080075bc                . = ALIGN (0x4)

.rel.dyn        0x00000000080075bc        0x0
 .rel.iplt      0x00000000080075bc        0x0 d:/cubeide/stm32cubeide_1.4.0/stm32cubeide/plugins/com.st.stm32cube.ide.mcu.externaltools.gnu-tools-for-stm32.7-2018-q2-update.win32_1.4.0.202007081208/tools/bin/../lib/gcc/arm-none-eabi/7.3.1/thumb/v7e-m/fpv4-sp/hard/crtbegin.o

.preinit_array  0x00000000080075bc        0x0
                0x00000000080075bc                . = ALIGN (0x4)
                0x00000000080075bc                PROVIDE (__preinit_array_start = .)
 *(.preinit_array*)
                0x00000000080075bc                PROVIDE (__preinit_array_end = .)
                0x00000000080075bc                . = ALIGN (0x4)

.init_array     0x00000000080075bc        0x4
                0x00000000080075bc                . = ALIGN (0x4)
                0x00000000080075bc                PROVIDE (__init_array_start = .)
 *(SORT_BY_NAME(.init_array.*))
 *(.init_array*)
 .init_array    0x00000000080075bc        0x4 d:/cubeide/stm32cubeide_1.4.0/stm32cubeide/plugins/com.st.stm32cube.ide.mcu.externaltools.gnu-tools-for-stm32.7-2018-q2-update.win32_1.4.0.202007081208/tools/bin/../lib/gcc/arm-none-eabi/7.3.1/thumb/v7e-m/fpv4-sp/hard/crtbegin.o
                0x00000000080075c0                PROVIDE (__init_array_end = .)
                0x00000000080075c0                . = ALIGN (0x4)

.fini_array     0x00000000080075c0        0x4
                0x00000000080075c0                . = ALIGN (0x4)
                [!provide]                        PROVIDE (__fini_array_start = .)
 *(SORT_BY_NAME(.fini_array.*))
 *(.fini_array*)
 .fini_array    0x00000000080075c0        0x4 d:/cubeide/stm32cubeide_1.4.0/stm32cubeide/plugins/com.st.stm32cube.ide.mcu.externaltools.gnu-tools-for-stm32.7-2018-q2-update.win32_1.4.0.202007081208/tools/bin/../lib/gcc/arm-none-eabi/7.3.1/thumb/v7e-m/fpv4-sp/hard/crtbegin.o
                [!provide]                        PROVIDE (__fini_array_end = .)
                0x00000000080075c4                . = ALIGN (0x4)
                0x00000000080075c4                _sidata = LOADADDR (.data)

.data           0x0000000020000000        0xc load address 0x00000000080075c4
                0x0000000020000000                . = ALIGN (0x4)
                0x0000000020000000                _sdata = .
 *(.data)
 *(.data*)
 .data.SystemCoreClock
                0x0000000020000000        0x4 Core/Src/system_stm32f4xx.o
                0x0000000020000000                SystemCoreClock
 .data.uwTickPrio
                0x0000000020000004        0x4 Drivers/STM32F4xx_HAL_Driver/Src/stm32f4xx_hal.o
                0x0000000020000004                uwTickPrio
 .data.uwTickFreq
                0x0000000020000008        0x1 Drivers/STM32F4xx_HAL_Driver/Src/stm32f4xx_hal.o
                0x0000000020000008                uwTickFreq
                0x000000002000000c                . = ALIGN (0x4)
 *fill*         0x0000000020000009        0x3 
                0x000000002000000c                _edata = .

.igot.plt       0x000000002000000c        0x0 load address 0x00000000080075d0
 .igot.plt      0x000000002000000c        0x0 d:/cubeide/stm32cubeide_1.4.0/stm32cubeide/plugins/com.st.stm32cube.ide.mcu.externaltools.gnu-tools-for-stm32.7-2018-q2-update.win32_1.4.0.202007081208/tools/bin/../lib/gcc/arm-none-eabi/7.3.1/thumb/v7e-m/fpv4-sp/hard/crtbegin.o
                0x000000002000000c                . = ALIGN (0x4)

.bss            0x000000002000000c      0x53c load address 0x00000000080075d0
                0x000000002000000c                _sbss = .
                0x000000002000000c                __bss_start__ = _sbss
 *(.bss)
 .bss           0x000000002000000c       0x1c d:/cubeide/stm32cubeide_1.4.0/stm32cubeide/plugins/com.st.stm32cube.ide.mcu.externaltools.gnu-tools-for-stm32.7-2018-q2-update.win32_1.4.0.202007081208/tools/bin/../lib/gcc/arm-none-eabi/7.3.1/thumb/v7e-m/fpv4-sp/hard/crtbegin.o
 *(.bss*)
 .bss.buf_idx.15288
                0x0000000020000028        0x1 Core/Src/oled.o
 *fill*         0x0000000020000029        0x3 
 .bss.buffer.15287
                0x000000002000002c       0x80 Core/Src/oled.o
 .bss.buf.12764
                0x00000000200000ac      0x400 u8g2/u8g2_d_memory.o
 .bss.in_transfer.7034
                0x00000000200004ac        0x1 u8g2/u8x8_cad.o
 *(COMMON)
 *fill*         0x00000000200004ad        0x3 
 COMMON         0x00000000200004b0       0x54 Core/Src/i2c.o
                0x00000000200004b0                hi2c1
 COMMON         0x0000000020000504       0x40 Core/Src/usart.o
                0x0000000020000504                huart1
 COMMON         0x0000000020000544        0x4 Drivers/STM32F4xx_HAL_Driver/Src/stm32f4xx_hal.o
                0x0000000020000544                uwTick
                0x0000000020000548                . = ALIGN (0x4)
                0x0000000020000548                _ebss = .
                0x0000000020000548                __bss_end__ = _ebss

._user_heap_stack
                0x0000000020000548      0x600 load address 0x00000000080075d0
                0x0000000020000548                . = ALIGN (0x8)
                [!provide]                        PROVIDE (end = .)
                0x0000000020000548                PROVIDE (_end = .)
                0x0000000020000748                . = (. + _Min_Heap_Size)
 *fill*         0x0000000020000548      0x200 
                0x0000000020000b48                . = (. + _Min_Stack_Size)
 *fill*         0x0000000020000748      0x400 
                0x0000000020000b48                . = ALIGN (0x8)

/DISCARD/
 libc.a(*)
 libm.a(*)
 libgcc.a(*)

.ARM.attributes
                0x0000000000000000       0x30
 *(.ARM.attributes)
 .ARM.attributes
                0x0000000000000000       0x22 d:/cubeide/stm32cubeide_1.4.0/stm32cubeide/plugins/com.st.stm32cube.ide.mcu.externaltools.gnu-tools-for-stm32.7-2018-q2-update.win32_1.4.0.202007081208/tools/bin/../lib/gcc/arm-none-eabi/7.3.1/thumb/v7e-m/fpv4-sp/hard/crti.o
 .ARM.attributes
                0x0000000000000022       0x34 d:/cubeide/stm32cubeide_1.4.0/stm32cubeide/plugins/com.st.stm32cube.ide.mcu.externaltools.gnu-tools-for-stm32.7-2018-q2-update.win32_1.4.0.202007081208/tools/bin/../lib/gcc/arm-none-eabi/7.3.1/thumb/v7e-m/fpv4-sp/hard/crtbegin.o
 .ARM.attributes
                0x0000000000000056       0x39 Core/Src/gpio.o
 .ARM.attributes
                0x000000000000008f       0x39 Core/Src/i2c.o
 .ARM.attributes
                0x00000000000000c8       0x39 Core/Src/main.o
 .ARM.attributes
                0x0000000000000101       0x39 Core/Src/oled.o
 .ARM.attributes
                0x000000000000013a       0x39 Core/Src/stm32f4xx_hal_msp.o
 .ARM.attributes
                0x0000000000000173       0x39 Core/Src/stm32f4xx_it.o
 .ARM.attributes
                0x00000000000001ac       0x39 Core/Src/system_stm32f4xx.o
 .ARM.attributes
                0x00000000000001e5       0x39 Core/Src/usart.o
 .ARM.attributes
                0x000000000000021e       0x21 Core/Startup/startup_stm32f407vetx.o
 .ARM.attributes
                0x000000000000023f       0x39 Drivers/STM32F4xx_HAL_Driver/Src/stm32f4xx_hal.o
 .ARM.attributes
                0x0000000000000278       0x39 Drivers/STM32F4xx_HAL_Driver/Src/stm32f4xx_hal_cortex.o
 .ARM.attributes
                0x00000000000002b1       0x39 Drivers/STM32F4xx_HAL_Driver/Src/stm32f4xx_hal_gpio.o
 .ARM.attributes
                0x00000000000002ea       0x39 Drivers/STM32F4xx_HAL_Driver/Src/stm32f4xx_hal_i2c.o
 .ARM.attributes
                0x0000000000000323       0x39 Drivers/STM32F4xx_HAL_Driver/Src/stm32f4xx_hal_rcc.o
 .ARM.attributes
                0x000000000000035c       0x39 Drivers/STM32F4xx_HAL_Driver/Src/stm32f4xx_hal_uart.o
 .ARM.attributes
                0x0000000000000395       0x39 u8g2/u8g2_box.o
 .ARM.attributes
                0x00000000000003ce       0x39 u8g2/u8g2_buffer.o
 .ARM.attributes
                0x0000000000000407       0x39 u8g2/u8g2_d_memory.o
 .ARM.attributes
                0x0000000000000440       0x39 u8g2/u8g2_d_setup.o
 .ARM.attributes
                0x0000000000000479       0x39 u8g2/u8g2_font.o
 .ARM.attributes
                0x00000000000004b2       0x39 u8g2/u8g2_fonts.o
 .ARM.attributes
                0x00000000000004eb       0x39 u8g2/u8g2_hvline.o
 .ARM.attributes
                0x0000000000000524       0x39 u8g2/u8g2_intersection.o
 .ARM.attributes
                0x000000000000055d       0x39 u8g2/u8g2_ll_hvline.o
 .ARM.attributes
                0x0000000000000596       0x39 u8g2/u8g2_setup.o
 .ARM.attributes
                0x00000000000005cf       0x39 u8g2/u8x8_8x8.o
 .ARM.attributes
                0x0000000000000608       0x39 u8g2/u8x8_byte.o
 .ARM.attributes
                0x0000000000000641       0x39 u8g2/u8x8_cad.o
 .ARM.attributes
                0x000000000000067a       0x39 u8g2/u8x8_d_ssd1306_128x64_noname.o
 .ARM.attributes
                0x00000000000006b3       0x39 u8g2/u8x8_display.o
 .ARM.attributes
                0x00000000000006ec       0x39 u8g2/u8x8_gpio.o
 .ARM.attributes
                0x0000000000000725       0x39 u8g2/u8x8_setup.o
 .ARM.attributes
                0x000000000000075e       0x34 d:/cubeide/stm32cubeide_1.4.0/stm32cubeide/plugins/com.st.stm32cube.ide.mcu.externaltools.gnu-tools-for-stm32.7-2018-q2-update.win32_1.4.0.202007081208/tools/bin/../lib/gcc/arm-none-eabi/7.3.1/../../../../arm-none-eabi/lib/thumb/v7e-m/fpv4-sp/hard\libc_nano.a(lib_a-init.o)
 .ARM.attributes
                0x0000000000000792       0x34 d:/cubeide/stm32cubeide_1.4.0/stm32cubeide/plugins/com.st.stm32cube.ide.mcu.externaltools.gnu-tools-for-stm32.7-2018-q2-update.win32_1.4.0.202007081208/tools/bin/../lib/gcc/arm-none-eabi/7.3.1/../../../../arm-none-eabi/lib/thumb/v7e-m/fpv4-sp/hard\libc_nano.a(lib_a-memset.o)
 .ARM.attributes
                0x00000000000007c6       0x22 d:/cubeide/stm32cubeide_1.4.0/stm32cubeide/plugins/com.st.stm32cube.ide.mcu.externaltools.gnu-tools-for-stm32.7-2018-q2-update.win32_1.4.0.202007081208/tools/bin/../lib/gcc/arm-none-eabi/7.3.1/thumb/v7e-m/fpv4-sp/hard\libgcc.a(_aeabi_uldivmod.o)
 .ARM.attributes
                0x00000000000007e8       0x34 d:/cubeide/stm32cubeide_1.4.0/stm32cubeide/plugins/com.st.stm32cube.ide.mcu.externaltools.gnu-tools-for-stm32.7-2018-q2-update.win32_1.4.0.202007081208/tools/bin/../lib/gcc/arm-none-eabi/7.3.1/thumb/v7e-m/fpv4-sp/hard\libgcc.a(_udivmoddi4.o)
 .ARM.attributes
                0x000000000000081c       0x22 d:/cubeide/stm32cubeide_1.4.0/stm32cubeide/plugins/com.st.stm32cube.ide.mcu.externaltools.gnu-tools-for-stm32.7-2018-q2-update.win32_1.4.0.202007081208/tools/bin/../lib/gcc/arm-none-eabi/7.3.1/thumb/v7e-m/fpv4-sp/hard\libgcc.a(_dvmd_tls.o)
 .ARM.attributes
                0x000000000000083e       0x22 d:/cubeide/stm32cubeide_1.4.0/stm32cubeide/plugins/com.st.stm32cube.ide.mcu.externaltools.gnu-tools-for-stm32.7-2018-q2-update.win32_1.4.0.202007081208/tools/bin/../lib/gcc/arm-none-eabi/7.3.1/thumb/v7e-m/fpv4-sp/hard/crtn.o
OUTPUT(SD1306.elf elf32-littlearm)

.debug_info     0x0000000000000000    0x613fc
 .debug_info    0x0000000000000000      0x37e Core/Src/gpio.o
 .debug_info    0x000000000000037e      0x9d9 Core/Src/i2c.o
 .debug_info    0x0000000000000d57     0x68a8 Core/Src/main.o
 .debug_info    0x00000000000075ff     0x681a Core/Src/oled.o
 .debug_info    0x000000000000de19      0x362 Core/Src/stm32f4xx_hal_msp.o
 .debug_info    0x000000000000e17b      0x20a Core/Src/stm32f4xx_it.o
 .debug_info    0x000000000000e385      0x554 Core/Src/system_stm32f4xx.o
 .debug_info    0x000000000000e8d9      0x94a Core/Src/usart.o
 .debug_info    0x000000000000f223       0x22 Core/Startup/startup_stm32f407vetx.o
 .debug_info    0x000000000000f245      0x945 Drivers/STM32F4xx_HAL_Driver/Src/stm32f4xx_hal.o
 .debug_info    0x000000000000fb8a      0xe28 Drivers/STM32F4xx_HAL_Driver/Src/stm32f4xx_hal_cortex.o
 .debug_info    0x00000000000109b2      0x7b5 Drivers/STM32F4xx_HAL_Driver/Src/stm32f4xx_hal_gpio.o
 .debug_info    0x0000000000011167     0x2426 Drivers/STM32F4xx_HAL_Driver/Src/stm32f4xx_hal_i2c.o
 .debug_info    0x000000000001358d      0x904 Drivers/STM32F4xx_HAL_Driver/Src/stm32f4xx_hal_rcc.o
 .debug_info    0x0000000000013e91     0x124c Drivers/STM32F4xx_HAL_Driver/Src/stm32f4xx_hal_uart.o
 .debug_info    0x00000000000150dd     0x5f8b u8g2/u8g2_box.o
 .debug_info    0x000000000001b068     0x6889 u8g2/u8g2_buffer.o
 .debug_info    0x00000000000218f1     0x8321 u8g2/u8g2_d_memory.o
 .debug_info    0x0000000000029c12     0x6111 u8g2/u8g2_d_setup.o
 .debug_info    0x000000000002fd23     0x6c9a u8g2/u8g2_font.o
 .debug_info    0x00000000000369bd     0xc0ca u8g2/u8g2_fonts.o
 .debug_info    0x0000000000042a87     0x5f78 u8g2/u8g2_hvline.o
 .debug_info    0x00000000000489ff     0x5e01 u8g2/u8g2_intersection.o
 .debug_info    0x000000000004e800     0x5ea1 u8g2/u8g2_ll_hvline.o
 .debug_info    0x00000000000546a1     0x6bd7 u8g2/u8g2_setup.o
 .debug_info    0x000000000005b278     0x11c9 u8g2/u8x8_8x8.o
 .debug_info    0x000000000005c441     0x1066 u8g2/u8x8_byte.o
 .debug_info    0x000000000005d4a7     0x1132 u8g2/u8x8_cad.o
 .debug_info    0x000000000005e5d9      0xd40 u8g2/u8x8_d_ssd1306_128x64_noname.o
 .debug_info    0x000000000005f319      0xc8e u8g2/u8x8_display.o
 .debug_info    0x000000000005ffa7      0x9b0 u8g2/u8x8_gpio.o
 .debug_info    0x0000000000060957      0xaa5 u8g2/u8x8_setup.o

.debug_abbrev   0x0000000000000000     0x341c
 .debug_abbrev  0x0000000000000000      0x109 Core/Src/gpio.o
 .debug_abbrev  0x0000000000000109      0x199 Core/Src/i2c.o
 .debug_abbrev  0x00000000000002a2      0x1b6 Core/Src/main.o
 .debug_abbrev  0x0000000000000458      0x287 Core/Src/oled.o
 .debug_abbrev  0x00000000000006df      0x109 Core/Src/stm32f4xx_hal_msp.o
 .debug_abbrev  0x00000000000007e8       0xc6 Core/Src/stm32f4xx_it.o
 .debug_abbrev  0x00000000000008ae      0x12b Core/Src/system_stm32f4xx.o
 .debug_abbrev  0x00000000000009d9      0x199 Core/Src/usart.o
 .debug_abbrev  0x0000000000000b72       0x12 Core/Startup/startup_stm32f407vetx.o
 .debug_abbrev  0x0000000000000b84      0x1c7 Drivers/STM32F4xx_HAL_Driver/Src/stm32f4xx_hal.o
 .debug_abbrev  0x0000000000000d4b      0x2fa Drivers/STM32F4xx_HAL_Driver/Src/stm32f4xx_hal_cortex.o
 .debug_abbrev  0x0000000000001045      0x1c9 Drivers/STM32F4xx_HAL_Driver/Src/stm32f4xx_hal_gpio.o
 .debug_abbrev  0x000000000000120e      0x254 Drivers/STM32F4xx_HAL_Driver/Src/stm32f4xx_hal_i2c.o
 .debug_abbrev  0x0000000000001462      0x245 Drivers/STM32F4xx_HAL_Driver/Src/stm32f4xx_hal_rcc.o
 .debug_abbrev  0x00000000000016a7      0x242 Drivers/STM32F4xx_HAL_Driver/Src/stm32f4xx_hal_uart.o
 .debug_abbrev  0x00000000000018e9      0x174 u8g2/u8g2_box.o
 .debug_abbrev  0x0000000000001a5d      0x1f2 u8g2/u8g2_buffer.o
 .debug_abbrev  0x0000000000001c4f      0x192 u8g2/u8g2_d_memory.o
 .debug_abbrev  0x0000000000001de1      0x151 u8g2/u8g2_d_setup.o
 .debug_abbrev  0x0000000000001f32      0x29c u8g2/u8g2_font.o
 .debug_abbrev  0x00000000000021ce      0x115 u8g2/u8g2_fonts.o
 .debug_abbrev  0x00000000000022e3      0x16d u8g2/u8g2_hvline.o
 .debug_abbrev  0x0000000000002450      0x146 u8g2/u8g2_intersection.o
 .debug_abbrev  0x0000000000002596      0x160 u8g2/u8g2_ll_hvline.o
 .debug_abbrev  0x00000000000026f6      0x254 u8g2/u8g2_setup.o
 .debug_abbrev  0x000000000000294a      0x21a u8g2/u8x8_8x8.o
 .debug_abbrev  0x0000000000002b64      0x1d6 u8g2/u8x8_byte.o
 .debug_abbrev  0x0000000000002d3a      0x1c6 u8g2/u8x8_cad.o
 .debug_abbrev  0x0000000000002f00      0x173 u8g2/u8x8_d_ssd1306_128x64_noname.o
 .debug_abbrev  0x0000000000003073      0x160 u8g2/u8x8_display.o
 .debug_abbrev  0x00000000000031d3       0xf4 u8g2/u8x8_gpio.o
 .debug_abbrev  0x00000000000032c7      0x155 u8g2/u8x8_setup.o

.debug_aranges  0x0000000000000000     0x15e0
 .debug_aranges
                0x0000000000000000       0x20 Core/Src/gpio.o
 .debug_aranges
                0x0000000000000020       0x30 Core/Src/i2c.o
 .debug_aranges
                0x0000000000000050       0x30 Core/Src/main.o
 .debug_aranges
                0x0000000000000080       0x98 Core/Src/oled.o
 .debug_aranges
                0x0000000000000118       0x20 Core/Src/stm32f4xx_hal_msp.o
 .debug_aranges
                0x0000000000000138       0x60 Core/Src/stm32f4xx_it.o
 .debug_aranges
                0x0000000000000198       0x28 Core/Src/system_stm32f4xx.o
 .debug_aranges
                0x00000000000001c0       0x30 Core/Src/usart.o
 .debug_aranges
                0x00000000000001f0       0x28 Core/Startup/startup_stm32f407vetx.o
 .debug_aranges
                0x0000000000000218       0xf0 Drivers/STM32F4xx_HAL_Driver/Src/stm32f4xx_hal.o
 .debug_aranges
                0x0000000000000308      0x118 Drivers/STM32F4xx_HAL_Driver/Src/stm32f4xx_hal_cortex.o
 .debug_aranges
                0x0000000000000420       0x58 Drivers/STM32F4xx_HAL_Driver/Src/stm32f4xx_hal_gpio.o
 .debug_aranges
                0x0000000000000478      0x2a0 Drivers/STM32F4xx_HAL_Driver/Src/stm32f4xx_hal_i2c.o
 .debug_aranges
                0x0000000000000718       0x88 Drivers/STM32F4xx_HAL_Driver/Src/stm32f4xx_hal_rcc.o
 .debug_aranges
                0x00000000000007a0      0x1d0 Drivers/STM32F4xx_HAL_Driver/Src/stm32f4xx_hal_uart.o
 .debug_aranges
                0x0000000000000970       0x38 u8g2/u8g2_box.o
 .debug_aranges
                0x00000000000009a8       0x80 u8g2/u8g2_buffer.o
 .debug_aranges
                0x0000000000000a28      0x498 u8g2/u8g2_d_memory.o
 .debug_aranges
                0x0000000000000ec0       0x60 u8g2/u8g2_d_setup.o
 .debug_aranges
                0x0000000000000f20      0x1a8 u8g2/u8g2_font.o
 .debug_aranges
                0x00000000000010c8       0x18 u8g2/u8g2_fonts.o
 .debug_aranges
                0x00000000000010e0       0x50 u8g2/u8g2_hvline.o
 .debug_aranges
                0x0000000000001130       0x28 u8g2/u8g2_intersection.o
 .debug_aranges
                0x0000000000001158       0x28 u8g2/u8g2_ll_hvline.o
 .debug_aranges
                0x0000000000001180       0xc8 u8g2/u8g2_setup.o
 .debug_aranges
                0x0000000000001248       0xc8 u8g2/u8x8_8x8.o
 .debug_aranges
                0x0000000000001310       0xe0 u8g2/u8x8_byte.o
 .debug_aranges
                0x00000000000013f0       0xc8 u8g2/u8x8_cad.o
 .debug_aranges
                0x00000000000014b8       0x50 u8g2/u8x8_d_ssd1306_128x64_noname.o
 .debug_aranges
                0x0000000000001508       0x80 u8g2/u8x8_display.o
 .debug_aranges
                0x0000000000001588       0x20 u8g2/u8x8_gpio.o
 .debug_aranges
                0x00000000000015a8       0x38 u8g2/u8x8_setup.o

.debug_ranges   0x0000000000000000     0x1420
 .debug_ranges  0x0000000000000000       0x10 Core/Src/gpio.o
 .debug_ranges  0x0000000000000010       0x20 Core/Src/i2c.o
 .debug_ranges  0x0000000000000030       0x20 Core/Src/main.o
 .debug_ranges  0x0000000000000050       0x88 Core/Src/oled.o
 .debug_ranges  0x00000000000000d8       0x10 Core/Src/stm32f4xx_hal_msp.o
 .debug_ranges  0x00000000000000e8       0x50 Core/Src/stm32f4xx_it.o
 .debug_ranges  0x0000000000000138       0x18 Core/Src/system_stm32f4xx.o
 .debug_ranges  0x0000000000000150       0x20 Core/Src/usart.o
 .debug_ranges  0x0000000000000170       0x20 Core/Startup/startup_stm32f407vetx.o
 .debug_ranges  0x0000000000000190       0xe0 Drivers/STM32F4xx_HAL_Driver/Src/stm32f4xx_hal.o
 .debug_ranges  0x0000000000000270      0x108 Drivers/STM32F4xx_HAL_Driver/Src/stm32f4xx_hal_cortex.o
 .debug_ranges  0x0000000000000378       0x48 Drivers/STM32F4xx_HAL_Driver/Src/stm32f4xx_hal_gpio.o
 .debug_ranges  0x00000000000003c0      0x2b8 Drivers/STM32F4xx_HAL_Driver/Src/stm32f4xx_hal_i2c.o
 .debug_ranges  0x0000000000000678       0x78 Drivers/STM32F4xx_HAL_Driver/Src/stm32f4xx_hal_rcc.o
 .debug_ranges  0x00000000000006f0      0x1c0 Drivers/STM32F4xx_HAL_Driver/Src/stm32f4xx_hal_uart.o
 .debug_ranges  0x00000000000008b0       0x28 u8g2/u8g2_box.o
 .debug_ranges  0x00000000000008d8       0x70 u8g2/u8g2_buffer.o
 .debug_ranges  0x0000000000000948      0x488 u8g2/u8g2_d_memory.o
 .debug_ranges  0x0000000000000dd0       0x50 u8g2/u8g2_d_setup.o
 .debug_ranges  0x0000000000000e20      0x1b0 u8g2/u8g2_font.o
 .debug_ranges  0x0000000000000fd0       0x40 u8g2/u8g2_hvline.o
 .debug_ranges  0x0000000000001010       0x18 u8g2/u8g2_intersection.o
 .debug_ranges  0x0000000000001028       0x18 u8g2/u8g2_ll_hvline.o
 .debug_ranges  0x0000000000001040       0xb8 u8g2/u8g2_setup.o
 .debug_ranges  0x00000000000010f8       0xb8 u8g2/u8x8_8x8.o
 .debug_ranges  0x00000000000011b0       0xd0 u8g2/u8x8_byte.o
 .debug_ranges  0x0000000000001280       0xb8 u8g2/u8x8_cad.o
 .debug_ranges  0x0000000000001338       0x40 u8g2/u8x8_d_ssd1306_128x64_noname.o
 .debug_ranges  0x0000000000001378       0x70 u8g2/u8x8_display.o
 .debug_ranges  0x00000000000013e8       0x10 u8g2/u8x8_gpio.o
 .debug_ranges  0x00000000000013f8       0x28 u8g2/u8x8_setup.o

.debug_macro    0x0000000000000000    0x21eac
 .debug_macro   0x0000000000000000      0x1e8 Core/Src/gpio.o
 .debug_macro   0x00000000000001e8      0xa5a Core/Src/gpio.o
 .debug_macro   0x0000000000000c42      0x294 Core/Src/gpio.o
 .debug_macro   0x0000000000000ed6       0x2e Core/Src/gpio.o
 .debug_macro   0x0000000000000f04       0x2f Core/Src/gpio.o
 .debug_macro   0x0000000000000f33       0x22 Core/Src/gpio.o
 .debug_macro   0x0000000000000f55       0x8e Core/Src/gpio.o
 .debug_macro   0x0000000000000fe3       0x51 Core/Src/gpio.o
 .debug_macro   0x0000000000001034       0xef Core/Src/gpio.o
 .debug_macro   0x0000000000001123       0x6a Core/Src/gpio.o
 .debug_macro   0x000000000000118d      0x1df Core/Src/gpio.o
 .debug_macro   0x000000000000136c       0x1c Core/Src/gpio.o
 .debug_macro   0x0000000000001388       0x22 Core/Src/gpio.o
 .debug_macro   0x00000000000013aa       0xdf Core/Src/gpio.o
 .debug_macro   0x0000000000001489     0x102d Core/Src/gpio.o
 .debug_macro   0x00000000000024b6      0x11f Core/Src/gpio.o
 .debug_macro   0x00000000000025d5    0x15e3c Core/Src/gpio.o
 .debug_macro   0x0000000000018411       0x43 Core/Src/gpio.o
 .debug_macro   0x0000000000018454     0x3659 Core/Src/gpio.o
 .debug_macro   0x000000000001baad      0x174 Core/Src/gpio.o
 .debug_macro   0x000000000001bc21       0x5a Core/Src/gpio.o
 .debug_macro   0x000000000001bc7b      0x96b Core/Src/gpio.o
 .debug_macro   0x000000000001c5e6      0x9fe Core/Src/gpio.o
 .debug_macro   0x000000000001cfe4      0x117 Core/Src/gpio.o
 .debug_macro   0x000000000001d0fb      0x13e Core/Src/gpio.o
 .debug_macro   0x000000000001d239       0x27 Core/Src/gpio.o
 .debug_macro   0x000000000001d260      0x174 Core/Src/gpio.o
 .debug_macro   0x000000000001d3d4      0x287 Core/Src/gpio.o
 .debug_macro   0x000000000001d65b       0x5f Core/Src/gpio.o
 .debug_macro   0x000000000001d6ba      0x236 Core/Src/gpio.o
 .debug_macro   0x000000000001d8f0      0x12c Core/Src/gpio.o
 .debug_macro   0x000000000001da1c      0x21e Core/Src/gpio.o
 .debug_macro   0x000000000001dc3a       0x2e Core/Src/gpio.o
 .debug_macro   0x000000000001dc68      0x1b5 Core/Src/gpio.o
 .debug_macro   0x000000000001de1d       0xd6 Core/Src/gpio.o
 .debug_macro   0x000000000001def3      0x11a Core/Src/gpio.o
 .debug_macro   0x000000000001e00d       0x7e Core/Src/gpio.o
 .debug_macro   0x000000000001e08b       0x89 Core/Src/gpio.o
 .debug_macro   0x000000000001e114      0x287 Core/Src/gpio.o
 .debug_macro   0x000000000001e39b      0x12d Core/Src/gpio.o
 .debug_macro   0x000000000001e4c8      0x1e8 Core/Src/i2c.o
 .debug_macro   0x000000000001e6b0      0x288 Core/Src/main.o
 .debug_macro   0x000000000001e938       0x10 Core/Src/main.o
 .debug_macro   0x000000000001e948       0x58 Core/Src/main.o
 .debug_macro   0x000000000001e9a0       0x46 Core/Src/main.o
 .debug_macro   0x000000000001e9e6      0x32a Core/Src/main.o
 .debug_macro   0x000000000001ed10       0x25 Core/Src/main.o
 .debug_macro   0x000000000001ed35      0x118 Core/Src/main.o
 .debug_macro   0x000000000001ee4d      0x330 Core/Src/main.o
 .debug_macro   0x000000000001f17d      0x688 Core/Src/main.o
 .debug_macro   0x000000000001f805       0x22 Core/Src/main.o
 .debug_macro   0x000000000001f827      0x270 Core/Src/oled.o
 .debug_macro   0x000000000001fa97      0x1de Core/Src/stm32f4xx_hal_msp.o
 .debug_macro   0x000000000001fc75      0x1e8 Core/Src/stm32f4xx_it.o
 .debug_macro   0x000000000001fe5d      0x1da Core/Src/system_stm32f4xx.o
 .debug_macro   0x0000000000020037      0x1e8 Core/Src/usart.o
 .debug_macro   0x000000000002021f      0x234 Drivers/STM32F4xx_HAL_Driver/Src/stm32f4xx_hal.o
 .debug_macro   0x0000000000020453      0x1d4 Drivers/STM32F4xx_HAL_Driver/Src/stm32f4xx_hal_cortex.o
 .debug_macro   0x0000000000020627      0x20a Drivers/STM32F4xx_HAL_Driver/Src/stm32f4xx_hal_gpio.o
 .debug_macro   0x0000000000020831      0x21b Drivers/STM32F4xx_HAL_Driver/Src/stm32f4xx_hal_i2c.o
 .debug_macro   0x0000000000020a4c      0x1f8 Drivers/STM32F4xx_HAL_Driver/Src/stm32f4xx_hal_rcc.o
 .debug_macro   0x0000000000020c44      0x1d5 Drivers/STM32F4xx_HAL_Driver/Src/stm32f4xx_hal_uart.o
 .debug_macro   0x0000000000020e19       0xe1 u8g2/u8g2_box.o
 .debug_macro   0x0000000000020efa      0x186 u8g2/u8g2_buffer.o
 .debug_macro   0x0000000000021080       0x10 u8g2/u8g2_buffer.o
 .debug_macro   0x0000000000021090       0x20 u8g2/u8g2_buffer.o
 .debug_macro   0x00000000000210b0       0xe1 u8g2/u8g2_d_memory.o
 .debug_macro   0x0000000000021191       0xe1 u8g2/u8g2_d_setup.o
 .debug_macro   0x0000000000021272       0xe7 u8g2/u8g2_font.o
 .debug_macro   0x0000000000021359       0xe1 u8g2/u8g2_fonts.o
 .debug_macro   0x000000000002143a      0x111 u8g2/u8g2_hvline.o
 .debug_macro   0x000000000002154b       0x1c u8g2/u8g2_hvline.o
 .debug_macro   0x0000000000021567       0xe7 u8g2/u8g2_intersection.o
 .debug_macro   0x000000000002164e      0x111 u8g2/u8g2_ll_hvline.o
 .debug_macro   0x000000000002175f      0x18f u8g2/u8g2_setup.o
 .debug_macro   0x00000000000218ee       0xd2 u8g2/u8x8_8x8.o
 .debug_macro   0x00000000000219c0       0xd2 u8g2/u8x8_byte.o
 .debug_macro   0x0000000000021a92       0xd2 u8g2/u8x8_cad.o
 .debug_macro   0x0000000000021b64       0xd2 u8g2/u8x8_d_ssd1306_128x64_noname.o
 .debug_macro   0x0000000000021c36       0xd2 u8g2/u8x8_display.o
 .debug_macro   0x0000000000021d08       0xd2 u8g2/u8x8_gpio.o
 .debug_macro   0x0000000000021dda       0xd2 u8g2/u8x8_setup.o

.debug_line     0x0000000000000000    0x112a2
 .debug_line    0x0000000000000000      0x6d2 Core/Src/gpio.o
 .debug_line    0x00000000000006d2      0x707 Core/Src/i2c.o
 .debug_line    0x0000000000000dd9      0x975 Core/Src/main.o
 .debug_line    0x000000000000174e      0xdfe Core/Src/oled.o
 .debug_line    0x000000000000254c      0x6d5 Core/Src/stm32f4xx_hal_msp.o
 .debug_line    0x0000000000002c21      0x779 Core/Src/stm32f4xx_it.o
 .debug_line    0x000000000000339a      0x6f0 Core/Src/system_stm32f4xx.o
 .debug_line    0x0000000000003a8a      0x709 Core/Src/usart.o
 .debug_line    0x0000000000004193       0x85 Core/Startup/startup_stm32f407vetx.o
 .debug_line    0x0000000000004218      0x8da Drivers/STM32F4xx_HAL_Driver/Src/stm32f4xx_hal.o
 .debug_line    0x0000000000004af2      0x9fe Drivers/STM32F4xx_HAL_Driver/Src/stm32f4xx_hal_cortex.o
 .debug_line    0x00000000000054f0      0x8b9 Drivers/STM32F4xx_HAL_Driver/Src/stm32f4xx_hal_gpio.o
 .debug_line    0x0000000000005da9     0x1b88 Drivers/STM32F4xx_HAL_Driver/Src/stm32f4xx_hal_i2c.o
 .debug_line    0x0000000000007931      0x932 Drivers/STM32F4xx_HAL_Driver/Src/stm32f4xx_hal_rcc.o
 .debug_line    0x0000000000008263      0xfe8 Drivers/STM32F4xx_HAL_Driver/Src/stm32f4xx_hal_uart.o
 .debug_line    0x000000000000924b      0x624 u8g2/u8g2_box.o
 .debug_line    0x000000000000986f      0x72d u8g2/u8g2_buffer.o
 .debug_line    0x0000000000009f9c     0x1025 u8g2/u8g2_d_memory.o
 .debug_line    0x000000000000afc1      0x62a u8g2/u8g2_d_setup.o
 .debug_line    0x000000000000b5eb      0xad9 u8g2/u8g2_font.o
 .debug_line    0x000000000000c0c4      0x57a u8g2/u8g2_fonts.o
 .debug_line    0x000000000000c63e      0x662 u8g2/u8g2_hvline.o
 .debug_line    0x000000000000cca0      0x5b1 u8g2/u8g2_intersection.o
 .debug_line    0x000000000000d251      0x62f u8g2/u8g2_ll_hvline.o
 .debug_line    0x000000000000d880      0x81c u8g2/u8g2_setup.o
 .debug_line    0x000000000000e09c      0x86c u8g2/u8x8_8x8.o
 .debug_line    0x000000000000e908      0x8d1 u8g2/u8x8_byte.o
 .debug_line    0x000000000000f1d9      0x88a u8g2/u8x8_cad.o
 .debug_line    0x000000000000fa63      0x671 u8g2/u8x8_d_ssd1306_128x64_noname.o
 .debug_line    0x00000000000100d4      0x682 u8g2/u8x8_display.o
 .debug_line    0x0000000000010756      0x580 u8g2/u8x8_gpio.o
 .debug_line    0x0000000000010cd6      0x5cc u8g2/u8x8_setup.o

.debug_str      0x0000000000000000    0xd2b21
 .debug_str     0x0000000000000000    0xbd4d2 Core/Src/gpio.o
                                      0xbd758 (size before relaxing)
 .debug_str     0x00000000000bd4d2      0x55f Core/Src/i2c.o
                                      0xbdcf5 (size before relaxing)
 .debug_str     0x00000000000bda31     0xf173 Core/Src/main.o
                                      0xcdde5 (size before relaxing)
 .debug_str     0x00000000000ccba4      0x1b4 Core/Src/oled.o
                                      0xcdb91 (size before relaxing)
 .debug_str     0x00000000000ccd58       0x2c Core/Src/stm32f4xx_hal_msp.o
                                      0xbd75a (size before relaxing)
 .debug_str     0x00000000000ccd84       0xbd Core/Src/stm32f4xx_it.o
                                      0xbd6e8 (size before relaxing)
 .debug_str     0x00000000000cce41       0xc4 Core/Src/system_stm32f4xx.o
                                      0xbd7e1 (size before relaxing)
 .debug_str     0x00000000000ccf05       0x57 Core/Src/usart.o
                                      0xbdc35 (size before relaxing)
 .debug_str     0x00000000000ccf5c       0x36 Core/Startup/startup_stm32f407vetx.o
                                         0x60 (size before relaxing)
 .debug_str     0x00000000000ccf92      0xa5e Drivers/STM32F4xx_HAL_Driver/Src/stm32f4xx_hal.o
                                      0xbe2ae (size before relaxing)
 .debug_str     0x00000000000cd9f0      0x399 Drivers/STM32F4xx_HAL_Driver/Src/stm32f4xx_hal_cortex.o
                                      0xbe09d (size before relaxing)
 .debug_str     0x00000000000cdd89      0x228 Drivers/STM32F4xx_HAL_Driver/Src/stm32f4xx_hal_gpio.o
                                      0xbda20 (size before relaxing)
 .debug_str     0x00000000000cdfb1      0xac2 Drivers/STM32F4xx_HAL_Driver/Src/stm32f4xx_hal_i2c.o
                                      0xbe74e (size before relaxing)
 .debug_str     0x00000000000cea73      0x24e Drivers/STM32F4xx_HAL_Driver/Src/stm32f4xx_hal_rcc.o
                                      0xbdbce (size before relaxing)
 .debug_str     0x00000000000cecc1      0x513 Drivers/STM32F4xx_HAL_Driver/Src/stm32f4xx_hal_uart.o
                                      0xbe02d (size before relaxing)
 .debug_str     0x00000000000cf1d4       0x65 u8g2/u8g2_box.o
                                      0x13de4 (size before relaxing)
 .debug_str     0x00000000000cf239     0x1bdc u8g2/u8g2_buffer.o
                                      0x159f9 (size before relaxing)
 .debug_str     0x00000000000d0e15      0x831 u8g2/u8g2_d_memory.o
                                      0x145be (size before relaxing)
 .debug_str     0x00000000000d1646      0x179 u8g2/u8g2_d_setup.o
                                      0x13f0b (size before relaxing)
 .debug_str     0x00000000000d17bf      0x560 u8g2/u8g2_font.o
                                      0x14331 (size before relaxing)
 .debug_str     0x00000000000d1d1f       0x15 u8g2/u8g2_fonts.o
                                      0x13da2 (size before relaxing)
 .debug_str     0x00000000000d1d34      0x120 u8g2/u8g2_hvline.o
                                      0x14098 (size before relaxing)
 .debug_str     0x00000000000d1e54       0x90 u8g2/u8g2_intersection.o
                                      0x13e22 (size before relaxing)
 .debug_str     0x00000000000d1ee4       0x66 u8g2/u8g2_ll_hvline.o
                                      0x14080 (size before relaxing)
 .debug_str     0x00000000000d1f4a      0x210 u8g2/u8g2_setup.o
                                      0x15b61 (size before relaxing)
 .debug_str     0x00000000000d215a      0x1c7 u8g2/u8x8_8x8.o
                                       0x7f36 (size before relaxing)
 .debug_str     0x00000000000d2321      0x1e8 u8g2/u8x8_byte.o
                                       0x7f6e (size before relaxing)
 .debug_str     0x00000000000d2509      0x1bf u8g2/u8x8_cad.o
                                       0x7f58 (size before relaxing)
 .debug_str     0x00000000000d26c8      0x2ac u8g2/u8x8_d_ssd1306_128x64_noname.o
                                       0x801a (size before relaxing)
 .debug_str     0x00000000000d2974      0x123 u8g2/u8x8_display.o
                                       0x7ec8 (size before relaxing)
 .debug_str     0x00000000000d2a97       0x23 u8g2/u8x8_gpio.o
                                       0x7d81 (size before relaxing)
 .debug_str     0x00000000000d2aba       0x67 u8g2/u8x8_setup.o
                                       0x7dd5 (size before relaxing)

.comment        0x0000000000000000       0x7b
 .comment       0x0000000000000000       0x7b Core/Src/gpio.o
                                         0x7c (size before relaxing)
 .comment       0x000000000000007b       0x7c Core/Src/i2c.o
 .comment       0x000000000000007b       0x7c Core/Src/main.o
 .comment       0x000000000000007b       0x7c Core/Src/oled.o
 .comment       0x000000000000007b       0x7c Core/Src/stm32f4xx_hal_msp.o
 .comment       0x000000000000007b       0x7c Core/Src/stm32f4xx_it.o
 .comment       0x000000000000007b       0x7c Core/Src/system_stm32f4xx.o
 .comment       0x000000000000007b       0x7c Core/Src/usart.o
 .comment       0x000000000000007b       0x7c Drivers/STM32F4xx_HAL_Driver/Src/stm32f4xx_hal.o
 .comment       0x000000000000007b       0x7c Drivers/STM32F4xx_HAL_Driver/Src/stm32f4xx_hal_cortex.o
 .comment       0x000000000000007b       0x7c Drivers/STM32F4xx_HAL_Driver/Src/stm32f4xx_hal_gpio.o
 .comment       0x000000000000007b       0x7c Drivers/STM32F4xx_HAL_Driver/Src/stm32f4xx_hal_i2c.o
 .comment       0x000000000000007b       0x7c Drivers/STM32F4xx_HAL_Driver/Src/stm32f4xx_hal_rcc.o
 .comment       0x000000000000007b       0x7c Drivers/STM32F4xx_HAL_Driver/Src/stm32f4xx_hal_uart.o
 .comment       0x000000000000007b       0x7c u8g2/u8g2_box.o
 .comment       0x000000000000007b       0x7c u8g2/u8g2_buffer.o
 .comment       0x000000000000007b       0x7c u8g2/u8g2_d_memory.o
 .comment       0x000000000000007b       0x7c u8g2/u8g2_d_setup.o
 .comment       0x000000000000007b       0x7c u8g2/u8g2_font.o
 .comment       0x000000000000007b       0x7c u8g2/u8g2_fonts.o
 .comment       0x000000000000007b       0x7c u8g2/u8g2_hvline.o
 .comment       0x000000000000007b       0x7c u8g2/u8g2_intersection.o
 .comment       0x000000000000007b       0x7c u8g2/u8g2_ll_hvline.o
 .comment       0x000000000000007b       0x7c u8g2/u8g2_setup.o
 .comment       0x000000000000007b       0x7c u8g2/u8x8_8x8.o
 .comment       0x000000000000007b       0x7c u8g2/u8x8_byte.o
 .comment       0x000000000000007b       0x7c u8g2/u8x8_cad.o
 .comment       0x000000000000007b       0x7c u8g2/u8x8_d_ssd1306_128x64_noname.o
 .comment       0x000000000000007b       0x7c u8g2/u8x8_display.o
 .comment       0x000000000000007b       0x7c u8g2/u8x8_gpio.o
 .comment       0x000000000000007b       0x7c u8g2/u8x8_setup.o

.debug_frame    0x0000000000000000     0x5bb0
 .debug_frame   0x0000000000000000       0x38 Core/Src/gpio.o
 .debug_frame   0x0000000000000038       0x74 Core/Src/i2c.o
 .debug_frame   0x00000000000000ac       0x74 Core/Src/main.o
 .debug_frame   0x0000000000000120      0x248 Core/Src/oled.o
 .debug_frame   0x0000000000000368       0x38 Core/Src/stm32f4xx_hal_msp.o
 .debug_frame   0x00000000000003a0      0x10c Core/Src/stm32f4xx_it.o
 .debug_frame   0x00000000000004ac       0x58 Core/Src/system_stm32f4xx.o
 .debug_frame   0x0000000000000504       0x74 Core/Src/usart.o
 .debug_frame   0x0000000000000578      0x374 Drivers/STM32F4xx_HAL_Driver/Src/stm32f4xx_hal.o
 .debug_frame   0x00000000000008ec      0x498 Drivers/STM32F4xx_HAL_Driver/Src/stm32f4xx_hal_cortex.o
 .debug_frame   0x0000000000000d84      0x14c Drivers/STM32F4xx_HAL_Driver/Src/stm32f4xx_hal_gpio.o
 .debug_frame   0x0000000000000ed0      0xc5c Drivers/STM32F4xx_HAL_Driver/Src/stm32f4xx_hal_i2c.o
 .debug_frame   0x0000000000001b2c      0x1f0 Drivers/STM32F4xx_HAL_Driver/Src/stm32f4xx_hal_rcc.o
 .debug_frame   0x0000000000001d1c      0x844 Drivers/STM32F4xx_HAL_Driver/Src/stm32f4xx_hal_uart.o
 .debug_frame   0x0000000000002560       0xac u8g2/u8g2_box.o
 .debug_frame   0x000000000000260c      0x1e8 u8g2/u8g2_buffer.o
 .debug_frame   0x00000000000027f4     0x1690 u8g2/u8g2_d_memory.o
 .debug_frame   0x0000000000003e84      0x154 u8g2/u8g2_d_setup.o
 .debug_frame   0x0000000000003fd8      0x778 u8g2/u8g2_font.o
 .debug_frame   0x0000000000004750      0x11c u8g2/u8g2_hvline.o
 .debug_frame   0x000000000000486c       0x5c u8g2/u8g2_intersection.o
 .debug_frame   0x00000000000048c8       0x60 u8g2/u8g2_ll_hvline.o
 .debug_frame   0x0000000000004928      0x344 u8g2/u8g2_setup.o
 .debug_frame   0x0000000000004c6c      0x354 u8g2/u8x8_8x8.o
 .debug_frame   0x0000000000004fc0      0x3bc u8g2/u8x8_byte.o
 .debug_frame   0x000000000000537c      0x38c u8g2/u8x8_cad.o
 .debug_frame   0x0000000000005708      0x10c u8g2/u8x8_d_ssd1306_128x64_noname.o
 .debug_frame   0x0000000000005814      0x210 u8g2/u8x8_display.o
 .debug_frame   0x0000000000005a24       0x38 u8g2/u8x8_gpio.o
 .debug_frame   0x0000000000005a5c       0xa8 u8g2/u8x8_setup.o
 .debug_frame   0x0000000000005b04       0x2c d:/cubeide/stm32cubeide_1.4.0/stm32cubeide/plugins/com.st.stm32cube.ide.mcu.externaltools.gnu-tools-for-stm32.7-2018-q2-update.win32_1.4.0.202007081208/tools/bin/../lib/gcc/arm-none-eabi/7.3.1/../../../../arm-none-eabi/lib/thumb/v7e-m/fpv4-sp/hard\libc_nano.a(lib_a-init.o)
 .debug_frame   0x0000000000005b30       0x20 d:/cubeide/stm32cubeide_1.4.0/stm32cubeide/plugins/com.st.stm32cube.ide.mcu.externaltools.gnu-tools-for-stm32.7-2018-q2-update.win32_1.4.0.202007081208/tools/bin/../lib/gcc/arm-none-eabi/7.3.1/../../../../arm-none-eabi/lib/thumb/v7e-m/fpv4-sp/hard\libc_nano.a(lib_a-memset.o)
 .debug_frame   0x0000000000005b50       0x2c d:/cubeide/stm32cubeide_1.4.0/stm32cubeide/plugins/com.st.stm32cube.ide.mcu.externaltools.gnu-tools-for-stm32.7-2018-q2-update.win32_1.4.0.202007081208/tools/bin/../lib/gcc/arm-none-eabi/7.3.1/thumb/v7e-m/fpv4-sp/hard\libgcc.a(_aeabi_uldivmod.o)
 .debug_frame   0x0000000000005b7c       0x34 d:/cubeide/stm32cubeide_1.4.0/stm32cubeide/plugins/com.st.stm32cube.ide.mcu.externaltools.gnu-tools-for-stm32.7-2018-q2-update.win32_1.4.0.202007081208/tools/bin/../lib/gcc/arm-none-eabi/7.3.1/thumb/v7e-m/fpv4-sp/hard\libgcc.a(_udivmoddi4.o)
