
SD1306.elf:     file format elf32-littlearm

Sections:
Idx Name          Size      VMA       LMA       File off  Algn
  0 .isr_vector   00000188  08000000  08000000  00010000  2**0
                  CONTENTS, ALLOC, LOAD, READONLY, DATA
  1 .text         00001f58  08000188  08000188  00010188  2**2
                  CONTENTS, ALLOC, LOAD, READONLY, CODE
  2 .rodata       0000008c  080020e0  080020e0  000120e0  2**2
                  CONTENTS, ALLOC, LOAD, READONLY, DATA
  3 .ARM.extab    00000000  0800216c  0800216c  0002000c  2**0
                  CONTENTS
  4 .ARM          00000008  0800216c  0800216c  0001216c  2**2
                  CONTENTS, ALLOC, LOAD, READONLY, DATA
  5 .preinit_array 00000000  08002174  08002174  0002000c  2**0
                  CONTENTS, ALLOC, LOAD, DATA
  6 .init_array   00000004  08002174  08002174  00012174  2**2
                  CONTENTS, ALLOC, LOAD, DATA
  7 .fini_array   00000004  08002178  08002178  00012178  2**2
                  CONTENTS, ALLOC, LOAD, DATA
  8 .data         0000000c  20000000  0800217c  00020000  2**2
                  CONTENTS, ALLOC, LOAD, DATA
  9 .bss          00000538  2000000c  08002188  0002000c  2**2
                  ALLOC
 10 ._user_heap_stack 00000604  20000544  08002188  00020544  2**0
                  ALLOC
 11 .ARM.attributes 00000030  00000000  00000000  0002000c  2**0
                  CONTENTS, READONLY
 12 .comment      0000007b  00000000  00000000  0002003c  2**0
                  CONTENTS, READONLY
 13 .debug_frame  000000ac  00000000  00000000  000200b8  2**2
                  CONTENTS, READONLY, DEBUGGING

Disassembly of section .text:

08000188 <__do_global_dtors_aux>:
 8000188:	b510      	push	{r4, lr}
 800018a:	4c05      	ldr	r4, [pc, #20]	; (80001a0 <__do_global_dtors_aux+0x18>)
 800018c:	7823      	ldrb	r3, [r4, #0]
 800018e:	b933      	cbnz	r3, 800019e <__do_global_dtors_aux+0x16>
 8000190:	4b04      	ldr	r3, [pc, #16]	; (80001a4 <__do_global_dtors_aux+0x1c>)
 8000192:	b113      	cbz	r3, 800019a <__do_global_dtors_aux+0x12>
 8000194:	4804      	ldr	r0, [pc, #16]	; (80001a8 <__do_global_dtors_aux+0x20>)
 8000196:	f3af 8000 	nop.w
 800019a:	2301      	movs	r3, #1
 800019c:	7023      	strb	r3, [r4, #0]
 800019e:	bd10      	pop	{r4, pc}
 80001a0:	2000000c 	.word	0x2000000c
 80001a4:	00000000 	.word	0x00000000
 80001a8:	080020c8 	.word	0x080020c8

080001ac <frame_dummy>:
 80001ac:	b508      	push	{r3, lr}
 80001ae:	4b03      	ldr	r3, [pc, #12]	; (80001bc <frame_dummy+0x10>)
 80001b0:	b11b      	cbz	r3, 80001ba <frame_dummy+0xe>
 80001b2:	4903      	ldr	r1, [pc, #12]	; (80001c0 <frame_dummy+0x14>)
 80001b4:	4803      	ldr	r0, [pc, #12]	; (80001c4 <frame_dummy+0x18>)
 80001b6:	f3af 8000 	nop.w
 80001ba:	bd08      	pop	{r3, pc}
 80001bc:	00000000 	.word	0x00000000
 80001c0:	20000010 	.word	0x20000010
 80001c4:	080020c8 	.word	0x080020c8

080001c8 <__aeabi_uldivmod>:
 80001c8:	b953      	cbnz	r3, 80001e0 <__aeabi_uldivmod+0x18>
 80001ca:	b94a      	cbnz	r2, 80001e0 <__aeabi_uldivmod+0x18>
 80001cc:	2900      	cmp	r1, #0
 80001ce:	bf08      	it	eq
 80001d0:	2800      	cmpeq	r0, #0
 80001d2:	bf1c      	itt	ne
 80001d4:	f04f 31ff 	movne.w	r1, #4294967295
 80001d8:	f04f 30ff 	movne.w	r0, #4294967295
 80001dc:	f000 b972 	b.w	80004c4 <__aeabi_idiv0>
 80001e0:	f1ad 0c08 	sub.w	ip, sp, #8
 80001e4:	e96d ce04 	strd	ip, lr, [sp, #-16]!
 80001e8:	f000 f806 	bl	80001f8 <__udivmoddi4>
 80001ec:	f8dd e004 	ldr.w	lr, [sp, #4]
 80001f0:	e9dd 2302 	ldrd	r2, r3, [sp, #8]
 80001f4:	b004      	add	sp, #16
 80001f6:	4770      	bx	lr

080001f8 <__udivmoddi4>:
 80001f8:	e92d 47f0 	stmdb	sp!, {r4, r5, r6, r7, r8, r9, sl, lr}
 80001fc:	9e08      	ldr	r6, [sp, #32]
 80001fe:	4604      	mov	r4, r0
 8000200:	4688      	mov	r8, r1
 8000202:	2b00      	cmp	r3, #0
 8000204:	d14b      	bne.n	800029e <__udivmoddi4+0xa6>
 8000206:	428a      	cmp	r2, r1
 8000208:	4615      	mov	r5, r2
 800020a:	d967      	bls.n	80002dc <__udivmoddi4+0xe4>
 800020c:	fab2 f282 	clz	r2, r2
 8000210:	b14a      	cbz	r2, 8000226 <__udivmoddi4+0x2e>
 8000212:	f1c2 0720 	rsb	r7, r2, #32
 8000216:	fa01 f302 	lsl.w	r3, r1, r2
 800021a:	fa20 f707 	lsr.w	r7, r0, r7
 800021e:	4095      	lsls	r5, r2
 8000220:	ea47 0803 	orr.w	r8, r7, r3
 8000224:	4094      	lsls	r4, r2
 8000226:	ea4f 4e15 	mov.w	lr, r5, lsr #16
 800022a:	0c23      	lsrs	r3, r4, #16
 800022c:	fbb8 f7fe 	udiv	r7, r8, lr
 8000230:	fa1f fc85 	uxth.w	ip, r5
 8000234:	fb0e 8817 	mls	r8, lr, r7, r8
 8000238:	ea43 4308 	orr.w	r3, r3, r8, lsl #16
 800023c:	fb07 f10c 	mul.w	r1, r7, ip
 8000240:	4299      	cmp	r1, r3
 8000242:	d909      	bls.n	8000258 <__udivmoddi4+0x60>
 8000244:	18eb      	adds	r3, r5, r3
 8000246:	f107 30ff 	add.w	r0, r7, #4294967295
 800024a:	f080 811b 	bcs.w	8000484 <__udivmoddi4+0x28c>
 800024e:	4299      	cmp	r1, r3
 8000250:	f240 8118 	bls.w	8000484 <__udivmoddi4+0x28c>
 8000254:	3f02      	subs	r7, #2
 8000256:	442b      	add	r3, r5
 8000258:	1a5b      	subs	r3, r3, r1
 800025a:	b2a4      	uxth	r4, r4
 800025c:	fbb3 f0fe 	udiv	r0, r3, lr
 8000260:	fb0e 3310 	mls	r3, lr, r0, r3
 8000264:	ea44 4403 	orr.w	r4, r4, r3, lsl #16
 8000268:	fb00 fc0c 	mul.w	ip, r0, ip
 800026c:	45a4      	cmp	ip, r4
 800026e:	d909      	bls.n	8000284 <__udivmoddi4+0x8c>
 8000270:	192c      	adds	r4, r5, r4
 8000272:	f100 33ff 	add.w	r3, r0, #4294967295
 8000276:	f080 8107 	bcs.w	8000488 <__udivmoddi4+0x290>
 800027a:	45a4      	cmp	ip, r4
 800027c:	f240 8104 	bls.w	8000488 <__udivmoddi4+0x290>
 8000280:	3802      	subs	r0, #2
 8000282:	442c      	add	r4, r5
 8000284:	ea40 4007 	orr.w	r0, r0, r7, lsl #16
 8000288:	eba4 040c 	sub.w	r4, r4, ip
 800028c:	2700      	movs	r7, #0
 800028e:	b11e      	cbz	r6, 8000298 <__udivmoddi4+0xa0>
 8000290:	40d4      	lsrs	r4, r2
 8000292:	2300      	movs	r3, #0
 8000294:	e9c6 4300 	strd	r4, r3, [r6]
 8000298:	4639      	mov	r1, r7
 800029a:	e8bd 87f0 	ldmia.w	sp!, {r4, r5, r6, r7, r8, r9, sl, pc}
 800029e:	428b      	cmp	r3, r1
 80002a0:	d909      	bls.n	80002b6 <__udivmoddi4+0xbe>
 80002a2:	2e00      	cmp	r6, #0
 80002a4:	f000 80eb 	beq.w	800047e <__udivmoddi4+0x286>
 80002a8:	2700      	movs	r7, #0
 80002aa:	e9c6 0100 	strd	r0, r1, [r6]
 80002ae:	4638      	mov	r0, r7
 80002b0:	4639      	mov	r1, r7
 80002b2:	e8bd 87f0 	ldmia.w	sp!, {r4, r5, r6, r7, r8, r9, sl, pc}
 80002b6:	fab3 f783 	clz	r7, r3
 80002ba:	2f00      	cmp	r7, #0
 80002bc:	d147      	bne.n	800034e <__udivmoddi4+0x156>
 80002be:	428b      	cmp	r3, r1
 80002c0:	d302      	bcc.n	80002c8 <__udivmoddi4+0xd0>
 80002c2:	4282      	cmp	r2, r0
 80002c4:	f200 80fa 	bhi.w	80004bc <__udivmoddi4+0x2c4>
 80002c8:	1a84      	subs	r4, r0, r2
 80002ca:	eb61 0303 	sbc.w	r3, r1, r3
 80002ce:	2001      	movs	r0, #1
 80002d0:	4698      	mov	r8, r3
 80002d2:	2e00      	cmp	r6, #0
 80002d4:	d0e0      	beq.n	8000298 <__udivmoddi4+0xa0>
 80002d6:	e9c6 4800 	strd	r4, r8, [r6]
 80002da:	e7dd      	b.n	8000298 <__udivmoddi4+0xa0>
 80002dc:	b902      	cbnz	r2, 80002e0 <__udivmoddi4+0xe8>
 80002de:	deff      	udf	#255	; 0xff
 80002e0:	fab2 f282 	clz	r2, r2
 80002e4:	2a00      	cmp	r2, #0
 80002e6:	f040 808f 	bne.w	8000408 <__udivmoddi4+0x210>
 80002ea:	1b49      	subs	r1, r1, r5
 80002ec:	ea4f 4e15 	mov.w	lr, r5, lsr #16
 80002f0:	fa1f f885 	uxth.w	r8, r5
 80002f4:	2701      	movs	r7, #1
 80002f6:	fbb1 fcfe 	udiv	ip, r1, lr
 80002fa:	0c23      	lsrs	r3, r4, #16
 80002fc:	fb0e 111c 	mls	r1, lr, ip, r1
 8000300:	ea43 4301 	orr.w	r3, r3, r1, lsl #16
 8000304:	fb08 f10c 	mul.w	r1, r8, ip
 8000308:	4299      	cmp	r1, r3
 800030a:	d907      	bls.n	800031c <__udivmoddi4+0x124>
 800030c:	18eb      	adds	r3, r5, r3
 800030e:	f10c 30ff 	add.w	r0, ip, #4294967295
 8000312:	d202      	bcs.n	800031a <__udivmoddi4+0x122>
 8000314:	4299      	cmp	r1, r3
 8000316:	f200 80cd 	bhi.w	80004b4 <__udivmoddi4+0x2bc>
 800031a:	4684      	mov	ip, r0
 800031c:	1a59      	subs	r1, r3, r1
 800031e:	b2a3      	uxth	r3, r4
 8000320:	fbb1 f0fe 	udiv	r0, r1, lr
 8000324:	fb0e 1410 	mls	r4, lr, r0, r1
 8000328:	ea43 4404 	orr.w	r4, r3, r4, lsl #16
 800032c:	fb08 f800 	mul.w	r8, r8, r0
 8000330:	45a0      	cmp	r8, r4
 8000332:	d907      	bls.n	8000344 <__udivmoddi4+0x14c>
 8000334:	192c      	adds	r4, r5, r4
 8000336:	f100 33ff 	add.w	r3, r0, #4294967295
 800033a:	d202      	bcs.n	8000342 <__udivmoddi4+0x14a>
 800033c:	45a0      	cmp	r8, r4
 800033e:	f200 80b6 	bhi.w	80004ae <__udivmoddi4+0x2b6>
 8000342:	4618      	mov	r0, r3
 8000344:	eba4 0408 	sub.w	r4, r4, r8
 8000348:	ea40 400c 	orr.w	r0, r0, ip, lsl #16
 800034c:	e79f      	b.n	800028e <__udivmoddi4+0x96>
 800034e:	f1c7 0c20 	rsb	ip, r7, #32
 8000352:	40bb      	lsls	r3, r7
 8000354:	fa22 fe0c 	lsr.w	lr, r2, ip
 8000358:	ea4e 0e03 	orr.w	lr, lr, r3
 800035c:	fa01 f407 	lsl.w	r4, r1, r7
 8000360:	fa20 f50c 	lsr.w	r5, r0, ip
 8000364:	fa21 f30c 	lsr.w	r3, r1, ip
 8000368:	ea4f 481e 	mov.w	r8, lr, lsr #16
 800036c:	4325      	orrs	r5, r4
 800036e:	fbb3 f9f8 	udiv	r9, r3, r8
 8000372:	0c2c      	lsrs	r4, r5, #16
 8000374:	fb08 3319 	mls	r3, r8, r9, r3
 8000378:	fa1f fa8e 	uxth.w	sl, lr
 800037c:	ea44 4303 	orr.w	r3, r4, r3, lsl #16
 8000380:	fb09 f40a 	mul.w	r4, r9, sl
 8000384:	429c      	cmp	r4, r3
 8000386:	fa02 f207 	lsl.w	r2, r2, r7
 800038a:	fa00 f107 	lsl.w	r1, r0, r7
 800038e:	d90b      	bls.n	80003a8 <__udivmoddi4+0x1b0>
 8000390:	eb1e 0303 	adds.w	r3, lr, r3
 8000394:	f109 30ff 	add.w	r0, r9, #4294967295
 8000398:	f080 8087 	bcs.w	80004aa <__udivmoddi4+0x2b2>
 800039c:	429c      	cmp	r4, r3
 800039e:	f240 8084 	bls.w	80004aa <__udivmoddi4+0x2b2>
 80003a2:	f1a9 0902 	sub.w	r9, r9, #2
 80003a6:	4473      	add	r3, lr
 80003a8:	1b1b      	subs	r3, r3, r4
 80003aa:	b2ad      	uxth	r5, r5
 80003ac:	fbb3 f0f8 	udiv	r0, r3, r8
 80003b0:	fb08 3310 	mls	r3, r8, r0, r3
 80003b4:	ea45 4403 	orr.w	r4, r5, r3, lsl #16
 80003b8:	fb00 fa0a 	mul.w	sl, r0, sl
 80003bc:	45a2      	cmp	sl, r4
 80003be:	d908      	bls.n	80003d2 <__udivmoddi4+0x1da>
 80003c0:	eb1e 0404 	adds.w	r4, lr, r4
 80003c4:	f100 33ff 	add.w	r3, r0, #4294967295
 80003c8:	d26b      	bcs.n	80004a2 <__udivmoddi4+0x2aa>
 80003ca:	45a2      	cmp	sl, r4
 80003cc:	d969      	bls.n	80004a2 <__udivmoddi4+0x2aa>
 80003ce:	3802      	subs	r0, #2
 80003d0:	4474      	add	r4, lr
 80003d2:	ea40 4009 	orr.w	r0, r0, r9, lsl #16
 80003d6:	fba0 8902 	umull	r8, r9, r0, r2
 80003da:	eba4 040a 	sub.w	r4, r4, sl
 80003de:	454c      	cmp	r4, r9
 80003e0:	46c2      	mov	sl, r8
 80003e2:	464b      	mov	r3, r9
 80003e4:	d354      	bcc.n	8000490 <__udivmoddi4+0x298>
 80003e6:	d051      	beq.n	800048c <__udivmoddi4+0x294>
 80003e8:	2e00      	cmp	r6, #0
 80003ea:	d069      	beq.n	80004c0 <__udivmoddi4+0x2c8>
 80003ec:	ebb1 050a 	subs.w	r5, r1, sl
 80003f0:	eb64 0403 	sbc.w	r4, r4, r3
 80003f4:	fa04 fc0c 	lsl.w	ip, r4, ip
 80003f8:	40fd      	lsrs	r5, r7
 80003fa:	40fc      	lsrs	r4, r7
 80003fc:	ea4c 0505 	orr.w	r5, ip, r5
 8000400:	e9c6 5400 	strd	r5, r4, [r6]
 8000404:	2700      	movs	r7, #0
 8000406:	e747      	b.n	8000298 <__udivmoddi4+0xa0>
 8000408:	f1c2 0320 	rsb	r3, r2, #32
 800040c:	fa20 f703 	lsr.w	r7, r0, r3
 8000410:	4095      	lsls	r5, r2
 8000412:	fa01 f002 	lsl.w	r0, r1, r2
 8000416:	fa21 f303 	lsr.w	r3, r1, r3
 800041a:	ea4f 4e15 	mov.w	lr, r5, lsr #16
 800041e:	4338      	orrs	r0, r7
 8000420:	0c01      	lsrs	r1, r0, #16
 8000422:	fbb3 f7fe 	udiv	r7, r3, lr
 8000426:	fa1f f885 	uxth.w	r8, r5
 800042a:	fb0e 3317 	mls	r3, lr, r7, r3
 800042e:	ea41 4103 	orr.w	r1, r1, r3, lsl #16
 8000432:	fb07 f308 	mul.w	r3, r7, r8
 8000436:	428b      	cmp	r3, r1
 8000438:	fa04 f402 	lsl.w	r4, r4, r2
 800043c:	d907      	bls.n	800044e <__udivmoddi4+0x256>
 800043e:	1869      	adds	r1, r5, r1
 8000440:	f107 3cff 	add.w	ip, r7, #4294967295
 8000444:	d22f      	bcs.n	80004a6 <__udivmoddi4+0x2ae>
 8000446:	428b      	cmp	r3, r1
 8000448:	d92d      	bls.n	80004a6 <__udivmoddi4+0x2ae>
 800044a:	3f02      	subs	r7, #2
 800044c:	4429      	add	r1, r5
 800044e:	1acb      	subs	r3, r1, r3
 8000450:	b281      	uxth	r1, r0
 8000452:	fbb3 f0fe 	udiv	r0, r3, lr
 8000456:	fb0e 3310 	mls	r3, lr, r0, r3
 800045a:	ea41 4103 	orr.w	r1, r1, r3, lsl #16
 800045e:	fb00 f308 	mul.w	r3, r0, r8
 8000462:	428b      	cmp	r3, r1
 8000464:	d907      	bls.n	8000476 <__udivmoddi4+0x27e>
 8000466:	1869      	adds	r1, r5, r1
 8000468:	f100 3cff 	add.w	ip, r0, #4294967295
 800046c:	d217      	bcs.n	800049e <__udivmoddi4+0x2a6>
 800046e:	428b      	cmp	r3, r1
 8000470:	d915      	bls.n	800049e <__udivmoddi4+0x2a6>
 8000472:	3802      	subs	r0, #2
 8000474:	4429      	add	r1, r5
 8000476:	1ac9      	subs	r1, r1, r3
 8000478:	ea40 4707 	orr.w	r7, r0, r7, lsl #16
 800047c:	e73b      	b.n	80002f6 <__udivmoddi4+0xfe>
 800047e:	4637      	mov	r7, r6
 8000480:	4630      	mov	r0, r6
 8000482:	e709      	b.n	8000298 <__udivmoddi4+0xa0>
 8000484:	4607      	mov	r7, r0
 8000486:	e6e7      	b.n	8000258 <__udivmoddi4+0x60>
 8000488:	4618      	mov	r0, r3
 800048a:	e6fb      	b.n	8000284 <__udivmoddi4+0x8c>
 800048c:	4541      	cmp	r1, r8
 800048e:	d2ab      	bcs.n	80003e8 <__udivmoddi4+0x1f0>
 8000490:	ebb8 0a02 	subs.w	sl, r8, r2
 8000494:	eb69 020e 	sbc.w	r2, r9, lr
 8000498:	3801      	subs	r0, #1
 800049a:	4613      	mov	r3, r2
 800049c:	e7a4      	b.n	80003e8 <__udivmoddi4+0x1f0>
 800049e:	4660      	mov	r0, ip
 80004a0:	e7e9      	b.n	8000476 <__udivmoddi4+0x27e>
 80004a2:	4618      	mov	r0, r3
 80004a4:	e795      	b.n	80003d2 <__udivmoddi4+0x1da>
 80004a6:	4667      	mov	r7, ip
 80004a8:	e7d1      	b.n	800044e <__udivmoddi4+0x256>
 80004aa:	4681      	mov	r9, r0
 80004ac:	e77c      	b.n	80003a8 <__udivmoddi4+0x1b0>
 80004ae:	3802      	subs	r0, #2
 80004b0:	442c      	add	r4, r5
 80004b2:	e747      	b.n	8000344 <__udivmoddi4+0x14c>
 80004b4:	f1ac 0c02 	sub.w	ip, ip, #2
 80004b8:	442b      	add	r3, r5
 80004ba:	e72f      	b.n	800031c <__udivmoddi4+0x124>
 80004bc:	4638      	mov	r0, r7
 80004be:	e708      	b.n	80002d2 <__udivmoddi4+0xda>
 80004c0:	4637      	mov	r7, r6
 80004c2:	e6e9      	b.n	8000298 <__udivmoddi4+0xa0>

080004c4 <__aeabi_idiv0>:
 80004c4:	4770      	bx	lr
 80004c6:	bf00      	nop

080004c8 <MX_GPIO_Init>:
 80004c8:	b084      	sub	sp, #16
 80004ca:	4b11      	ldr	r3, [pc, #68]	; (8000510 <MX_GPIO_Init+0x48>)
 80004cc:	2200      	movs	r2, #0
 80004ce:	9201      	str	r2, [sp, #4]
 80004d0:	6b19      	ldr	r1, [r3, #48]	; 0x30
 80004d2:	f041 0180 	orr.w	r1, r1, #128	; 0x80
 80004d6:	6319      	str	r1, [r3, #48]	; 0x30
 80004d8:	6b19      	ldr	r1, [r3, #48]	; 0x30
 80004da:	f001 0180 	and.w	r1, r1, #128	; 0x80
 80004de:	9101      	str	r1, [sp, #4]
 80004e0:	9901      	ldr	r1, [sp, #4]
 80004e2:	9202      	str	r2, [sp, #8]
 80004e4:	6b19      	ldr	r1, [r3, #48]	; 0x30
 80004e6:	f041 0101 	orr.w	r1, r1, #1
 80004ea:	6319      	str	r1, [r3, #48]	; 0x30
 80004ec:	6b19      	ldr	r1, [r3, #48]	; 0x30
 80004ee:	f001 0101 	and.w	r1, r1, #1
 80004f2:	9102      	str	r1, [sp, #8]
 80004f4:	9902      	ldr	r1, [sp, #8]
 80004f6:	9203      	str	r2, [sp, #12]
 80004f8:	6b1a      	ldr	r2, [r3, #48]	; 0x30
 80004fa:	f042 0202 	orr.w	r2, r2, #2
 80004fe:	631a      	str	r2, [r3, #48]	; 0x30
 8000500:	6b1b      	ldr	r3, [r3, #48]	; 0x30
 8000502:	f003 0302 	and.w	r3, r3, #2
 8000506:	9303      	str	r3, [sp, #12]
 8000508:	9b03      	ldr	r3, [sp, #12]
 800050a:	b004      	add	sp, #16
 800050c:	4770      	bx	lr
 800050e:	bf00      	nop
 8000510:	40023800 	.word	0x40023800

08000514 <MX_I2C1_Init>:
 8000514:	b508      	push	{r3, lr}
 8000516:	480b      	ldr	r0, [pc, #44]	; (8000544 <MX_I2C1_Init+0x30>)
 8000518:	4a0b      	ldr	r2, [pc, #44]	; (8000548 <MX_I2C1_Init+0x34>)
 800051a:	4b0c      	ldr	r3, [pc, #48]	; (800054c <MX_I2C1_Init+0x38>)
 800051c:	e9c0 2300 	strd	r2, r3, [r0]
 8000520:	2300      	movs	r3, #0
 8000522:	f44f 4280 	mov.w	r2, #16384	; 0x4000
 8000526:	e9c0 3302 	strd	r3, r3, [r0, #8]
 800052a:	e9c0 2304 	strd	r2, r3, [r0, #16]
 800052e:	e9c0 3306 	strd	r3, r3, [r0, #24]
 8000532:	6203      	str	r3, [r0, #32]
 8000534:	f000 fc4e 	bl	8000dd4 <HAL_I2C_Init>
 8000538:	b118      	cbz	r0, 8000542 <MX_I2C1_Init+0x2e>
 800053a:	e8bd 4008 	ldmia.w	sp!, {r3, lr}
 800053e:	f000 b8a8 	b.w	8000692 <Error_Handler>
 8000542:	bd08      	pop	{r3, pc}
 8000544:	200004ac 	.word	0x200004ac
 8000548:	40005400 	.word	0x40005400
 800054c:	000186a0 	.word	0x000186a0

08000550 <HAL_I2C_MspInit>:
 8000550:	b530      	push	{r4, r5, lr}
 8000552:	4604      	mov	r4, r0
 8000554:	b089      	sub	sp, #36	; 0x24
 8000556:	2214      	movs	r2, #20
 8000558:	2100      	movs	r1, #0
 800055a:	a803      	add	r0, sp, #12
 800055c:	f001 fdac 	bl	80020b8 <memset>
 8000560:	6822      	ldr	r2, [r4, #0]
 8000562:	4b14      	ldr	r3, [pc, #80]	; (80005b4 <HAL_I2C_MspInit+0x64>)
 8000564:	429a      	cmp	r2, r3
 8000566:	d123      	bne.n	80005b0 <HAL_I2C_MspInit+0x60>
 8000568:	4c13      	ldr	r4, [pc, #76]	; (80005b8 <HAL_I2C_MspInit+0x68>)
 800056a:	4814      	ldr	r0, [pc, #80]	; (80005bc <HAL_I2C_MspInit+0x6c>)
 800056c:	2500      	movs	r5, #0
 800056e:	9501      	str	r5, [sp, #4]
 8000570:	6b23      	ldr	r3, [r4, #48]	; 0x30
 8000572:	f043 0302 	orr.w	r3, r3, #2
 8000576:	6323      	str	r3, [r4, #48]	; 0x30
 8000578:	6b23      	ldr	r3, [r4, #48]	; 0x30
 800057a:	f003 0302 	and.w	r3, r3, #2
 800057e:	9301      	str	r3, [sp, #4]
 8000580:	9b01      	ldr	r3, [sp, #4]
 8000582:	22c0      	movs	r2, #192	; 0xc0
 8000584:	2312      	movs	r3, #18
 8000586:	e9cd 2303 	strd	r2, r3, [sp, #12]
 800058a:	2101      	movs	r1, #1
 800058c:	2303      	movs	r3, #3
 800058e:	e9cd 1305 	strd	r1, r3, [sp, #20]
 8000592:	2304      	movs	r3, #4
 8000594:	a903      	add	r1, sp, #12
 8000596:	9307      	str	r3, [sp, #28]
 8000598:	f000 fa6a 	bl	8000a70 <HAL_GPIO_Init>
 800059c:	9502      	str	r5, [sp, #8]
 800059e:	6c23      	ldr	r3, [r4, #64]	; 0x40
 80005a0:	f443 1300 	orr.w	r3, r3, #2097152	; 0x200000
 80005a4:	6423      	str	r3, [r4, #64]	; 0x40
 80005a6:	6c23      	ldr	r3, [r4, #64]	; 0x40
 80005a8:	f403 1300 	and.w	r3, r3, #2097152	; 0x200000
 80005ac:	9302      	str	r3, [sp, #8]
 80005ae:	9b02      	ldr	r3, [sp, #8]
 80005b0:	b009      	add	sp, #36	; 0x24
 80005b2:	bd30      	pop	{r4, r5, pc}
 80005b4:	40005400 	.word	0x40005400
 80005b8:	40023800 	.word	0x40023800
 80005bc:	40020400 	.word	0x40020400

080005c0 <SystemClock_Config>:
 80005c0:	b530      	push	{r4, r5, lr}
 80005c2:	b095      	sub	sp, #84	; 0x54
 80005c4:	2210      	movs	r2, #16
 80005c6:	2100      	movs	r1, #0
 80005c8:	a80a      	add	r0, sp, #40	; 0x28
 80005ca:	f001 fd75 	bl	80020b8 <memset>
 80005ce:	2100      	movs	r1, #0
 80005d0:	2214      	movs	r2, #20
 80005d2:	a803      	add	r0, sp, #12
 80005d4:	f001 fd70 	bl	80020b8 <memset>
 80005d8:	2400      	movs	r4, #0
 80005da:	4b1c      	ldr	r3, [pc, #112]	; (800064c <SystemClock_Config+0x8c>)
 80005dc:	9401      	str	r4, [sp, #4]
 80005de:	6c1a      	ldr	r2, [r3, #64]	; 0x40
 80005e0:	f042 5280 	orr.w	r2, r2, #268435456	; 0x10000000
 80005e4:	641a      	str	r2, [r3, #64]	; 0x40
 80005e6:	6c1b      	ldr	r3, [r3, #64]	; 0x40
 80005e8:	f003 5380 	and.w	r3, r3, #268435456	; 0x10000000
 80005ec:	9301      	str	r3, [sp, #4]
 80005ee:	9b01      	ldr	r3, [sp, #4]
 80005f0:	4b17      	ldr	r3, [pc, #92]	; (8000650 <SystemClock_Config+0x90>)
 80005f2:	9402      	str	r4, [sp, #8]
 80005f4:	681a      	ldr	r2, [r3, #0]
 80005f6:	f442 4280 	orr.w	r2, r2, #16384	; 0x4000
 80005fa:	601a      	str	r2, [r3, #0]
 80005fc:	681b      	ldr	r3, [r3, #0]
 80005fe:	f403 4380 	and.w	r3, r3, #16384	; 0x4000
 8000602:	9302      	str	r3, [sp, #8]
 8000604:	9b02      	ldr	r3, [sp, #8]
 8000606:	2201      	movs	r2, #1
 8000608:	f44f 3380 	mov.w	r3, #65536	; 0x10000
 800060c:	e9cd 2308 	strd	r2, r3, [sp, #32]
 8000610:	2502      	movs	r5, #2
 8000612:	f44f 0380 	mov.w	r3, #4194304	; 0x400000
 8000616:	22a8      	movs	r2, #168	; 0xa8
 8000618:	e9cd 530e 	strd	r5, r3, [sp, #56]	; 0x38
 800061c:	a808      	add	r0, sp, #32
 800061e:	2304      	movs	r3, #4
 8000620:	e9cd 3210 	strd	r3, r2, [sp, #64]	; 0x40
 8000624:	e9cd 5312 	strd	r5, r3, [sp, #72]	; 0x48
 8000628:	f000 fd54 	bl	80010d4 <HAL_RCC_OscConfig>
 800062c:	230f      	movs	r3, #15
 800062e:	e9cd 3503 	strd	r3, r5, [sp, #12]
 8000632:	f44f 51a0 	mov.w	r1, #5120	; 0x1400
 8000636:	f44f 5380 	mov.w	r3, #4096	; 0x1000
 800063a:	e9cd 1306 	strd	r1, r3, [sp, #24]
 800063e:	a803      	add	r0, sp, #12
 8000640:	2105      	movs	r1, #5
 8000642:	9405      	str	r4, [sp, #20]
 8000644:	f000 ff1a 	bl	800147c <HAL_RCC_ClockConfig>
 8000648:	b015      	add	sp, #84	; 0x54
 800064a:	bd30      	pop	{r4, r5, pc}
 800064c:	40023800 	.word	0x40023800
 8000650:	40007000 	.word	0x40007000

08000654 <main>:
 8000654:	b500      	push	{lr}
 8000656:	b0a9      	sub	sp, #164	; 0xa4
 8000658:	f000 f96e 	bl	8000938 <HAL_Init>
 800065c:	f7ff ffb0 	bl	80005c0 <SystemClock_Config>
 8000660:	f7ff ff32 	bl	80004c8 <MX_GPIO_Init>
 8000664:	f7ff ff56 	bl	8000514 <MX_I2C1_Init>
 8000668:	f000 f8c6 	bl	80007f8 <MX_USART1_UART_Init>
 800066c:	a803      	add	r0, sp, #12
 800066e:	f000 f875 	bl	800075c <u8g2Init>
 8000672:	240f      	movs	r4, #15
 8000674:	231e      	movs	r3, #30
 8000676:	2220      	movs	r2, #32
 8000678:	2140      	movs	r1, #64	; 0x40
 800067a:	a803      	add	r0, sp, #12
 800067c:	9400      	str	r4, [sp, #0]
 800067e:	f001 f8e1 	bl	8001844 <u8g2_DrawCircle>
 8000682:	a803      	add	r0, sp, #12
 8000684:	f001 f884 	bl	8001790 <u8g2_SendBuffer>
 8000688:	f44f 707a 	mov.w	r0, #1000	; 0x3e8
 800068c:	f000 f980 	bl	8000990 <HAL_Delay>
 8000690:	e7f0      	b.n	8000674 <main+0x20>

08000692 <Error_Handler>:
 8000692:	4770      	bx	lr

08000694 <u8x8_byte_hw_i2c>:
 8000694:	b573      	push	{r0, r1, r4, r5, r6, lr}
 8000696:	3914      	subs	r1, #20
 8000698:	290c      	cmp	r1, #12
 800069a:	d808      	bhi.n	80006ae <u8x8_byte_hw_i2c+0x1a>
 800069c:	e8df f001 	tbb	[pc, r1]
 80006a0:	0a070715 	.word	0x0a070715
 80006a4:	07072419 	.word	0x07072419
 80006a8:	07070707 	.word	0x07070707
 80006ac:	17          	.byte	0x17
 80006ad:	00          	.byte	0x00
 80006ae:	2000      	movs	r0, #0
 80006b0:	b002      	add	sp, #8
 80006b2:	bd70      	pop	{r4, r5, r6, pc}
 80006b4:	4813      	ldr	r0, [pc, #76]	; (8000704 <u8x8_byte_hw_i2c+0x70>)
 80006b6:	4d14      	ldr	r5, [pc, #80]	; (8000708 <u8x8_byte_hw_i2c+0x74>)
 80006b8:	7801      	ldrb	r1, [r0, #0]
 80006ba:	440a      	add	r2, r1
 80006bc:	b2d2      	uxtb	r2, r2
 80006be:	2400      	movs	r4, #0
 80006c0:	4291      	cmp	r1, r2
 80006c2:	d10a      	bne.n	80006da <u8x8_byte_hw_i2c+0x46>
 80006c4:	b11c      	cbz	r4, 80006ce <u8x8_byte_hw_i2c+0x3a>
 80006c6:	7001      	strb	r1, [r0, #0]
 80006c8:	e001      	b.n	80006ce <u8x8_byte_hw_i2c+0x3a>
 80006ca:	f7ff ff23 	bl	8000514 <MX_I2C1_Init>
 80006ce:	2001      	movs	r0, #1
 80006d0:	e7ee      	b.n	80006b0 <u8x8_byte_hw_i2c+0x1c>
 80006d2:	4b0c      	ldr	r3, [pc, #48]	; (8000704 <u8x8_byte_hw_i2c+0x70>)
 80006d4:	2200      	movs	r2, #0
 80006d6:	701a      	strb	r2, [r3, #0]
 80006d8:	e7f9      	b.n	80006ce <u8x8_byte_hw_i2c+0x3a>
 80006da:	f813 4b01 	ldrb.w	r4, [r3], #1
 80006de:	546c      	strb	r4, [r5, r1]
 80006e0:	1c4e      	adds	r6, r1, #1
 80006e2:	2401      	movs	r4, #1
 80006e4:	b2f1      	uxtb	r1, r6
 80006e6:	e7eb      	b.n	80006c0 <u8x8_byte_hw_i2c+0x2c>
 80006e8:	4b06      	ldr	r3, [pc, #24]	; (8000704 <u8x8_byte_hw_i2c+0x70>)
 80006ea:	4808      	ldr	r0, [pc, #32]	; (800070c <u8x8_byte_hw_i2c+0x78>)
 80006ec:	781b      	ldrb	r3, [r3, #0]
 80006ee:	f44f 727a 	mov.w	r2, #1000	; 0x3e8
 80006f2:	9200      	str	r2, [sp, #0]
 80006f4:	2178      	movs	r1, #120	; 0x78
 80006f6:	4a04      	ldr	r2, [pc, #16]	; (8000708 <u8x8_byte_hw_i2c+0x74>)
 80006f8:	f000 fc18 	bl	8000f2c <HAL_I2C_Master_Transmit>
 80006fc:	fab0 f080 	clz	r0, r0
 8000700:	0940      	lsrs	r0, r0, #5
 8000702:	e7d5      	b.n	80006b0 <u8x8_byte_hw_i2c+0x1c>
 8000704:	20000028 	.word	0x20000028
 8000708:	20000029 	.word	0x20000029
 800070c:	200004ac 	.word	0x200004ac

08000710 <u8x8_gpio_and_delay>:
 8000710:	292d      	cmp	r1, #45	; 0x2d
 8000712:	b508      	push	{r3, lr}
 8000714:	d01a      	beq.n	800074c <u8x8_gpio_and_delay+0x3c>
 8000716:	d809      	bhi.n	800072c <u8x8_gpio_and_delay+0x1c>
 8000718:	292a      	cmp	r1, #42	; 0x2a
 800071a:	d010      	beq.n	800073e <u8x8_gpio_and_delay+0x2e>
 800071c:	292b      	cmp	r1, #43	; 0x2b
 800071e:	d017      	beq.n	8000750 <u8x8_gpio_and_delay+0x40>
 8000720:	2929      	cmp	r1, #41	; 0x29
 8000722:	d10a      	bne.n	800073a <u8x8_gpio_and_delay+0x2a>
 8000724:	2001      	movs	r0, #1
 8000726:	f000 f933 	bl	8000990 <HAL_Delay>
 800072a:	e00f      	b.n	800074c <u8x8_gpio_and_delay+0x3c>
 800072c:	294c      	cmp	r1, #76	; 0x4c
 800072e:	d304      	bcc.n	800073a <u8x8_gpio_and_delay+0x2a>
 8000730:	294d      	cmp	r1, #77	; 0x4d
 8000732:	d90b      	bls.n	800074c <u8x8_gpio_and_delay+0x3c>
 8000734:	3950      	subs	r1, #80	; 0x50
 8000736:	2903      	cmp	r1, #3
 8000738:	d90c      	bls.n	8000754 <u8x8_gpio_and_delay+0x44>
 800073a:	2301      	movs	r3, #1
 800073c:	e00b      	b.n	8000756 <u8x8_gpio_and_delay+0x46>
 800073e:	f44f 73a0 	mov.w	r3, #320	; 0x140
 8000742:	bf00      	nop
 8000744:	3b01      	subs	r3, #1
 8000746:	b29b      	uxth	r3, r3
 8000748:	2b00      	cmp	r3, #0
 800074a:	d1fa      	bne.n	8000742 <u8x8_gpio_and_delay+0x32>
 800074c:	2001      	movs	r0, #1
 800074e:	bd08      	pop	{r3, pc}
 8000750:	bf00      	nop
 8000752:	e7fb      	b.n	800074c <u8x8_gpio_and_delay+0x3c>
 8000754:	2300      	movs	r3, #0
 8000756:	f880 3027 	strb.w	r3, [r0, #39]	; 0x27
 800075a:	e7f7      	b.n	800074c <u8x8_gpio_and_delay+0x3c>

0800075c <u8g2Init>:
 800075c:	b510      	push	{r4, lr}
 800075e:	4b09      	ldr	r3, [pc, #36]	; (8000784 <u8g2Init+0x28>)
 8000760:	4a09      	ldr	r2, [pc, #36]	; (8000788 <u8g2Init+0x2c>)
 8000762:	490a      	ldr	r1, [pc, #40]	; (800078c <u8g2Init+0x30>)
 8000764:	4604      	mov	r4, r0
 8000766:	f001 f8b7 	bl	80018d8 <u8g2_Setup_ssd1306_i2c_128x64_noname_f>
 800076a:	4620      	mov	r0, r4
 800076c:	f001 fc39 	bl	8001fe2 <u8x8_InitDisplay>
 8000770:	4620      	mov	r0, r4
 8000772:	2100      	movs	r1, #0
 8000774:	f001 fc3e 	bl	8001ff4 <u8x8_SetPowerSave>
 8000778:	4620      	mov	r0, r4
 800077a:	e8bd 4010 	ldmia.w	sp!, {r4, lr}
 800077e:	f000 bffd 	b.w	800177c <u8g2_ClearBuffer>
 8000782:	bf00      	nop
 8000784:	08000711 	.word	0x08000711
 8000788:	08000695 	.word	0x08000695
 800078c:	080020f8 	.word	0x080020f8

08000790 <HAL_MspInit>:
 8000790:	b082      	sub	sp, #8
 8000792:	4b0c      	ldr	r3, [pc, #48]	; (80007c4 <HAL_MspInit+0x34>)
 8000794:	2100      	movs	r1, #0
 8000796:	9100      	str	r1, [sp, #0]
 8000798:	6c5a      	ldr	r2, [r3, #68]	; 0x44
 800079a:	f442 4280 	orr.w	r2, r2, #16384	; 0x4000
 800079e:	645a      	str	r2, [r3, #68]	; 0x44
 80007a0:	6c5a      	ldr	r2, [r3, #68]	; 0x44
 80007a2:	f402 4280 	and.w	r2, r2, #16384	; 0x4000
 80007a6:	9200      	str	r2, [sp, #0]
 80007a8:	9a00      	ldr	r2, [sp, #0]
 80007aa:	9101      	str	r1, [sp, #4]
 80007ac:	6c1a      	ldr	r2, [r3, #64]	; 0x40
 80007ae:	f042 5280 	orr.w	r2, r2, #268435456	; 0x10000000
 80007b2:	641a      	str	r2, [r3, #64]	; 0x40
 80007b4:	6c1b      	ldr	r3, [r3, #64]	; 0x40
 80007b6:	f003 5380 	and.w	r3, r3, #268435456	; 0x10000000
 80007ba:	9301      	str	r3, [sp, #4]
 80007bc:	9b01      	ldr	r3, [sp, #4]
 80007be:	b002      	add	sp, #8
 80007c0:	4770      	bx	lr
 80007c2:	bf00      	nop
 80007c4:	40023800 	.word	0x40023800

080007c8 <NMI_Handler>:
 80007c8:	4770      	bx	lr

080007ca <HardFault_Handler>:
 80007ca:	e7fe      	b.n	80007ca <HardFault_Handler>

080007cc <MemManage_Handler>:
 80007cc:	e7fe      	b.n	80007cc <MemManage_Handler>

080007ce <BusFault_Handler>:
 80007ce:	e7fe      	b.n	80007ce <BusFault_Handler>

080007d0 <UsageFault_Handler>:
 80007d0:	e7fe      	b.n	80007d0 <UsageFault_Handler>

080007d2 <SVC_Handler>:
 80007d2:	4770      	bx	lr

080007d4 <DebugMon_Handler>:
 80007d4:	4770      	bx	lr

080007d6 <PendSV_Handler>:
 80007d6:	4770      	bx	lr

080007d8 <SysTick_Handler>:
 80007d8:	f000 b8c8 	b.w	800096c <HAL_IncTick>

080007dc <SystemInit>:
 80007dc:	4b05      	ldr	r3, [pc, #20]	; (80007f4 <SystemInit+0x18>)
 80007de:	f8d3 2088 	ldr.w	r2, [r3, #136]	; 0x88
 80007e2:	f442 0270 	orr.w	r2, r2, #15728640	; 0xf00000
 80007e6:	f8c3 2088 	str.w	r2, [r3, #136]	; 0x88
 80007ea:	f04f 6200 	mov.w	r2, #134217728	; 0x8000000
 80007ee:	609a      	str	r2, [r3, #8]
 80007f0:	4770      	bx	lr
 80007f2:	bf00      	nop
 80007f4:	e000ed00 	.word	0xe000ed00

080007f8 <MX_USART1_UART_Init>:
 80007f8:	480b      	ldr	r0, [pc, #44]	; (8000828 <MX_USART1_UART_Init+0x30>)
 80007fa:	4a0c      	ldr	r2, [pc, #48]	; (800082c <MX_USART1_UART_Init+0x34>)
 80007fc:	b508      	push	{r3, lr}
 80007fe:	f44f 33e1 	mov.w	r3, #115200	; 0x1c200
 8000802:	e9c0 2300 	strd	r2, r3, [r0]
 8000806:	2300      	movs	r3, #0
 8000808:	220c      	movs	r2, #12
 800080a:	e9c0 3302 	strd	r3, r3, [r0, #8]
 800080e:	6103      	str	r3, [r0, #16]
 8000810:	e9c0 2305 	strd	r2, r3, [r0, #20]
 8000814:	61c3      	str	r3, [r0, #28]
 8000816:	f000 ff5b 	bl	80016d0 <HAL_UART_Init>
 800081a:	b118      	cbz	r0, 8000824 <MX_USART1_UART_Init+0x2c>
 800081c:	e8bd 4008 	ldmia.w	sp!, {r3, lr}
 8000820:	f7ff bf37 	b.w	8000692 <Error_Handler>
 8000824:	bd08      	pop	{r3, pc}
 8000826:	bf00      	nop
 8000828:	20000500 	.word	0x20000500
 800082c:	40011000 	.word	0x40011000

08000830 <HAL_UART_MspInit>:
 8000830:	b510      	push	{r4, lr}
 8000832:	4604      	mov	r4, r0
 8000834:	b088      	sub	sp, #32
 8000836:	2214      	movs	r2, #20
 8000838:	2100      	movs	r1, #0
 800083a:	a803      	add	r0, sp, #12
 800083c:	f001 fc3c 	bl	80020b8 <memset>
 8000840:	6822      	ldr	r2, [r4, #0]
 8000842:	4b14      	ldr	r3, [pc, #80]	; (8000894 <HAL_UART_MspInit+0x64>)
 8000844:	429a      	cmp	r2, r3
 8000846:	d123      	bne.n	8000890 <HAL_UART_MspInit+0x60>
 8000848:	f503 3394 	add.w	r3, r3, #75776	; 0x12800
 800084c:	2100      	movs	r1, #0
 800084e:	9101      	str	r1, [sp, #4]
 8000850:	6c5a      	ldr	r2, [r3, #68]	; 0x44
 8000852:	4811      	ldr	r0, [pc, #68]	; (8000898 <HAL_UART_MspInit+0x68>)
 8000854:	f042 0210 	orr.w	r2, r2, #16
 8000858:	645a      	str	r2, [r3, #68]	; 0x44
 800085a:	6c5a      	ldr	r2, [r3, #68]	; 0x44
 800085c:	f002 0210 	and.w	r2, r2, #16
 8000860:	9201      	str	r2, [sp, #4]
 8000862:	9a01      	ldr	r2, [sp, #4]
 8000864:	9102      	str	r1, [sp, #8]
 8000866:	6b1a      	ldr	r2, [r3, #48]	; 0x30
 8000868:	f042 0201 	orr.w	r2, r2, #1
 800086c:	631a      	str	r2, [r3, #48]	; 0x30
 800086e:	6b1b      	ldr	r3, [r3, #48]	; 0x30
 8000870:	f003 0301 	and.w	r3, r3, #1
 8000874:	9302      	str	r3, [sp, #8]
 8000876:	9b02      	ldr	r3, [sp, #8]
 8000878:	f44f 62c0 	mov.w	r2, #1536	; 0x600
 800087c:	2302      	movs	r3, #2
 800087e:	2103      	movs	r1, #3
 8000880:	e9cd 2303 	strd	r2, r3, [sp, #12]
 8000884:	2307      	movs	r3, #7
 8000886:	e9cd 1306 	strd	r1, r3, [sp, #24]
 800088a:	a903      	add	r1, sp, #12
 800088c:	f000 f8f0 	bl	8000a70 <HAL_GPIO_Init>
 8000890:	b008      	add	sp, #32
 8000892:	bd10      	pop	{r4, pc}
 8000894:	40011000 	.word	0x40011000
 8000898:	40020000 	.word	0x40020000

0800089c <Reset_Handler>:
 800089c:	f8df d034 	ldr.w	sp, [pc, #52]	; 80008d4 <LoopFillZerobss+0x14>
 80008a0:	2100      	movs	r1, #0
 80008a2:	e003      	b.n	80008ac <LoopCopyDataInit>

080008a4 <CopyDataInit>:
 80008a4:	4b0c      	ldr	r3, [pc, #48]	; (80008d8 <LoopFillZerobss+0x18>)
 80008a6:	585b      	ldr	r3, [r3, r1]
 80008a8:	5043      	str	r3, [r0, r1]
 80008aa:	3104      	adds	r1, #4

080008ac <LoopCopyDataInit>:
 80008ac:	480b      	ldr	r0, [pc, #44]	; (80008dc <LoopFillZerobss+0x1c>)
 80008ae:	4b0c      	ldr	r3, [pc, #48]	; (80008e0 <LoopFillZerobss+0x20>)
 80008b0:	1842      	adds	r2, r0, r1
 80008b2:	429a      	cmp	r2, r3
 80008b4:	d3f6      	bcc.n	80008a4 <CopyDataInit>
 80008b6:	4a0b      	ldr	r2, [pc, #44]	; (80008e4 <LoopFillZerobss+0x24>)
 80008b8:	e002      	b.n	80008c0 <LoopFillZerobss>

080008ba <FillZerobss>:
 80008ba:	2300      	movs	r3, #0
 80008bc:	f842 3b04 	str.w	r3, [r2], #4

080008c0 <LoopFillZerobss>:
 80008c0:	4b09      	ldr	r3, [pc, #36]	; (80008e8 <LoopFillZerobss+0x28>)
 80008c2:	429a      	cmp	r2, r3
 80008c4:	d3f9      	bcc.n	80008ba <FillZerobss>
 80008c6:	f7ff ff89 	bl	80007dc <SystemInit>
 80008ca:	f001 fbd1 	bl	8002070 <__libc_init_array>
 80008ce:	f7ff fec1 	bl	8000654 <main>
 80008d2:	4770      	bx	lr
 80008d4:	20020000 	.word	0x20020000
 80008d8:	0800217c 	.word	0x0800217c
 80008dc:	20000000 	.word	0x20000000
 80008e0:	2000000c 	.word	0x2000000c
 80008e4:	2000000c 	.word	0x2000000c
 80008e8:	20000544 	.word	0x20000544

080008ec <ADC_IRQHandler>:
 80008ec:	e7fe      	b.n	80008ec <ADC_IRQHandler>
	...

080008f0 <HAL_InitTick>:
 80008f0:	b538      	push	{r3, r4, r5, lr}
 80008f2:	4a0e      	ldr	r2, [pc, #56]	; (800092c <HAL_InitTick+0x3c>)
 80008f4:	4b0e      	ldr	r3, [pc, #56]	; (8000930 <HAL_InitTick+0x40>)
 80008f6:	4605      	mov	r5, r0
 80008f8:	7818      	ldrb	r0, [r3, #0]
 80008fa:	f44f 737a 	mov.w	r3, #1000	; 0x3e8
 80008fe:	fbb3 f3f0 	udiv	r3, r3, r0
 8000902:	6810      	ldr	r0, [r2, #0]
 8000904:	fbb0 f0f3 	udiv	r0, r0, r3
 8000908:	f000 f89c 	bl	8000a44 <HAL_SYSTICK_Config>
 800090c:	4604      	mov	r4, r0
 800090e:	b958      	cbnz	r0, 8000928 <HAL_InitTick+0x38>
 8000910:	2d0f      	cmp	r5, #15
 8000912:	d809      	bhi.n	8000928 <HAL_InitTick+0x38>
 8000914:	4602      	mov	r2, r0
 8000916:	4629      	mov	r1, r5
 8000918:	f04f 30ff 	mov.w	r0, #4294967295
 800091c:	f000 f85e 	bl	80009dc <HAL_NVIC_SetPriority>
 8000920:	4b04      	ldr	r3, [pc, #16]	; (8000934 <HAL_InitTick+0x44>)
 8000922:	4620      	mov	r0, r4
 8000924:	601d      	str	r5, [r3, #0]
 8000926:	bd38      	pop	{r3, r4, r5, pc}
 8000928:	2001      	movs	r0, #1
 800092a:	e7fc      	b.n	8000926 <HAL_InitTick+0x36>
 800092c:	20000000 	.word	0x20000000
 8000930:	20000004 	.word	0x20000004
 8000934:	20000008 	.word	0x20000008

08000938 <HAL_Init>:
 8000938:	b508      	push	{r3, lr}
 800093a:	4b0b      	ldr	r3, [pc, #44]	; (8000968 <HAL_Init+0x30>)
 800093c:	681a      	ldr	r2, [r3, #0]
 800093e:	f442 7200 	orr.w	r2, r2, #512	; 0x200
 8000942:	601a      	str	r2, [r3, #0]
 8000944:	681a      	ldr	r2, [r3, #0]
 8000946:	f442 6280 	orr.w	r2, r2, #1024	; 0x400
 800094a:	601a      	str	r2, [r3, #0]
 800094c:	681a      	ldr	r2, [r3, #0]
 800094e:	f442 7280 	orr.w	r2, r2, #256	; 0x100
 8000952:	601a      	str	r2, [r3, #0]
 8000954:	2003      	movs	r0, #3
 8000956:	f000 f82f 	bl	80009b8 <HAL_NVIC_SetPriorityGrouping>
 800095a:	2000      	movs	r0, #0
 800095c:	f7ff ffc8 	bl	80008f0 <HAL_InitTick>
 8000960:	f7ff ff16 	bl	8000790 <HAL_MspInit>
 8000964:	2000      	movs	r0, #0
 8000966:	bd08      	pop	{r3, pc}
 8000968:	40023c00 	.word	0x40023c00

0800096c <HAL_IncTick>:
 800096c:	4a03      	ldr	r2, [pc, #12]	; (800097c <HAL_IncTick+0x10>)
 800096e:	4b04      	ldr	r3, [pc, #16]	; (8000980 <HAL_IncTick+0x14>)
 8000970:	6811      	ldr	r1, [r2, #0]
 8000972:	781b      	ldrb	r3, [r3, #0]
 8000974:	440b      	add	r3, r1
 8000976:	6013      	str	r3, [r2, #0]
 8000978:	4770      	bx	lr
 800097a:	bf00      	nop
 800097c:	20000540 	.word	0x20000540
 8000980:	20000004 	.word	0x20000004

08000984 <HAL_GetTick>:
 8000984:	4b01      	ldr	r3, [pc, #4]	; (800098c <HAL_GetTick+0x8>)
 8000986:	6818      	ldr	r0, [r3, #0]
 8000988:	4770      	bx	lr
 800098a:	bf00      	nop
 800098c:	20000540 	.word	0x20000540

08000990 <HAL_Delay>:
 8000990:	b538      	push	{r3, r4, r5, lr}
 8000992:	4604      	mov	r4, r0
 8000994:	f7ff fff6 	bl	8000984 <HAL_GetTick>
 8000998:	1c63      	adds	r3, r4, #1
 800099a:	bf1c      	itt	ne
 800099c:	4b05      	ldrne	r3, [pc, #20]	; (80009b4 <HAL_Delay+0x24>)
 800099e:	781b      	ldrbne	r3, [r3, #0]
 80009a0:	4605      	mov	r5, r0
 80009a2:	bf18      	it	ne
 80009a4:	18e4      	addne	r4, r4, r3
 80009a6:	f7ff ffed 	bl	8000984 <HAL_GetTick>
 80009aa:	1b40      	subs	r0, r0, r5
 80009ac:	42a0      	cmp	r0, r4
 80009ae:	d3fa      	bcc.n	80009a6 <HAL_Delay+0x16>
 80009b0:	bd38      	pop	{r3, r4, r5, pc}
 80009b2:	bf00      	nop
 80009b4:	20000004 	.word	0x20000004

080009b8 <HAL_NVIC_SetPriorityGrouping>:
 80009b8:	4a07      	ldr	r2, [pc, #28]	; (80009d8 <HAL_NVIC_SetPriorityGrouping+0x20>)
 80009ba:	68d3      	ldr	r3, [r2, #12]
 80009bc:	f423 63e0 	bic.w	r3, r3, #1792	; 0x700
 80009c0:	041b      	lsls	r3, r3, #16
 80009c2:	0c1b      	lsrs	r3, r3, #16
 80009c4:	f043 63bf 	orr.w	r3, r3, #100139008	; 0x5f80000
 80009c8:	0200      	lsls	r0, r0, #8
 80009ca:	f443 3300 	orr.w	r3, r3, #131072	; 0x20000
 80009ce:	f400 60e0 	and.w	r0, r0, #1792	; 0x700
 80009d2:	4303      	orrs	r3, r0
 80009d4:	60d3      	str	r3, [r2, #12]
 80009d6:	4770      	bx	lr
 80009d8:	e000ed00 	.word	0xe000ed00

080009dc <HAL_NVIC_SetPriority>:
 80009dc:	4b17      	ldr	r3, [pc, #92]	; (8000a3c <HAL_NVIC_SetPriority+0x60>)
 80009de:	b570      	push	{r4, r5, r6, lr}
 80009e0:	68dc      	ldr	r4, [r3, #12]
 80009e2:	f3c4 2402 	ubfx	r4, r4, #8, #3
 80009e6:	f1c4 0507 	rsb	r5, r4, #7
 80009ea:	2d04      	cmp	r5, #4
 80009ec:	f104 0304 	add.w	r3, r4, #4
 80009f0:	bf28      	it	cs
 80009f2:	2504      	movcs	r5, #4
 80009f4:	f04f 36ff 	mov.w	r6, #4294967295
 80009f8:	2b06      	cmp	r3, #6
 80009fa:	fa06 f305 	lsl.w	r3, r6, r5
 80009fe:	bf8c      	ite	hi
 8000a00:	3c03      	subhi	r4, #3
 8000a02:	2400      	movls	r4, #0
 8000a04:	ea21 0303 	bic.w	r3, r1, r3
 8000a08:	40a3      	lsls	r3, r4
 8000a0a:	fa06 f404 	lsl.w	r4, r6, r4
 8000a0e:	ea22 0404 	bic.w	r4, r2, r4
 8000a12:	2800      	cmp	r0, #0
 8000a14:	ea43 0304 	orr.w	r3, r3, r4
 8000a18:	bfa8      	it	ge
 8000a1a:	f100 4060 	addge.w	r0, r0, #3758096384	; 0xe0000000
 8000a1e:	ea4f 1303 	mov.w	r3, r3, lsl #4
 8000a22:	bfbc      	itt	lt
 8000a24:	f000 000f 	andlt.w	r0, r0, #15
 8000a28:	4a05      	ldrlt	r2, [pc, #20]	; (8000a40 <HAL_NVIC_SetPriority+0x64>)
 8000a2a:	b2db      	uxtb	r3, r3
 8000a2c:	bfaa      	itet	ge
 8000a2e:	f500 4061 	addge.w	r0, r0, #57600	; 0xe100
 8000a32:	5413      	strblt	r3, [r2, r0]
 8000a34:	f880 3300 	strbge.w	r3, [r0, #768]	; 0x300
 8000a38:	bd70      	pop	{r4, r5, r6, pc}
 8000a3a:	bf00      	nop
 8000a3c:	e000ed00 	.word	0xe000ed00
 8000a40:	e000ed14 	.word	0xe000ed14

08000a44 <HAL_SYSTICK_Config>:
 8000a44:	3801      	subs	r0, #1
 8000a46:	f1b0 7f80 	cmp.w	r0, #16777216	; 0x1000000
 8000a4a:	d20a      	bcs.n	8000a62 <HAL_SYSTICK_Config+0x1e>
 8000a4c:	4b06      	ldr	r3, [pc, #24]	; (8000a68 <HAL_SYSTICK_Config+0x24>)
 8000a4e:	4a07      	ldr	r2, [pc, #28]	; (8000a6c <HAL_SYSTICK_Config+0x28>)
 8000a50:	6058      	str	r0, [r3, #4]
 8000a52:	21f0      	movs	r1, #240	; 0xf0
 8000a54:	f882 1023 	strb.w	r1, [r2, #35]	; 0x23
 8000a58:	2000      	movs	r0, #0
 8000a5a:	2207      	movs	r2, #7
 8000a5c:	6098      	str	r0, [r3, #8]
 8000a5e:	601a      	str	r2, [r3, #0]
 8000a60:	4770      	bx	lr
 8000a62:	2001      	movs	r0, #1
 8000a64:	4770      	bx	lr
 8000a66:	bf00      	nop
 8000a68:	e000e010 	.word	0xe000e010
 8000a6c:	e000ed00 	.word	0xe000ed00

08000a70 <HAL_GPIO_Init>:
 8000a70:	e92d 4ff0 	stmdb	sp!, {r4, r5, r6, r7, r8, r9, sl, fp, lr}
 8000a74:	b085      	sub	sp, #20
 8000a76:	680b      	ldr	r3, [r1, #0]
 8000a78:	f8df 81ac 	ldr.w	r8, [pc, #428]	; 8000c28 <HAL_GPIO_Init+0x1b8>
 8000a7c:	4a68      	ldr	r2, [pc, #416]	; (8000c20 <HAL_GPIO_Init+0x1b0>)
 8000a7e:	f8df 91ac 	ldr.w	r9, [pc, #428]	; 8000c2c <HAL_GPIO_Init+0x1bc>
 8000a82:	9301      	str	r3, [sp, #4]
 8000a84:	2300      	movs	r3, #0
 8000a86:	2401      	movs	r4, #1
 8000a88:	9d01      	ldr	r5, [sp, #4]
 8000a8a:	409c      	lsls	r4, r3
 8000a8c:	4025      	ands	r5, r4
 8000a8e:	42ac      	cmp	r4, r5
 8000a90:	f040 80b0 	bne.w	8000bf4 <HAL_GPIO_Init+0x184>
 8000a94:	684c      	ldr	r4, [r1, #4]
 8000a96:	f024 0c10 	bic.w	ip, r4, #16
 8000a9a:	ea4f 0e43 	mov.w	lr, r3, lsl #1
 8000a9e:	2603      	movs	r6, #3
 8000aa0:	f10c 37ff 	add.w	r7, ip, #4294967295
 8000aa4:	fa06 f60e 	lsl.w	r6, r6, lr
 8000aa8:	2f01      	cmp	r7, #1
 8000aaa:	ea6f 0606 	mvn.w	r6, r6
 8000aae:	d811      	bhi.n	8000ad4 <HAL_GPIO_Init+0x64>
 8000ab0:	6887      	ldr	r7, [r0, #8]
 8000ab2:	ea07 0a06 	and.w	sl, r7, r6
 8000ab6:	68cf      	ldr	r7, [r1, #12]
 8000ab8:	fa07 f70e 	lsl.w	r7, r7, lr
 8000abc:	ea47 070a 	orr.w	r7, r7, sl
 8000ac0:	6087      	str	r7, [r0, #8]
 8000ac2:	6847      	ldr	r7, [r0, #4]
 8000ac4:	ea27 0a05 	bic.w	sl, r7, r5
 8000ac8:	f3c4 1700 	ubfx	r7, r4, #4, #1
 8000acc:	409f      	lsls	r7, r3
 8000ace:	ea47 070a 	orr.w	r7, r7, sl
 8000ad2:	6047      	str	r7, [r0, #4]
 8000ad4:	68c7      	ldr	r7, [r0, #12]
 8000ad6:	ea07 0a06 	and.w	sl, r7, r6
 8000ada:	688f      	ldr	r7, [r1, #8]
 8000adc:	fa07 f70e 	lsl.w	r7, r7, lr
 8000ae0:	ea47 070a 	orr.w	r7, r7, sl
 8000ae4:	f1bc 0f02 	cmp.w	ip, #2
 8000ae8:	60c7      	str	r7, [r0, #12]
 8000aea:	d116      	bne.n	8000b1a <HAL_GPIO_Init+0xaa>
 8000aec:	ea4f 0ad3 	mov.w	sl, r3, lsr #3
 8000af0:	eb00 0a8a 	add.w	sl, r0, sl, lsl #2
 8000af4:	f003 0b07 	and.w	fp, r3, #7
 8000af8:	f8da 7020 	ldr.w	r7, [sl, #32]
 8000afc:	ea4f 0b8b 	mov.w	fp, fp, lsl #2
 8000b00:	f04f 0c0f 	mov.w	ip, #15
 8000b04:	fa0c fc0b 	lsl.w	ip, ip, fp
 8000b08:	ea27 0c0c 	bic.w	ip, r7, ip
 8000b0c:	690f      	ldr	r7, [r1, #16]
 8000b0e:	fa07 f70b 	lsl.w	r7, r7, fp
 8000b12:	ea47 070c 	orr.w	r7, r7, ip
 8000b16:	f8ca 7020 	str.w	r7, [sl, #32]
 8000b1a:	6807      	ldr	r7, [r0, #0]
 8000b1c:	403e      	ands	r6, r7
 8000b1e:	f004 0703 	and.w	r7, r4, #3
 8000b22:	fa07 fe0e 	lsl.w	lr, r7, lr
 8000b26:	ea4e 0606 	orr.w	r6, lr, r6
 8000b2a:	6006      	str	r6, [r0, #0]
 8000b2c:	00e6      	lsls	r6, r4, #3
 8000b2e:	d561      	bpl.n	8000bf4 <HAL_GPIO_Init+0x184>
 8000b30:	f04f 0b00 	mov.w	fp, #0
 8000b34:	f8cd b00c 	str.w	fp, [sp, #12]
 8000b38:	f8d8 7044 	ldr.w	r7, [r8, #68]	; 0x44
 8000b3c:	4e39      	ldr	r6, [pc, #228]	; (8000c24 <HAL_GPIO_Init+0x1b4>)
 8000b3e:	f447 4780 	orr.w	r7, r7, #16384	; 0x4000
 8000b42:	f8c8 7044 	str.w	r7, [r8, #68]	; 0x44
 8000b46:	f8d8 7044 	ldr.w	r7, [r8, #68]	; 0x44
 8000b4a:	f407 4780 	and.w	r7, r7, #16384	; 0x4000
 8000b4e:	9703      	str	r7, [sp, #12]
 8000b50:	9f03      	ldr	r7, [sp, #12]
 8000b52:	f023 0703 	bic.w	r7, r3, #3
 8000b56:	f107 4780 	add.w	r7, r7, #1073741824	; 0x40000000
 8000b5a:	f507 379c 	add.w	r7, r7, #79872	; 0x13800
 8000b5e:	f003 0e03 	and.w	lr, r3, #3
 8000b62:	f8d7 a008 	ldr.w	sl, [r7, #8]
 8000b66:	ea4f 0e8e 	mov.w	lr, lr, lsl #2
 8000b6a:	f04f 0c0f 	mov.w	ip, #15
 8000b6e:	fa0c fc0e 	lsl.w	ip, ip, lr
 8000b72:	42b0      	cmp	r0, r6
 8000b74:	ea2a 0c0c 	bic.w	ip, sl, ip
 8000b78:	d043      	beq.n	8000c02 <HAL_GPIO_Init+0x192>
 8000b7a:	f506 6680 	add.w	r6, r6, #1024	; 0x400
 8000b7e:	42b0      	cmp	r0, r6
 8000b80:	d041      	beq.n	8000c06 <HAL_GPIO_Init+0x196>
 8000b82:	f506 6680 	add.w	r6, r6, #1024	; 0x400
 8000b86:	42b0      	cmp	r0, r6
 8000b88:	d03f      	beq.n	8000c0a <HAL_GPIO_Init+0x19a>
 8000b8a:	f506 6680 	add.w	r6, r6, #1024	; 0x400
 8000b8e:	42b0      	cmp	r0, r6
 8000b90:	d03d      	beq.n	8000c0e <HAL_GPIO_Init+0x19e>
 8000b92:	f506 6680 	add.w	r6, r6, #1024	; 0x400
 8000b96:	42b0      	cmp	r0, r6
 8000b98:	d03b      	beq.n	8000c12 <HAL_GPIO_Init+0x1a2>
 8000b9a:	4548      	cmp	r0, r9
 8000b9c:	d03b      	beq.n	8000c16 <HAL_GPIO_Init+0x1a6>
 8000b9e:	f506 6600 	add.w	r6, r6, #2048	; 0x800
 8000ba2:	42b0      	cmp	r0, r6
 8000ba4:	d039      	beq.n	8000c1a <HAL_GPIO_Init+0x1aa>
 8000ba6:	f506 6680 	add.w	r6, r6, #1024	; 0x400
 8000baa:	42b0      	cmp	r0, r6
 8000bac:	bf14      	ite	ne
 8000bae:	2608      	movne	r6, #8
 8000bb0:	2607      	moveq	r6, #7
 8000bb2:	fa06 f60e 	lsl.w	r6, r6, lr
 8000bb6:	ea46 060c 	orr.w	r6, r6, ip
 8000bba:	60be      	str	r6, [r7, #8]
 8000bbc:	6816      	ldr	r6, [r2, #0]
 8000bbe:	43ef      	mvns	r7, r5
 8000bc0:	f414 3f80 	tst.w	r4, #65536	; 0x10000
 8000bc4:	bf0c      	ite	eq
 8000bc6:	403e      	andeq	r6, r7
 8000bc8:	432e      	orrne	r6, r5
 8000bca:	6016      	str	r6, [r2, #0]
 8000bcc:	6856      	ldr	r6, [r2, #4]
 8000bce:	f414 3f00 	tst.w	r4, #131072	; 0x20000
 8000bd2:	bf0c      	ite	eq
 8000bd4:	403e      	andeq	r6, r7
 8000bd6:	432e      	orrne	r6, r5
 8000bd8:	6056      	str	r6, [r2, #4]
 8000bda:	6896      	ldr	r6, [r2, #8]
 8000bdc:	f414 1f80 	tst.w	r4, #1048576	; 0x100000
 8000be0:	bf0c      	ite	eq
 8000be2:	403e      	andeq	r6, r7
 8000be4:	432e      	orrne	r6, r5
 8000be6:	6096      	str	r6, [r2, #8]
 8000be8:	68d6      	ldr	r6, [r2, #12]
 8000bea:	02a4      	lsls	r4, r4, #10
 8000bec:	bf54      	ite	pl
 8000bee:	403e      	andpl	r6, r7
 8000bf0:	432e      	orrmi	r6, r5
 8000bf2:	60d6      	str	r6, [r2, #12]
 8000bf4:	3301      	adds	r3, #1
 8000bf6:	2b10      	cmp	r3, #16
 8000bf8:	f47f af45 	bne.w	8000a86 <HAL_GPIO_Init+0x16>
 8000bfc:	b005      	add	sp, #20
 8000bfe:	e8bd 8ff0 	ldmia.w	sp!, {r4, r5, r6, r7, r8, r9, sl, fp, pc}
 8000c02:	465e      	mov	r6, fp
 8000c04:	e7d5      	b.n	8000bb2 <HAL_GPIO_Init+0x142>
 8000c06:	2601      	movs	r6, #1
 8000c08:	e7d3      	b.n	8000bb2 <HAL_GPIO_Init+0x142>
 8000c0a:	2602      	movs	r6, #2
 8000c0c:	e7d1      	b.n	8000bb2 <HAL_GPIO_Init+0x142>
 8000c0e:	2603      	movs	r6, #3
 8000c10:	e7cf      	b.n	8000bb2 <HAL_GPIO_Init+0x142>
 8000c12:	2604      	movs	r6, #4
 8000c14:	e7cd      	b.n	8000bb2 <HAL_GPIO_Init+0x142>
 8000c16:	2605      	movs	r6, #5
 8000c18:	e7cb      	b.n	8000bb2 <HAL_GPIO_Init+0x142>
 8000c1a:	2606      	movs	r6, #6
 8000c1c:	e7c9      	b.n	8000bb2 <HAL_GPIO_Init+0x142>
 8000c1e:	bf00      	nop
 8000c20:	40013c00 	.word	0x40013c00
 8000c24:	40020000 	.word	0x40020000
 8000c28:	40023800 	.word	0x40023800
 8000c2c:	40021400 	.word	0x40021400

08000c30 <I2C_IsAcknowledgeFailed>:
 8000c30:	6801      	ldr	r1, [r0, #0]
 8000c32:	694b      	ldr	r3, [r1, #20]
 8000c34:	f413 6380 	ands.w	r3, r3, #1024	; 0x400
 8000c38:	f04f 0200 	mov.w	r2, #0
 8000c3c:	d010      	beq.n	8000c60 <I2C_IsAcknowledgeFailed+0x30>
 8000c3e:	f46f 6380 	mvn.w	r3, #1024	; 0x400
 8000c42:	614b      	str	r3, [r1, #20]
 8000c44:	2320      	movs	r3, #32
 8000c46:	6302      	str	r2, [r0, #48]	; 0x30
 8000c48:	f880 303d 	strb.w	r3, [r0, #61]	; 0x3d
 8000c4c:	f880 203e 	strb.w	r2, [r0, #62]	; 0x3e
 8000c50:	6c03      	ldr	r3, [r0, #64]	; 0x40
 8000c52:	f880 203c 	strb.w	r2, [r0, #60]	; 0x3c
 8000c56:	f043 0304 	orr.w	r3, r3, #4
 8000c5a:	6403      	str	r3, [r0, #64]	; 0x40
 8000c5c:	2001      	movs	r0, #1
 8000c5e:	4770      	bx	lr
 8000c60:	4618      	mov	r0, r3
 8000c62:	4770      	bx	lr

08000c64 <I2C_WaitOnMasterAddressFlagUntilTimeout>:
 8000c64:	e92d 41f0 	stmdb	sp!, {r4, r5, r6, r7, r8, lr}
 8000c68:	4604      	mov	r4, r0
 8000c6a:	4616      	mov	r6, r2
 8000c6c:	4698      	mov	r8, r3
 8000c6e:	b28f      	uxth	r7, r1
 8000c70:	6825      	ldr	r5, [r4, #0]
 8000c72:	6968      	ldr	r0, [r5, #20]
 8000c74:	ea37 0000 	bics.w	r0, r7, r0
 8000c78:	d017      	beq.n	8000caa <I2C_WaitOnMasterAddressFlagUntilTimeout+0x46>
 8000c7a:	696b      	ldr	r3, [r5, #20]
 8000c7c:	055a      	lsls	r2, r3, #21
 8000c7e:	d516      	bpl.n	8000cae <I2C_WaitOnMasterAddressFlagUntilTimeout+0x4a>
 8000c80:	682b      	ldr	r3, [r5, #0]
 8000c82:	f443 7300 	orr.w	r3, r3, #512	; 0x200
 8000c86:	602b      	str	r3, [r5, #0]
 8000c88:	f46f 6380 	mvn.w	r3, #1024	; 0x400
 8000c8c:	616b      	str	r3, [r5, #20]
 8000c8e:	2220      	movs	r2, #32
 8000c90:	2300      	movs	r3, #0
 8000c92:	6323      	str	r3, [r4, #48]	; 0x30
 8000c94:	f884 203d 	strb.w	r2, [r4, #61]	; 0x3d
 8000c98:	f884 303e 	strb.w	r3, [r4, #62]	; 0x3e
 8000c9c:	6c22      	ldr	r2, [r4, #64]	; 0x40
 8000c9e:	f042 0204 	orr.w	r2, r2, #4
 8000ca2:	6422      	str	r2, [r4, #64]	; 0x40
 8000ca4:	f884 303c 	strb.w	r3, [r4, #60]	; 0x3c
 8000ca8:	2001      	movs	r0, #1
 8000caa:	e8bd 81f0 	ldmia.w	sp!, {r4, r5, r6, r7, r8, pc}
 8000cae:	1c73      	adds	r3, r6, #1
 8000cb0:	d0df      	beq.n	8000c72 <I2C_WaitOnMasterAddressFlagUntilTimeout+0xe>
 8000cb2:	f7ff fe67 	bl	8000984 <HAL_GetTick>
 8000cb6:	eba0 0008 	sub.w	r0, r0, r8
 8000cba:	42b0      	cmp	r0, r6
 8000cbc:	d801      	bhi.n	8000cc2 <I2C_WaitOnMasterAddressFlagUntilTimeout+0x5e>
 8000cbe:	2e00      	cmp	r6, #0
 8000cc0:	d1d6      	bne.n	8000c70 <I2C_WaitOnMasterAddressFlagUntilTimeout+0xc>
 8000cc2:	2300      	movs	r3, #0
 8000cc4:	2220      	movs	r2, #32
 8000cc6:	6323      	str	r3, [r4, #48]	; 0x30
 8000cc8:	f884 203d 	strb.w	r2, [r4, #61]	; 0x3d
 8000ccc:	f884 303e 	strb.w	r3, [r4, #62]	; 0x3e
 8000cd0:	6c22      	ldr	r2, [r4, #64]	; 0x40
 8000cd2:	f042 0220 	orr.w	r2, r2, #32
 8000cd6:	e7e4      	b.n	8000ca2 <I2C_WaitOnMasterAddressFlagUntilTimeout+0x3e>

08000cd8 <I2C_WaitOnBTFFlagUntilTimeout>:
 8000cd8:	b570      	push	{r4, r5, r6, lr}
 8000cda:	4604      	mov	r4, r0
 8000cdc:	460d      	mov	r5, r1
 8000cde:	4616      	mov	r6, r2
 8000ce0:	6823      	ldr	r3, [r4, #0]
 8000ce2:	695b      	ldr	r3, [r3, #20]
 8000ce4:	075b      	lsls	r3, r3, #29
 8000ce6:	d501      	bpl.n	8000cec <I2C_WaitOnBTFFlagUntilTimeout+0x14>
 8000ce8:	2000      	movs	r0, #0
 8000cea:	bd70      	pop	{r4, r5, r6, pc}
 8000cec:	4620      	mov	r0, r4
 8000cee:	f7ff ff9f 	bl	8000c30 <I2C_IsAcknowledgeFailed>
 8000cf2:	b9a8      	cbnz	r0, 8000d20 <I2C_WaitOnBTFFlagUntilTimeout+0x48>
 8000cf4:	1c6a      	adds	r2, r5, #1
 8000cf6:	d0f3      	beq.n	8000ce0 <I2C_WaitOnBTFFlagUntilTimeout+0x8>
 8000cf8:	f7ff fe44 	bl	8000984 <HAL_GetTick>
 8000cfc:	1b80      	subs	r0, r0, r6
 8000cfe:	42a8      	cmp	r0, r5
 8000d00:	d801      	bhi.n	8000d06 <I2C_WaitOnBTFFlagUntilTimeout+0x2e>
 8000d02:	2d00      	cmp	r5, #0
 8000d04:	d1ec      	bne.n	8000ce0 <I2C_WaitOnBTFFlagUntilTimeout+0x8>
 8000d06:	2300      	movs	r3, #0
 8000d08:	2220      	movs	r2, #32
 8000d0a:	6323      	str	r3, [r4, #48]	; 0x30
 8000d0c:	f884 203d 	strb.w	r2, [r4, #61]	; 0x3d
 8000d10:	f884 303e 	strb.w	r3, [r4, #62]	; 0x3e
 8000d14:	6c22      	ldr	r2, [r4, #64]	; 0x40
 8000d16:	f884 303c 	strb.w	r3, [r4, #60]	; 0x3c
 8000d1a:	f042 0220 	orr.w	r2, r2, #32
 8000d1e:	6422      	str	r2, [r4, #64]	; 0x40
 8000d20:	2001      	movs	r0, #1
 8000d22:	e7e2      	b.n	8000cea <I2C_WaitOnBTFFlagUntilTimeout+0x12>

08000d24 <I2C_WaitOnFlagUntilTimeout>:
 8000d24:	e92d 43f8 	stmdb	sp!, {r3, r4, r5, r6, r7, r8, r9, lr}
 8000d28:	9e08      	ldr	r6, [sp, #32]
 8000d2a:	4604      	mov	r4, r0
 8000d2c:	4690      	mov	r8, r2
 8000d2e:	461f      	mov	r7, r3
 8000d30:	ea4f 4911 	mov.w	r9, r1, lsr #16
 8000d34:	b28d      	uxth	r5, r1
 8000d36:	6821      	ldr	r1, [r4, #0]
 8000d38:	f1b9 0f01 	cmp.w	r9, #1
 8000d3c:	bf0c      	ite	eq
 8000d3e:	694b      	ldreq	r3, [r1, #20]
 8000d40:	698b      	ldrne	r3, [r1, #24]
 8000d42:	ea35 0303 	bics.w	r3, r5, r3
 8000d46:	bf0c      	ite	eq
 8000d48:	2301      	moveq	r3, #1
 8000d4a:	2300      	movne	r3, #0
 8000d4c:	4598      	cmp	r8, r3
 8000d4e:	d001      	beq.n	8000d54 <I2C_WaitOnFlagUntilTimeout+0x30>
 8000d50:	2000      	movs	r0, #0
 8000d52:	e016      	b.n	8000d82 <I2C_WaitOnFlagUntilTimeout+0x5e>
 8000d54:	1c7b      	adds	r3, r7, #1
 8000d56:	d0ef      	beq.n	8000d38 <I2C_WaitOnFlagUntilTimeout+0x14>
 8000d58:	f7ff fe14 	bl	8000984 <HAL_GetTick>
 8000d5c:	1b80      	subs	r0, r0, r6
 8000d5e:	42b8      	cmp	r0, r7
 8000d60:	d801      	bhi.n	8000d66 <I2C_WaitOnFlagUntilTimeout+0x42>
 8000d62:	2f00      	cmp	r7, #0
 8000d64:	d1e7      	bne.n	8000d36 <I2C_WaitOnFlagUntilTimeout+0x12>
 8000d66:	2300      	movs	r3, #0
 8000d68:	2220      	movs	r2, #32
 8000d6a:	6323      	str	r3, [r4, #48]	; 0x30
 8000d6c:	f884 203d 	strb.w	r2, [r4, #61]	; 0x3d
 8000d70:	f884 303e 	strb.w	r3, [r4, #62]	; 0x3e
 8000d74:	6c22      	ldr	r2, [r4, #64]	; 0x40
 8000d76:	f884 303c 	strb.w	r3, [r4, #60]	; 0x3c
 8000d7a:	f042 0220 	orr.w	r2, r2, #32
 8000d7e:	6422      	str	r2, [r4, #64]	; 0x40
 8000d80:	2001      	movs	r0, #1
 8000d82:	e8bd 83f8 	ldmia.w	sp!, {r3, r4, r5, r6, r7, r8, r9, pc}

08000d86 <I2C_WaitOnTXEFlagUntilTimeout>:
 8000d86:	b570      	push	{r4, r5, r6, lr}
 8000d88:	4604      	mov	r4, r0
 8000d8a:	460d      	mov	r5, r1
 8000d8c:	4616      	mov	r6, r2
 8000d8e:	6823      	ldr	r3, [r4, #0]
 8000d90:	695b      	ldr	r3, [r3, #20]
 8000d92:	061b      	lsls	r3, r3, #24
 8000d94:	d501      	bpl.n	8000d9a <I2C_WaitOnTXEFlagUntilTimeout+0x14>
 8000d96:	2000      	movs	r0, #0
 8000d98:	bd70      	pop	{r4, r5, r6, pc}
 8000d9a:	4620      	mov	r0, r4
 8000d9c:	f7ff ff48 	bl	8000c30 <I2C_IsAcknowledgeFailed>
 8000da0:	b9a8      	cbnz	r0, 8000dce <I2C_WaitOnTXEFlagUntilTimeout+0x48>
 8000da2:	1c6a      	adds	r2, r5, #1
 8000da4:	d0f3      	beq.n	8000d8e <I2C_WaitOnTXEFlagUntilTimeout+0x8>
 8000da6:	f7ff fded 	bl	8000984 <HAL_GetTick>
 8000daa:	1b80      	subs	r0, r0, r6
 8000dac:	42a8      	cmp	r0, r5
 8000dae:	d801      	bhi.n	8000db4 <I2C_WaitOnTXEFlagUntilTimeout+0x2e>
 8000db0:	2d00      	cmp	r5, #0
 8000db2:	d1ec      	bne.n	8000d8e <I2C_WaitOnTXEFlagUntilTimeout+0x8>
 8000db4:	2300      	movs	r3, #0
 8000db6:	2220      	movs	r2, #32
 8000db8:	6323      	str	r3, [r4, #48]	; 0x30
 8000dba:	f884 203d 	strb.w	r2, [r4, #61]	; 0x3d
 8000dbe:	f884 303e 	strb.w	r3, [r4, #62]	; 0x3e
 8000dc2:	6c22      	ldr	r2, [r4, #64]	; 0x40
 8000dc4:	f884 303c 	strb.w	r3, [r4, #60]	; 0x3c
 8000dc8:	f042 0220 	orr.w	r2, r2, #32
 8000dcc:	6422      	str	r2, [r4, #64]	; 0x40
 8000dce:	2001      	movs	r0, #1
 8000dd0:	e7e2      	b.n	8000d98 <I2C_WaitOnTXEFlagUntilTimeout+0x12>
	...

08000dd4 <HAL_I2C_Init>:
 8000dd4:	b570      	push	{r4, r5, r6, lr}
 8000dd6:	4604      	mov	r4, r0
 8000dd8:	b908      	cbnz	r0, 8000dde <HAL_I2C_Init+0xa>
 8000dda:	2001      	movs	r0, #1
 8000ddc:	bd70      	pop	{r4, r5, r6, pc}
 8000dde:	f890 303d 	ldrb.w	r3, [r0, #61]	; 0x3d
 8000de2:	f003 02ff 	and.w	r2, r3, #255	; 0xff
 8000de6:	b91b      	cbnz	r3, 8000df0 <HAL_I2C_Init+0x1c>
 8000de8:	f880 203c 	strb.w	r2, [r0, #60]	; 0x3c
 8000dec:	f7ff fbb0 	bl	8000550 <HAL_I2C_MspInit>
 8000df0:	2324      	movs	r3, #36	; 0x24
 8000df2:	f884 303d 	strb.w	r3, [r4, #61]	; 0x3d
 8000df6:	6823      	ldr	r3, [r4, #0]
 8000df8:	681a      	ldr	r2, [r3, #0]
 8000dfa:	f022 0201 	bic.w	r2, r2, #1
 8000dfe:	601a      	str	r2, [r3, #0]
 8000e00:	681a      	ldr	r2, [r3, #0]
 8000e02:	f442 4200 	orr.w	r2, r2, #32768	; 0x8000
 8000e06:	601a      	str	r2, [r3, #0]
 8000e08:	681a      	ldr	r2, [r3, #0]
 8000e0a:	f422 4200 	bic.w	r2, r2, #32768	; 0x8000
 8000e0e:	601a      	str	r2, [r3, #0]
 8000e10:	f000 fbce 	bl	80015b0 <HAL_RCC_GetPCLK1Freq>
 8000e14:	6863      	ldr	r3, [r4, #4]
 8000e16:	4a41      	ldr	r2, [pc, #260]	; (8000f1c <HAL_I2C_Init+0x148>)
 8000e18:	4293      	cmp	r3, r2
 8000e1a:	d84d      	bhi.n	8000eb8 <HAL_I2C_Init+0xe4>
 8000e1c:	4a40      	ldr	r2, [pc, #256]	; (8000f20 <HAL_I2C_Init+0x14c>)
 8000e1e:	4290      	cmp	r0, r2
 8000e20:	d9db      	bls.n	8000dda <HAL_I2C_Init+0x6>
 8000e22:	6822      	ldr	r2, [r4, #0]
 8000e24:	493f      	ldr	r1, [pc, #252]	; (8000f24 <HAL_I2C_Init+0x150>)
 8000e26:	6855      	ldr	r5, [r2, #4]
 8000e28:	fbb0 f1f1 	udiv	r1, r0, r1
 8000e2c:	f025 053f 	bic.w	r5, r5, #63	; 0x3f
 8000e30:	430d      	orrs	r5, r1
 8000e32:	6055      	str	r5, [r2, #4]
 8000e34:	6a15      	ldr	r5, [r2, #32]
 8000e36:	f025 053f 	bic.w	r5, r5, #63	; 0x3f
 8000e3a:	3101      	adds	r1, #1
 8000e3c:	4329      	orrs	r1, r5
 8000e3e:	6211      	str	r1, [r2, #32]
 8000e40:	69d1      	ldr	r1, [r2, #28]
 8000e42:	4d36      	ldr	r5, [pc, #216]	; (8000f1c <HAL_I2C_Init+0x148>)
 8000e44:	f421 414f 	bic.w	r1, r1, #52992	; 0xcf00
 8000e48:	42ab      	cmp	r3, r5
 8000e4a:	f021 01ff 	bic.w	r1, r1, #255	; 0xff
 8000e4e:	f100 30ff 	add.w	r0, r0, #4294967295
 8000e52:	d848      	bhi.n	8000ee6 <HAL_I2C_Init+0x112>
 8000e54:	005b      	lsls	r3, r3, #1
 8000e56:	fbb0 f0f3 	udiv	r0, r0, r3
 8000e5a:	1c43      	adds	r3, r0, #1
 8000e5c:	f3c3 030b 	ubfx	r3, r3, #0, #12
 8000e60:	2b04      	cmp	r3, #4
 8000e62:	bf38      	it	cc
 8000e64:	2304      	movcc	r3, #4
 8000e66:	430b      	orrs	r3, r1
 8000e68:	61d3      	str	r3, [r2, #28]
 8000e6a:	e9d4 3007 	ldrd	r3, r0, [r4, #28]
 8000e6e:	6811      	ldr	r1, [r2, #0]
 8000e70:	4303      	orrs	r3, r0
 8000e72:	f021 01c0 	bic.w	r1, r1, #192	; 0xc0
 8000e76:	430b      	orrs	r3, r1
 8000e78:	6013      	str	r3, [r2, #0]
 8000e7a:	6891      	ldr	r1, [r2, #8]
 8000e7c:	e9d4 0303 	ldrd	r0, r3, [r4, #12]
 8000e80:	f421 4103 	bic.w	r1, r1, #33536	; 0x8300
 8000e84:	4303      	orrs	r3, r0
 8000e86:	f021 01ff 	bic.w	r1, r1, #255	; 0xff
 8000e8a:	430b      	orrs	r3, r1
 8000e8c:	6093      	str	r3, [r2, #8]
 8000e8e:	e9d4 3005 	ldrd	r3, r0, [r4, #20]
 8000e92:	68d1      	ldr	r1, [r2, #12]
 8000e94:	4303      	orrs	r3, r0
 8000e96:	f021 01ff 	bic.w	r1, r1, #255	; 0xff
 8000e9a:	430b      	orrs	r3, r1
 8000e9c:	60d3      	str	r3, [r2, #12]
 8000e9e:	6813      	ldr	r3, [r2, #0]
 8000ea0:	f043 0301 	orr.w	r3, r3, #1
 8000ea4:	6013      	str	r3, [r2, #0]
 8000ea6:	2000      	movs	r0, #0
 8000ea8:	2320      	movs	r3, #32
 8000eaa:	6420      	str	r0, [r4, #64]	; 0x40
 8000eac:	f884 303d 	strb.w	r3, [r4, #61]	; 0x3d
 8000eb0:	6320      	str	r0, [r4, #48]	; 0x30
 8000eb2:	f884 003e 	strb.w	r0, [r4, #62]	; 0x3e
 8000eb6:	e791      	b.n	8000ddc <HAL_I2C_Init+0x8>
 8000eb8:	4a1b      	ldr	r2, [pc, #108]	; (8000f28 <HAL_I2C_Init+0x154>)
 8000eba:	4290      	cmp	r0, r2
 8000ebc:	d98d      	bls.n	8000dda <HAL_I2C_Init+0x6>
 8000ebe:	6822      	ldr	r2, [r4, #0]
 8000ec0:	4e18      	ldr	r6, [pc, #96]	; (8000f24 <HAL_I2C_Init+0x150>)
 8000ec2:	6855      	ldr	r5, [r2, #4]
 8000ec4:	fbb0 f6f6 	udiv	r6, r0, r6
 8000ec8:	f025 053f 	bic.w	r5, r5, #63	; 0x3f
 8000ecc:	4335      	orrs	r5, r6
 8000ece:	6055      	str	r5, [r2, #4]
 8000ed0:	6a15      	ldr	r5, [r2, #32]
 8000ed2:	f44f 7196 	mov.w	r1, #300	; 0x12c
 8000ed6:	4371      	muls	r1, r6
 8000ed8:	f025 053f 	bic.w	r5, r5, #63	; 0x3f
 8000edc:	f44f 767a 	mov.w	r6, #1000	; 0x3e8
 8000ee0:	fbb1 f1f6 	udiv	r1, r1, r6
 8000ee4:	e7a9      	b.n	8000e3a <HAL_I2C_Init+0x66>
 8000ee6:	68a5      	ldr	r5, [r4, #8]
 8000ee8:	b955      	cbnz	r5, 8000f00 <HAL_I2C_Init+0x12c>
 8000eea:	eb03 0343 	add.w	r3, r3, r3, lsl #1
 8000eee:	fbb0 f0f3 	udiv	r0, r0, r3
 8000ef2:	1c43      	adds	r3, r0, #1
 8000ef4:	f3c3 030b 	ubfx	r3, r3, #0, #12
 8000ef8:	b16b      	cbz	r3, 8000f16 <HAL_I2C_Init+0x142>
 8000efa:	f443 4300 	orr.w	r3, r3, #32768	; 0x8000
 8000efe:	e7b2      	b.n	8000e66 <HAL_I2C_Init+0x92>
 8000f00:	2519      	movs	r5, #25
 8000f02:	436b      	muls	r3, r5
 8000f04:	fbb0 f0f3 	udiv	r0, r0, r3
 8000f08:	1c43      	adds	r3, r0, #1
 8000f0a:	f3c3 030b 	ubfx	r3, r3, #0, #12
 8000f0e:	b113      	cbz	r3, 8000f16 <HAL_I2C_Init+0x142>
 8000f10:	f443 4340 	orr.w	r3, r3, #49152	; 0xc000
 8000f14:	e7a7      	b.n	8000e66 <HAL_I2C_Init+0x92>
 8000f16:	2301      	movs	r3, #1
 8000f18:	e7a5      	b.n	8000e66 <HAL_I2C_Init+0x92>
 8000f1a:	bf00      	nop
 8000f1c:	000186a0 	.word	0x000186a0
 8000f20:	001e847f 	.word	0x001e847f
 8000f24:	000f4240 	.word	0x000f4240
 8000f28:	003d08ff 	.word	0x003d08ff

08000f2c <HAL_I2C_Master_Transmit>:
 8000f2c:	e92d 41ff 	stmdb	sp!, {r0, r1, r2, r3, r4, r5, r6, r7, r8, lr}
 8000f30:	4604      	mov	r4, r0
 8000f32:	461f      	mov	r7, r3
 8000f34:	460d      	mov	r5, r1
 8000f36:	4690      	mov	r8, r2
 8000f38:	f7ff fd24 	bl	8000984 <HAL_GetTick>
 8000f3c:	f894 303d 	ldrb.w	r3, [r4, #61]	; 0x3d
 8000f40:	2b20      	cmp	r3, #32
 8000f42:	4606      	mov	r6, r0
 8000f44:	d004      	beq.n	8000f50 <HAL_I2C_Master_Transmit+0x24>
 8000f46:	2502      	movs	r5, #2
 8000f48:	4628      	mov	r0, r5
 8000f4a:	b004      	add	sp, #16
 8000f4c:	e8bd 81f0 	ldmia.w	sp!, {r4, r5, r6, r7, r8, pc}
 8000f50:	9000      	str	r0, [sp, #0]
 8000f52:	2319      	movs	r3, #25
 8000f54:	2201      	movs	r2, #1
 8000f56:	495b      	ldr	r1, [pc, #364]	; (80010c4 <HAL_I2C_Master_Transmit+0x198>)
 8000f58:	4620      	mov	r0, r4
 8000f5a:	f7ff fee3 	bl	8000d24 <I2C_WaitOnFlagUntilTimeout>
 8000f5e:	2800      	cmp	r0, #0
 8000f60:	d1f1      	bne.n	8000f46 <HAL_I2C_Master_Transmit+0x1a>
 8000f62:	f894 303c 	ldrb.w	r3, [r4, #60]	; 0x3c
 8000f66:	2b01      	cmp	r3, #1
 8000f68:	d0ed      	beq.n	8000f46 <HAL_I2C_Master_Transmit+0x1a>
 8000f6a:	2301      	movs	r3, #1
 8000f6c:	f884 303c 	strb.w	r3, [r4, #60]	; 0x3c
 8000f70:	6823      	ldr	r3, [r4, #0]
 8000f72:	681a      	ldr	r2, [r3, #0]
 8000f74:	07d2      	lsls	r2, r2, #31
 8000f76:	bf5e      	ittt	pl
 8000f78:	681a      	ldrpl	r2, [r3, #0]
 8000f7a:	f042 0201 	orrpl.w	r2, r2, #1
 8000f7e:	601a      	strpl	r2, [r3, #0]
 8000f80:	681a      	ldr	r2, [r3, #0]
 8000f82:	f422 6200 	bic.w	r2, r2, #2048	; 0x800
 8000f86:	601a      	str	r2, [r3, #0]
 8000f88:	2221      	movs	r2, #33	; 0x21
 8000f8a:	f884 203d 	strb.w	r2, [r4, #61]	; 0x3d
 8000f8e:	2210      	movs	r2, #16
 8000f90:	f884 203e 	strb.w	r2, [r4, #62]	; 0x3e
 8000f94:	2200      	movs	r2, #0
 8000f96:	6422      	str	r2, [r4, #64]	; 0x40
 8000f98:	8567      	strh	r7, [r4, #42]	; 0x2a
 8000f9a:	8d62      	ldrh	r2, [r4, #42]	; 0x2a
 8000f9c:	8522      	strh	r2, [r4, #40]	; 0x28
 8000f9e:	4a4a      	ldr	r2, [pc, #296]	; (80010c8 <HAL_I2C_Master_Transmit+0x19c>)
 8000fa0:	62e2      	str	r2, [r4, #44]	; 0x2c
 8000fa2:	6ae2      	ldr	r2, [r4, #44]	; 0x2c
 8000fa4:	f8c4 8024 	str.w	r8, [r4, #36]	; 0x24
 8000fa8:	2a08      	cmp	r2, #8
 8000faa:	d004      	beq.n	8000fb6 <HAL_I2C_Master_Transmit+0x8a>
 8000fac:	2a01      	cmp	r2, #1
 8000fae:	d002      	beq.n	8000fb6 <HAL_I2C_Master_Transmit+0x8a>
 8000fb0:	f512 3f80 	cmn.w	r2, #65536	; 0x10000
 8000fb4:	d104      	bne.n	8000fc0 <HAL_I2C_Master_Transmit+0x94>
 8000fb6:	681a      	ldr	r2, [r3, #0]
 8000fb8:	f442 7280 	orr.w	r2, r2, #256	; 0x100
 8000fbc:	601a      	str	r2, [r3, #0]
 8000fbe:	e002      	b.n	8000fc6 <HAL_I2C_Master_Transmit+0x9a>
 8000fc0:	6b22      	ldr	r2, [r4, #48]	; 0x30
 8000fc2:	2a12      	cmp	r2, #18
 8000fc4:	d0f7      	beq.n	8000fb6 <HAL_I2C_Master_Transmit+0x8a>
 8000fc6:	2200      	movs	r2, #0
 8000fc8:	9600      	str	r6, [sp, #0]
 8000fca:	9b0a      	ldr	r3, [sp, #40]	; 0x28
 8000fcc:	f04f 1101 	mov.w	r1, #65537	; 0x10001
 8000fd0:	4620      	mov	r0, r4
 8000fd2:	f7ff fea7 	bl	8000d24 <I2C_WaitOnFlagUntilTimeout>
 8000fd6:	6822      	ldr	r2, [r4, #0]
 8000fd8:	b138      	cbz	r0, 8000fea <HAL_I2C_Master_Transmit+0xbe>
 8000fda:	6813      	ldr	r3, [r2, #0]
 8000fdc:	05db      	lsls	r3, r3, #23
 8000fde:	bf44      	itt	mi
 8000fe0:	f44f 7300 	movmi.w	r3, #512	; 0x200
 8000fe4:	6423      	strmi	r3, [r4, #64]	; 0x40
 8000fe6:	2501      	movs	r5, #1
 8000fe8:	e7ae      	b.n	8000f48 <HAL_I2C_Master_Transmit+0x1c>
 8000fea:	6923      	ldr	r3, [r4, #16]
 8000fec:	f5b3 4f80 	cmp.w	r3, #16384	; 0x4000
 8000ff0:	d121      	bne.n	8001036 <HAL_I2C_Master_Transmit+0x10a>
 8000ff2:	f005 05fe 	and.w	r5, r5, #254	; 0xfe
 8000ff6:	6115      	str	r5, [r2, #16]
 8000ff8:	4633      	mov	r3, r6
 8000ffa:	9a0a      	ldr	r2, [sp, #40]	; 0x28
 8000ffc:	4933      	ldr	r1, [pc, #204]	; (80010cc <HAL_I2C_Master_Transmit+0x1a0>)
 8000ffe:	4620      	mov	r0, r4
 8001000:	f7ff fe30 	bl	8000c64 <I2C_WaitOnMasterAddressFlagUntilTimeout>
 8001004:	4605      	mov	r5, r0
 8001006:	2800      	cmp	r0, #0
 8001008:	d1ed      	bne.n	8000fe6 <HAL_I2C_Master_Transmit+0xba>
 800100a:	6823      	ldr	r3, [r4, #0]
 800100c:	9003      	str	r0, [sp, #12]
 800100e:	695a      	ldr	r2, [r3, #20]
 8001010:	9203      	str	r2, [sp, #12]
 8001012:	699b      	ldr	r3, [r3, #24]
 8001014:	9303      	str	r3, [sp, #12]
 8001016:	9b03      	ldr	r3, [sp, #12]
 8001018:	8d23      	ldrh	r3, [r4, #40]	; 0x28
 800101a:	b9f3      	cbnz	r3, 800105a <HAL_I2C_Master_Transmit+0x12e>
 800101c:	6821      	ldr	r1, [r4, #0]
 800101e:	680a      	ldr	r2, [r1, #0]
 8001020:	f442 7200 	orr.w	r2, r2, #512	; 0x200
 8001024:	600a      	str	r2, [r1, #0]
 8001026:	2220      	movs	r2, #32
 8001028:	f884 203d 	strb.w	r2, [r4, #61]	; 0x3d
 800102c:	f884 303c 	strb.w	r3, [r4, #60]	; 0x3c
 8001030:	f884 303e 	strb.w	r3, [r4, #62]	; 0x3e
 8001034:	e788      	b.n	8000f48 <HAL_I2C_Master_Transmit+0x1c>
 8001036:	11eb      	asrs	r3, r5, #7
 8001038:	f003 0306 	and.w	r3, r3, #6
 800103c:	f043 03f0 	orr.w	r3, r3, #240	; 0xf0
 8001040:	6113      	str	r3, [r2, #16]
 8001042:	4923      	ldr	r1, [pc, #140]	; (80010d0 <HAL_I2C_Master_Transmit+0x1a4>)
 8001044:	9a0a      	ldr	r2, [sp, #40]	; 0x28
 8001046:	4633      	mov	r3, r6
 8001048:	4620      	mov	r0, r4
 800104a:	f7ff fe0b 	bl	8000c64 <I2C_WaitOnMasterAddressFlagUntilTimeout>
 800104e:	2800      	cmp	r0, #0
 8001050:	d1c9      	bne.n	8000fe6 <HAL_I2C_Master_Transmit+0xba>
 8001052:	6823      	ldr	r3, [r4, #0]
 8001054:	b2ed      	uxtb	r5, r5
 8001056:	611d      	str	r5, [r3, #16]
 8001058:	e7ce      	b.n	8000ff8 <HAL_I2C_Master_Transmit+0xcc>
 800105a:	4632      	mov	r2, r6
 800105c:	990a      	ldr	r1, [sp, #40]	; 0x28
 800105e:	4620      	mov	r0, r4
 8001060:	f7ff fe91 	bl	8000d86 <I2C_WaitOnTXEFlagUntilTimeout>
 8001064:	b140      	cbz	r0, 8001078 <HAL_I2C_Master_Transmit+0x14c>
 8001066:	6c23      	ldr	r3, [r4, #64]	; 0x40
 8001068:	2b04      	cmp	r3, #4
 800106a:	d1bc      	bne.n	8000fe6 <HAL_I2C_Master_Transmit+0xba>
 800106c:	6822      	ldr	r2, [r4, #0]
 800106e:	6813      	ldr	r3, [r2, #0]
 8001070:	f443 7300 	orr.w	r3, r3, #512	; 0x200
 8001074:	6013      	str	r3, [r2, #0]
 8001076:	e7b6      	b.n	8000fe6 <HAL_I2C_Master_Transmit+0xba>
 8001078:	6a63      	ldr	r3, [r4, #36]	; 0x24
 800107a:	6820      	ldr	r0, [r4, #0]
 800107c:	461a      	mov	r2, r3
 800107e:	f812 1b01 	ldrb.w	r1, [r2], #1
 8001082:	6101      	str	r1, [r0, #16]
 8001084:	6262      	str	r2, [r4, #36]	; 0x24
 8001086:	8d62      	ldrh	r2, [r4, #42]	; 0x2a
 8001088:	3a01      	subs	r2, #1
 800108a:	b292      	uxth	r2, r2
 800108c:	8562      	strh	r2, [r4, #42]	; 0x2a
 800108e:	8d22      	ldrh	r2, [r4, #40]	; 0x28
 8001090:	6947      	ldr	r7, [r0, #20]
 8001092:	1e51      	subs	r1, r2, #1
 8001094:	b289      	uxth	r1, r1
 8001096:	077f      	lsls	r7, r7, #29
 8001098:	8521      	strh	r1, [r4, #40]	; 0x28
 800109a:	d50a      	bpl.n	80010b2 <HAL_I2C_Master_Transmit+0x186>
 800109c:	b149      	cbz	r1, 80010b2 <HAL_I2C_Master_Transmit+0x186>
 800109e:	7859      	ldrb	r1, [r3, #1]
 80010a0:	6101      	str	r1, [r0, #16]
 80010a2:	3302      	adds	r3, #2
 80010a4:	6263      	str	r3, [r4, #36]	; 0x24
 80010a6:	8d63      	ldrh	r3, [r4, #42]	; 0x2a
 80010a8:	3b01      	subs	r3, #1
 80010aa:	b29b      	uxth	r3, r3
 80010ac:	3a02      	subs	r2, #2
 80010ae:	8563      	strh	r3, [r4, #42]	; 0x2a
 80010b0:	8522      	strh	r2, [r4, #40]	; 0x28
 80010b2:	4632      	mov	r2, r6
 80010b4:	990a      	ldr	r1, [sp, #40]	; 0x28
 80010b6:	4620      	mov	r0, r4
 80010b8:	f7ff fe0e 	bl	8000cd8 <I2C_WaitOnBTFFlagUntilTimeout>
 80010bc:	2800      	cmp	r0, #0
 80010be:	d0ab      	beq.n	8001018 <HAL_I2C_Master_Transmit+0xec>
 80010c0:	e7d1      	b.n	8001066 <HAL_I2C_Master_Transmit+0x13a>
 80010c2:	bf00      	nop
 80010c4:	00100002 	.word	0x00100002
 80010c8:	ffff0000 	.word	0xffff0000
 80010cc:	00010002 	.word	0x00010002
 80010d0:	00010008 	.word	0x00010008

080010d4 <HAL_RCC_OscConfig>:
 80010d4:	e92d 41f3 	stmdb	sp!, {r0, r1, r4, r5, r6, r7, r8, lr}
 80010d8:	4604      	mov	r4, r0
 80010da:	b908      	cbnz	r0, 80010e0 <HAL_RCC_OscConfig+0xc>
 80010dc:	2001      	movs	r0, #1
 80010de:	e03f      	b.n	8001160 <HAL_RCC_OscConfig+0x8c>
 80010e0:	6803      	ldr	r3, [r0, #0]
 80010e2:	07dd      	lsls	r5, r3, #31
 80010e4:	d410      	bmi.n	8001108 <HAL_RCC_OscConfig+0x34>
 80010e6:	6823      	ldr	r3, [r4, #0]
 80010e8:	0798      	lsls	r0, r3, #30
 80010ea:	d45a      	bmi.n	80011a2 <HAL_RCC_OscConfig+0xce>
 80010ec:	6823      	ldr	r3, [r4, #0]
 80010ee:	071a      	lsls	r2, r3, #28
 80010f0:	f100 809c 	bmi.w	800122c <HAL_RCC_OscConfig+0x158>
 80010f4:	6823      	ldr	r3, [r4, #0]
 80010f6:	075b      	lsls	r3, r3, #29
 80010f8:	f100 80ba 	bmi.w	8001270 <HAL_RCC_OscConfig+0x19c>
 80010fc:	69a0      	ldr	r0, [r4, #24]
 80010fe:	2800      	cmp	r0, #0
 8001100:	f040 811b 	bne.w	800133a <HAL_RCC_OscConfig+0x266>
 8001104:	2000      	movs	r0, #0
 8001106:	e02b      	b.n	8001160 <HAL_RCC_OscConfig+0x8c>
 8001108:	4ba7      	ldr	r3, [pc, #668]	; (80013a8 <HAL_RCC_OscConfig+0x2d4>)
 800110a:	689a      	ldr	r2, [r3, #8]
 800110c:	f002 020c 	and.w	r2, r2, #12
 8001110:	2a04      	cmp	r2, #4
 8001112:	d007      	beq.n	8001124 <HAL_RCC_OscConfig+0x50>
 8001114:	689a      	ldr	r2, [r3, #8]
 8001116:	f002 020c 	and.w	r2, r2, #12
 800111a:	2a08      	cmp	r2, #8
 800111c:	d10a      	bne.n	8001134 <HAL_RCC_OscConfig+0x60>
 800111e:	685b      	ldr	r3, [r3, #4]
 8001120:	0259      	lsls	r1, r3, #9
 8001122:	d507      	bpl.n	8001134 <HAL_RCC_OscConfig+0x60>
 8001124:	4ba0      	ldr	r3, [pc, #640]	; (80013a8 <HAL_RCC_OscConfig+0x2d4>)
 8001126:	681b      	ldr	r3, [r3, #0]
 8001128:	039a      	lsls	r2, r3, #14
 800112a:	d5dc      	bpl.n	80010e6 <HAL_RCC_OscConfig+0x12>
 800112c:	6863      	ldr	r3, [r4, #4]
 800112e:	2b00      	cmp	r3, #0
 8001130:	d1d9      	bne.n	80010e6 <HAL_RCC_OscConfig+0x12>
 8001132:	e7d3      	b.n	80010dc <HAL_RCC_OscConfig+0x8>
 8001134:	6863      	ldr	r3, [r4, #4]
 8001136:	4d9c      	ldr	r5, [pc, #624]	; (80013a8 <HAL_RCC_OscConfig+0x2d4>)
 8001138:	f5b3 3f80 	cmp.w	r3, #65536	; 0x10000
 800113c:	d113      	bne.n	8001166 <HAL_RCC_OscConfig+0x92>
 800113e:	682b      	ldr	r3, [r5, #0]
 8001140:	f443 3380 	orr.w	r3, r3, #65536	; 0x10000
 8001144:	602b      	str	r3, [r5, #0]
 8001146:	f7ff fc1d 	bl	8000984 <HAL_GetTick>
 800114a:	4d97      	ldr	r5, [pc, #604]	; (80013a8 <HAL_RCC_OscConfig+0x2d4>)
 800114c:	4606      	mov	r6, r0
 800114e:	682b      	ldr	r3, [r5, #0]
 8001150:	039b      	lsls	r3, r3, #14
 8001152:	d4c8      	bmi.n	80010e6 <HAL_RCC_OscConfig+0x12>
 8001154:	f7ff fc16 	bl	8000984 <HAL_GetTick>
 8001158:	1b80      	subs	r0, r0, r6
 800115a:	2864      	cmp	r0, #100	; 0x64
 800115c:	d9f7      	bls.n	800114e <HAL_RCC_OscConfig+0x7a>
 800115e:	2003      	movs	r0, #3
 8001160:	b002      	add	sp, #8
 8001162:	e8bd 81f0 	ldmia.w	sp!, {r4, r5, r6, r7, r8, pc}
 8001166:	f5b3 2fa0 	cmp.w	r3, #327680	; 0x50000
 800116a:	d104      	bne.n	8001176 <HAL_RCC_OscConfig+0xa2>
 800116c:	682b      	ldr	r3, [r5, #0]
 800116e:	f443 2380 	orr.w	r3, r3, #262144	; 0x40000
 8001172:	602b      	str	r3, [r5, #0]
 8001174:	e7e3      	b.n	800113e <HAL_RCC_OscConfig+0x6a>
 8001176:	682a      	ldr	r2, [r5, #0]
 8001178:	f422 3280 	bic.w	r2, r2, #65536	; 0x10000
 800117c:	602a      	str	r2, [r5, #0]
 800117e:	682a      	ldr	r2, [r5, #0]
 8001180:	f422 2280 	bic.w	r2, r2, #262144	; 0x40000
 8001184:	602a      	str	r2, [r5, #0]
 8001186:	2b00      	cmp	r3, #0
 8001188:	d1dd      	bne.n	8001146 <HAL_RCC_OscConfig+0x72>
 800118a:	f7ff fbfb 	bl	8000984 <HAL_GetTick>
 800118e:	4606      	mov	r6, r0
 8001190:	682b      	ldr	r3, [r5, #0]
 8001192:	039f      	lsls	r7, r3, #14
 8001194:	d5a7      	bpl.n	80010e6 <HAL_RCC_OscConfig+0x12>
 8001196:	f7ff fbf5 	bl	8000984 <HAL_GetTick>
 800119a:	1b80      	subs	r0, r0, r6
 800119c:	2864      	cmp	r0, #100	; 0x64
 800119e:	d9f7      	bls.n	8001190 <HAL_RCC_OscConfig+0xbc>
 80011a0:	e7dd      	b.n	800115e <HAL_RCC_OscConfig+0x8a>
 80011a2:	4b81      	ldr	r3, [pc, #516]	; (80013a8 <HAL_RCC_OscConfig+0x2d4>)
 80011a4:	689a      	ldr	r2, [r3, #8]
 80011a6:	f012 0f0c 	tst.w	r2, #12
 80011aa:	d007      	beq.n	80011bc <HAL_RCC_OscConfig+0xe8>
 80011ac:	689a      	ldr	r2, [r3, #8]
 80011ae:	f002 020c 	and.w	r2, r2, #12
 80011b2:	2a08      	cmp	r2, #8
 80011b4:	d111      	bne.n	80011da <HAL_RCC_OscConfig+0x106>
 80011b6:	685b      	ldr	r3, [r3, #4]
 80011b8:	025e      	lsls	r6, r3, #9
 80011ba:	d40e      	bmi.n	80011da <HAL_RCC_OscConfig+0x106>
 80011bc:	4b7a      	ldr	r3, [pc, #488]	; (80013a8 <HAL_RCC_OscConfig+0x2d4>)
 80011be:	681a      	ldr	r2, [r3, #0]
 80011c0:	0795      	lsls	r5, r2, #30
 80011c2:	d502      	bpl.n	80011ca <HAL_RCC_OscConfig+0xf6>
 80011c4:	68e2      	ldr	r2, [r4, #12]
 80011c6:	2a01      	cmp	r2, #1
 80011c8:	d188      	bne.n	80010dc <HAL_RCC_OscConfig+0x8>
 80011ca:	681a      	ldr	r2, [r3, #0]
 80011cc:	6921      	ldr	r1, [r4, #16]
 80011ce:	f022 02f8 	bic.w	r2, r2, #248	; 0xf8
 80011d2:	ea42 02c1 	orr.w	r2, r2, r1, lsl #3
 80011d6:	601a      	str	r2, [r3, #0]
 80011d8:	e788      	b.n	80010ec <HAL_RCC_OscConfig+0x18>
 80011da:	68e2      	ldr	r2, [r4, #12]
 80011dc:	4b73      	ldr	r3, [pc, #460]	; (80013ac <HAL_RCC_OscConfig+0x2d8>)
 80011de:	b1b2      	cbz	r2, 800120e <HAL_RCC_OscConfig+0x13a>
 80011e0:	2201      	movs	r2, #1
 80011e2:	601a      	str	r2, [r3, #0]
 80011e4:	f7ff fbce 	bl	8000984 <HAL_GetTick>
 80011e8:	4d6f      	ldr	r5, [pc, #444]	; (80013a8 <HAL_RCC_OscConfig+0x2d4>)
 80011ea:	4606      	mov	r6, r0
 80011ec:	682b      	ldr	r3, [r5, #0]
 80011ee:	0798      	lsls	r0, r3, #30
 80011f0:	d507      	bpl.n	8001202 <HAL_RCC_OscConfig+0x12e>
 80011f2:	682b      	ldr	r3, [r5, #0]
 80011f4:	6922      	ldr	r2, [r4, #16]
 80011f6:	f023 03f8 	bic.w	r3, r3, #248	; 0xf8
 80011fa:	ea43 03c2 	orr.w	r3, r3, r2, lsl #3
 80011fe:	602b      	str	r3, [r5, #0]
 8001200:	e774      	b.n	80010ec <HAL_RCC_OscConfig+0x18>
 8001202:	f7ff fbbf 	bl	8000984 <HAL_GetTick>
 8001206:	1b80      	subs	r0, r0, r6
 8001208:	2802      	cmp	r0, #2
 800120a:	d9ef      	bls.n	80011ec <HAL_RCC_OscConfig+0x118>
 800120c:	e7a7      	b.n	800115e <HAL_RCC_OscConfig+0x8a>
 800120e:	601a      	str	r2, [r3, #0]
 8001210:	f7ff fbb8 	bl	8000984 <HAL_GetTick>
 8001214:	4d64      	ldr	r5, [pc, #400]	; (80013a8 <HAL_RCC_OscConfig+0x2d4>)
 8001216:	4606      	mov	r6, r0
 8001218:	682b      	ldr	r3, [r5, #0]
 800121a:	0799      	lsls	r1, r3, #30
 800121c:	f57f af66 	bpl.w	80010ec <HAL_RCC_OscConfig+0x18>
 8001220:	f7ff fbb0 	bl	8000984 <HAL_GetTick>
 8001224:	1b80      	subs	r0, r0, r6
 8001226:	2802      	cmp	r0, #2
 8001228:	d9f6      	bls.n	8001218 <HAL_RCC_OscConfig+0x144>
 800122a:	e798      	b.n	800115e <HAL_RCC_OscConfig+0x8a>
 800122c:	6962      	ldr	r2, [r4, #20]
 800122e:	4b60      	ldr	r3, [pc, #384]	; (80013b0 <HAL_RCC_OscConfig+0x2dc>)
 8001230:	b17a      	cbz	r2, 8001252 <HAL_RCC_OscConfig+0x17e>
 8001232:	2201      	movs	r2, #1
 8001234:	601a      	str	r2, [r3, #0]
 8001236:	f7ff fba5 	bl	8000984 <HAL_GetTick>
 800123a:	4d5b      	ldr	r5, [pc, #364]	; (80013a8 <HAL_RCC_OscConfig+0x2d4>)
 800123c:	4606      	mov	r6, r0
 800123e:	6f6b      	ldr	r3, [r5, #116]	; 0x74
 8001240:	079f      	lsls	r7, r3, #30
 8001242:	f53f af57 	bmi.w	80010f4 <HAL_RCC_OscConfig+0x20>
 8001246:	f7ff fb9d 	bl	8000984 <HAL_GetTick>
 800124a:	1b80      	subs	r0, r0, r6
 800124c:	2802      	cmp	r0, #2
 800124e:	d9f6      	bls.n	800123e <HAL_RCC_OscConfig+0x16a>
 8001250:	e785      	b.n	800115e <HAL_RCC_OscConfig+0x8a>
 8001252:	601a      	str	r2, [r3, #0]
 8001254:	f7ff fb96 	bl	8000984 <HAL_GetTick>
 8001258:	4d53      	ldr	r5, [pc, #332]	; (80013a8 <HAL_RCC_OscConfig+0x2d4>)
 800125a:	4606      	mov	r6, r0
 800125c:	6f6b      	ldr	r3, [r5, #116]	; 0x74
 800125e:	0798      	lsls	r0, r3, #30
 8001260:	f57f af48 	bpl.w	80010f4 <HAL_RCC_OscConfig+0x20>
 8001264:	f7ff fb8e 	bl	8000984 <HAL_GetTick>
 8001268:	1b80      	subs	r0, r0, r6
 800126a:	2802      	cmp	r0, #2
 800126c:	d9f6      	bls.n	800125c <HAL_RCC_OscConfig+0x188>
 800126e:	e776      	b.n	800115e <HAL_RCC_OscConfig+0x8a>
 8001270:	4b4d      	ldr	r3, [pc, #308]	; (80013a8 <HAL_RCC_OscConfig+0x2d4>)
 8001272:	6c1a      	ldr	r2, [r3, #64]	; 0x40
 8001274:	f012 5280 	ands.w	r2, r2, #268435456	; 0x10000000
 8001278:	d128      	bne.n	80012cc <HAL_RCC_OscConfig+0x1f8>
 800127a:	9201      	str	r2, [sp, #4]
 800127c:	6c1a      	ldr	r2, [r3, #64]	; 0x40
 800127e:	f042 5280 	orr.w	r2, r2, #268435456	; 0x10000000
 8001282:	641a      	str	r2, [r3, #64]	; 0x40
 8001284:	6c1b      	ldr	r3, [r3, #64]	; 0x40
 8001286:	f003 5380 	and.w	r3, r3, #268435456	; 0x10000000
 800128a:	9301      	str	r3, [sp, #4]
 800128c:	9b01      	ldr	r3, [sp, #4]
 800128e:	2601      	movs	r6, #1
 8001290:	4d48      	ldr	r5, [pc, #288]	; (80013b4 <HAL_RCC_OscConfig+0x2e0>)
 8001292:	682b      	ldr	r3, [r5, #0]
 8001294:	05d9      	lsls	r1, r3, #23
 8001296:	d51b      	bpl.n	80012d0 <HAL_RCC_OscConfig+0x1fc>
 8001298:	68a3      	ldr	r3, [r4, #8]
 800129a:	4d43      	ldr	r5, [pc, #268]	; (80013a8 <HAL_RCC_OscConfig+0x2d4>)
 800129c:	2b01      	cmp	r3, #1
 800129e:	d127      	bne.n	80012f0 <HAL_RCC_OscConfig+0x21c>
 80012a0:	6f2b      	ldr	r3, [r5, #112]	; 0x70
 80012a2:	f043 0301 	orr.w	r3, r3, #1
 80012a6:	672b      	str	r3, [r5, #112]	; 0x70
 80012a8:	f7ff fb6c 	bl	8000984 <HAL_GetTick>
 80012ac:	4d3e      	ldr	r5, [pc, #248]	; (80013a8 <HAL_RCC_OscConfig+0x2d4>)
 80012ae:	4607      	mov	r7, r0
 80012b0:	f241 3888 	movw	r8, #5000	; 0x1388
 80012b4:	6f2b      	ldr	r3, [r5, #112]	; 0x70
 80012b6:	079b      	lsls	r3, r3, #30
 80012b8:	d539      	bpl.n	800132e <HAL_RCC_OscConfig+0x25a>
 80012ba:	2e00      	cmp	r6, #0
 80012bc:	f43f af1e 	beq.w	80010fc <HAL_RCC_OscConfig+0x28>
 80012c0:	4a39      	ldr	r2, [pc, #228]	; (80013a8 <HAL_RCC_OscConfig+0x2d4>)
 80012c2:	6c13      	ldr	r3, [r2, #64]	; 0x40
 80012c4:	f023 5380 	bic.w	r3, r3, #268435456	; 0x10000000
 80012c8:	6413      	str	r3, [r2, #64]	; 0x40
 80012ca:	e717      	b.n	80010fc <HAL_RCC_OscConfig+0x28>
 80012cc:	2600      	movs	r6, #0
 80012ce:	e7df      	b.n	8001290 <HAL_RCC_OscConfig+0x1bc>
 80012d0:	682b      	ldr	r3, [r5, #0]
 80012d2:	f443 7380 	orr.w	r3, r3, #256	; 0x100
 80012d6:	602b      	str	r3, [r5, #0]
 80012d8:	f7ff fb54 	bl	8000984 <HAL_GetTick>
 80012dc:	4607      	mov	r7, r0
 80012de:	682b      	ldr	r3, [r5, #0]
 80012e0:	05da      	lsls	r2, r3, #23
 80012e2:	d4d9      	bmi.n	8001298 <HAL_RCC_OscConfig+0x1c4>
 80012e4:	f7ff fb4e 	bl	8000984 <HAL_GetTick>
 80012e8:	1bc0      	subs	r0, r0, r7
 80012ea:	2802      	cmp	r0, #2
 80012ec:	d9f7      	bls.n	80012de <HAL_RCC_OscConfig+0x20a>
 80012ee:	e736      	b.n	800115e <HAL_RCC_OscConfig+0x8a>
 80012f0:	2b05      	cmp	r3, #5
 80012f2:	d104      	bne.n	80012fe <HAL_RCC_OscConfig+0x22a>
 80012f4:	6f2b      	ldr	r3, [r5, #112]	; 0x70
 80012f6:	f043 0304 	orr.w	r3, r3, #4
 80012fa:	672b      	str	r3, [r5, #112]	; 0x70
 80012fc:	e7d0      	b.n	80012a0 <HAL_RCC_OscConfig+0x1cc>
 80012fe:	6f2a      	ldr	r2, [r5, #112]	; 0x70
 8001300:	f022 0201 	bic.w	r2, r2, #1
 8001304:	672a      	str	r2, [r5, #112]	; 0x70
 8001306:	6f2a      	ldr	r2, [r5, #112]	; 0x70
 8001308:	f022 0204 	bic.w	r2, r2, #4
 800130c:	672a      	str	r2, [r5, #112]	; 0x70
 800130e:	2b00      	cmp	r3, #0
 8001310:	d1ca      	bne.n	80012a8 <HAL_RCC_OscConfig+0x1d4>
 8001312:	f7ff fb37 	bl	8000984 <HAL_GetTick>
 8001316:	f241 3888 	movw	r8, #5000	; 0x1388
 800131a:	4607      	mov	r7, r0
 800131c:	6f2b      	ldr	r3, [r5, #112]	; 0x70
 800131e:	0798      	lsls	r0, r3, #30
 8001320:	d5cb      	bpl.n	80012ba <HAL_RCC_OscConfig+0x1e6>
 8001322:	f7ff fb2f 	bl	8000984 <HAL_GetTick>
 8001326:	1bc0      	subs	r0, r0, r7
 8001328:	4540      	cmp	r0, r8
 800132a:	d9f7      	bls.n	800131c <HAL_RCC_OscConfig+0x248>
 800132c:	e717      	b.n	800115e <HAL_RCC_OscConfig+0x8a>
 800132e:	f7ff fb29 	bl	8000984 <HAL_GetTick>
 8001332:	1bc0      	subs	r0, r0, r7
 8001334:	4540      	cmp	r0, r8
 8001336:	d9bd      	bls.n	80012b4 <HAL_RCC_OscConfig+0x1e0>
 8001338:	e711      	b.n	800115e <HAL_RCC_OscConfig+0x8a>
 800133a:	4d1b      	ldr	r5, [pc, #108]	; (80013a8 <HAL_RCC_OscConfig+0x2d4>)
 800133c:	68ab      	ldr	r3, [r5, #8]
 800133e:	f003 030c 	and.w	r3, r3, #12
 8001342:	2b08      	cmp	r3, #8
 8001344:	d047      	beq.n	80013d6 <HAL_RCC_OscConfig+0x302>
 8001346:	4e1c      	ldr	r6, [pc, #112]	; (80013b8 <HAL_RCC_OscConfig+0x2e4>)
 8001348:	2300      	movs	r3, #0
 800134a:	2802      	cmp	r0, #2
 800134c:	6033      	str	r3, [r6, #0]
 800134e:	d135      	bne.n	80013bc <HAL_RCC_OscConfig+0x2e8>
 8001350:	f7ff fb18 	bl	8000984 <HAL_GetTick>
 8001354:	4607      	mov	r7, r0
 8001356:	682b      	ldr	r3, [r5, #0]
 8001358:	0199      	lsls	r1, r3, #6
 800135a:	d41e      	bmi.n	800139a <HAL_RCC_OscConfig+0x2c6>
 800135c:	e9d4 3207 	ldrd	r3, r2, [r4, #28]
 8001360:	4313      	orrs	r3, r2
 8001362:	6a62      	ldr	r2, [r4, #36]	; 0x24
 8001364:	ea43 1382 	orr.w	r3, r3, r2, lsl #6
 8001368:	6ae2      	ldr	r2, [r4, #44]	; 0x2c
 800136a:	ea43 6302 	orr.w	r3, r3, r2, lsl #24
 800136e:	6aa2      	ldr	r2, [r4, #40]	; 0x28
 8001370:	4c0d      	ldr	r4, [pc, #52]	; (80013a8 <HAL_RCC_OscConfig+0x2d4>)
 8001372:	0852      	lsrs	r2, r2, #1
 8001374:	3a01      	subs	r2, #1
 8001376:	ea43 4302 	orr.w	r3, r3, r2, lsl #16
 800137a:	606b      	str	r3, [r5, #4]
 800137c:	2301      	movs	r3, #1
 800137e:	6033      	str	r3, [r6, #0]
 8001380:	f7ff fb00 	bl	8000984 <HAL_GetTick>
 8001384:	4605      	mov	r5, r0
 8001386:	6823      	ldr	r3, [r4, #0]
 8001388:	019a      	lsls	r2, r3, #6
 800138a:	f53f aebb 	bmi.w	8001104 <HAL_RCC_OscConfig+0x30>
 800138e:	f7ff faf9 	bl	8000984 <HAL_GetTick>
 8001392:	1b40      	subs	r0, r0, r5
 8001394:	2802      	cmp	r0, #2
 8001396:	d9f6      	bls.n	8001386 <HAL_RCC_OscConfig+0x2b2>
 8001398:	e6e1      	b.n	800115e <HAL_RCC_OscConfig+0x8a>
 800139a:	f7ff faf3 	bl	8000984 <HAL_GetTick>
 800139e:	1bc0      	subs	r0, r0, r7
 80013a0:	2802      	cmp	r0, #2
 80013a2:	d9d8      	bls.n	8001356 <HAL_RCC_OscConfig+0x282>
 80013a4:	e6db      	b.n	800115e <HAL_RCC_OscConfig+0x8a>
 80013a6:	bf00      	nop
 80013a8:	40023800 	.word	0x40023800
 80013ac:	42470000 	.word	0x42470000
 80013b0:	42470e80 	.word	0x42470e80
 80013b4:	40007000 	.word	0x40007000
 80013b8:	42470060 	.word	0x42470060
 80013bc:	f7ff fae2 	bl	8000984 <HAL_GetTick>
 80013c0:	4604      	mov	r4, r0
 80013c2:	682b      	ldr	r3, [r5, #0]
 80013c4:	019b      	lsls	r3, r3, #6
 80013c6:	f57f ae9d 	bpl.w	8001104 <HAL_RCC_OscConfig+0x30>
 80013ca:	f7ff fadb 	bl	8000984 <HAL_GetTick>
 80013ce:	1b00      	subs	r0, r0, r4
 80013d0:	2802      	cmp	r0, #2
 80013d2:	d9f6      	bls.n	80013c2 <HAL_RCC_OscConfig+0x2ee>
 80013d4:	e6c3      	b.n	800115e <HAL_RCC_OscConfig+0x8a>
 80013d6:	2801      	cmp	r0, #1
 80013d8:	f43f aec2 	beq.w	8001160 <HAL_RCC_OscConfig+0x8c>
 80013dc:	6868      	ldr	r0, [r5, #4]
 80013de:	69e3      	ldr	r3, [r4, #28]
 80013e0:	f400 0280 	and.w	r2, r0, #4194304	; 0x400000
 80013e4:	429a      	cmp	r2, r3
 80013e6:	f47f ae79 	bne.w	80010dc <HAL_RCC_OscConfig+0x8>
 80013ea:	6a22      	ldr	r2, [r4, #32]
 80013ec:	f000 033f 	and.w	r3, r0, #63	; 0x3f
 80013f0:	4293      	cmp	r3, r2
 80013f2:	f47f ae73 	bne.w	80010dc <HAL_RCC_OscConfig+0x8>
 80013f6:	6a62      	ldr	r2, [r4, #36]	; 0x24
 80013f8:	f647 73c0 	movw	r3, #32704	; 0x7fc0
 80013fc:	4003      	ands	r3, r0
 80013fe:	4293      	cmp	r3, r2
 8001400:	f47f ae6c 	bne.w	80010dc <HAL_RCC_OscConfig+0x8>
 8001404:	6aa2      	ldr	r2, [r4, #40]	; 0x28
 8001406:	f400 3340 	and.w	r3, r0, #196608	; 0x30000
 800140a:	4293      	cmp	r3, r2
 800140c:	f47f ae66 	bne.w	80010dc <HAL_RCC_OscConfig+0x8>
 8001410:	6ae3      	ldr	r3, [r4, #44]	; 0x2c
 8001412:	f000 6070 	and.w	r0, r0, #251658240	; 0xf000000
 8001416:	1ac0      	subs	r0, r0, r3
 8001418:	bf18      	it	ne
 800141a:	2001      	movne	r0, #1
 800141c:	e6a0      	b.n	8001160 <HAL_RCC_OscConfig+0x8c>
 800141e:	bf00      	nop

08001420 <HAL_RCC_GetSysClockFreq>:
 8001420:	4913      	ldr	r1, [pc, #76]	; (8001470 <HAL_RCC_GetSysClockFreq+0x50>)
 8001422:	b508      	push	{r3, lr}
 8001424:	688b      	ldr	r3, [r1, #8]
 8001426:	f003 030c 	and.w	r3, r3, #12
 800142a:	2b04      	cmp	r3, #4
 800142c:	d003      	beq.n	8001436 <HAL_RCC_GetSysClockFreq+0x16>
 800142e:	2b08      	cmp	r3, #8
 8001430:	d003      	beq.n	800143a <HAL_RCC_GetSysClockFreq+0x1a>
 8001432:	4810      	ldr	r0, [pc, #64]	; (8001474 <HAL_RCC_GetSysClockFreq+0x54>)
 8001434:	e000      	b.n	8001438 <HAL_RCC_GetSysClockFreq+0x18>
 8001436:	4810      	ldr	r0, [pc, #64]	; (8001478 <HAL_RCC_GetSysClockFreq+0x58>)
 8001438:	bd08      	pop	{r3, pc}
 800143a:	684a      	ldr	r2, [r1, #4]
 800143c:	684b      	ldr	r3, [r1, #4]
 800143e:	6849      	ldr	r1, [r1, #4]
 8001440:	f413 0380 	ands.w	r3, r3, #4194304	; 0x400000
 8001444:	bf14      	ite	ne
 8001446:	480c      	ldrne	r0, [pc, #48]	; (8001478 <HAL_RCC_GetSysClockFreq+0x58>)
 8001448:	480a      	ldreq	r0, [pc, #40]	; (8001474 <HAL_RCC_GetSysClockFreq+0x54>)
 800144a:	f3c1 1188 	ubfx	r1, r1, #6, #9
 800144e:	bf18      	it	ne
 8001450:	2300      	movne	r3, #0
 8001452:	f002 023f 	and.w	r2, r2, #63	; 0x3f
 8001456:	fba1 0100 	umull	r0, r1, r1, r0
 800145a:	f7fe feb5 	bl	80001c8 <__aeabi_uldivmod>
 800145e:	4b04      	ldr	r3, [pc, #16]	; (8001470 <HAL_RCC_GetSysClockFreq+0x50>)
 8001460:	685b      	ldr	r3, [r3, #4]
 8001462:	f3c3 4301 	ubfx	r3, r3, #16, #2
 8001466:	3301      	adds	r3, #1
 8001468:	005b      	lsls	r3, r3, #1
 800146a:	fbb0 f0f3 	udiv	r0, r0, r3
 800146e:	e7e3      	b.n	8001438 <HAL_RCC_GetSysClockFreq+0x18>
 8001470:	40023800 	.word	0x40023800
 8001474:	00f42400 	.word	0x00f42400
 8001478:	007a1200 	.word	0x007a1200

0800147c <HAL_RCC_ClockConfig>:
 800147c:	e92d 41f0 	stmdb	sp!, {r4, r5, r6, r7, r8, lr}
 8001480:	460d      	mov	r5, r1
 8001482:	4604      	mov	r4, r0
 8001484:	b910      	cbnz	r0, 800148c <HAL_RCC_ClockConfig+0x10>
 8001486:	2001      	movs	r0, #1
 8001488:	e8bd 81f0 	ldmia.w	sp!, {r4, r5, r6, r7, r8, pc}
 800148c:	4b43      	ldr	r3, [pc, #268]	; (800159c <HAL_RCC_ClockConfig+0x120>)
 800148e:	681a      	ldr	r2, [r3, #0]
 8001490:	f002 020f 	and.w	r2, r2, #15
 8001494:	428a      	cmp	r2, r1
 8001496:	d328      	bcc.n	80014ea <HAL_RCC_ClockConfig+0x6e>
 8001498:	6821      	ldr	r1, [r4, #0]
 800149a:	078f      	lsls	r7, r1, #30
 800149c:	d42d      	bmi.n	80014fa <HAL_RCC_ClockConfig+0x7e>
 800149e:	07c8      	lsls	r0, r1, #31
 80014a0:	d440      	bmi.n	8001524 <HAL_RCC_ClockConfig+0xa8>
 80014a2:	4b3e      	ldr	r3, [pc, #248]	; (800159c <HAL_RCC_ClockConfig+0x120>)
 80014a4:	681a      	ldr	r2, [r3, #0]
 80014a6:	f002 020f 	and.w	r2, r2, #15
 80014aa:	42aa      	cmp	r2, r5
 80014ac:	d865      	bhi.n	800157a <HAL_RCC_ClockConfig+0xfe>
 80014ae:	6822      	ldr	r2, [r4, #0]
 80014b0:	0751      	lsls	r1, r2, #29
 80014b2:	d46b      	bmi.n	800158c <HAL_RCC_ClockConfig+0x110>
 80014b4:	0713      	lsls	r3, r2, #28
 80014b6:	d507      	bpl.n	80014c8 <HAL_RCC_ClockConfig+0x4c>
 80014b8:	4a39      	ldr	r2, [pc, #228]	; (80015a0 <HAL_RCC_ClockConfig+0x124>)
 80014ba:	6921      	ldr	r1, [r4, #16]
 80014bc:	6893      	ldr	r3, [r2, #8]
 80014be:	f423 4360 	bic.w	r3, r3, #57344	; 0xe000
 80014c2:	ea43 03c1 	orr.w	r3, r3, r1, lsl #3
 80014c6:	6093      	str	r3, [r2, #8]
 80014c8:	f7ff ffaa 	bl	8001420 <HAL_RCC_GetSysClockFreq>
 80014cc:	4b34      	ldr	r3, [pc, #208]	; (80015a0 <HAL_RCC_ClockConfig+0x124>)
 80014ce:	4a35      	ldr	r2, [pc, #212]	; (80015a4 <HAL_RCC_ClockConfig+0x128>)
 80014d0:	689b      	ldr	r3, [r3, #8]
 80014d2:	f3c3 1303 	ubfx	r3, r3, #4, #4
 80014d6:	5cd3      	ldrb	r3, [r2, r3]
 80014d8:	40d8      	lsrs	r0, r3
 80014da:	4b33      	ldr	r3, [pc, #204]	; (80015a8 <HAL_RCC_ClockConfig+0x12c>)
 80014dc:	6018      	str	r0, [r3, #0]
 80014de:	4b33      	ldr	r3, [pc, #204]	; (80015ac <HAL_RCC_ClockConfig+0x130>)
 80014e0:	6818      	ldr	r0, [r3, #0]
 80014e2:	f7ff fa05 	bl	80008f0 <HAL_InitTick>
 80014e6:	2000      	movs	r0, #0
 80014e8:	e7ce      	b.n	8001488 <HAL_RCC_ClockConfig+0xc>
 80014ea:	b2ca      	uxtb	r2, r1
 80014ec:	701a      	strb	r2, [r3, #0]
 80014ee:	681b      	ldr	r3, [r3, #0]
 80014f0:	f003 030f 	and.w	r3, r3, #15
 80014f4:	428b      	cmp	r3, r1
 80014f6:	d1c6      	bne.n	8001486 <HAL_RCC_ClockConfig+0xa>
 80014f8:	e7ce      	b.n	8001498 <HAL_RCC_ClockConfig+0x1c>
 80014fa:	4b29      	ldr	r3, [pc, #164]	; (80015a0 <HAL_RCC_ClockConfig+0x124>)
 80014fc:	f011 0f04 	tst.w	r1, #4
 8001500:	bf1e      	ittt	ne
 8001502:	689a      	ldrne	r2, [r3, #8]
 8001504:	f442 52e0 	orrne.w	r2, r2, #7168	; 0x1c00
 8001508:	609a      	strne	r2, [r3, #8]
 800150a:	070e      	lsls	r6, r1, #28
 800150c:	bf42      	ittt	mi
 800150e:	689a      	ldrmi	r2, [r3, #8]
 8001510:	f442 4260 	orrmi.w	r2, r2, #57344	; 0xe000
 8001514:	609a      	strmi	r2, [r3, #8]
 8001516:	689a      	ldr	r2, [r3, #8]
 8001518:	68a0      	ldr	r0, [r4, #8]
 800151a:	f022 02f0 	bic.w	r2, r2, #240	; 0xf0
 800151e:	4302      	orrs	r2, r0
 8001520:	609a      	str	r2, [r3, #8]
 8001522:	e7bc      	b.n	800149e <HAL_RCC_ClockConfig+0x22>
 8001524:	6862      	ldr	r2, [r4, #4]
 8001526:	4b1e      	ldr	r3, [pc, #120]	; (80015a0 <HAL_RCC_ClockConfig+0x124>)
 8001528:	2a01      	cmp	r2, #1
 800152a:	d11c      	bne.n	8001566 <HAL_RCC_ClockConfig+0xea>
 800152c:	681b      	ldr	r3, [r3, #0]
 800152e:	f413 3f00 	tst.w	r3, #131072	; 0x20000
 8001532:	d0a8      	beq.n	8001486 <HAL_RCC_ClockConfig+0xa>
 8001534:	4e1a      	ldr	r6, [pc, #104]	; (80015a0 <HAL_RCC_ClockConfig+0x124>)
 8001536:	68b3      	ldr	r3, [r6, #8]
 8001538:	f023 0303 	bic.w	r3, r3, #3
 800153c:	4313      	orrs	r3, r2
 800153e:	60b3      	str	r3, [r6, #8]
 8001540:	f7ff fa20 	bl	8000984 <HAL_GetTick>
 8001544:	f241 3888 	movw	r8, #5000	; 0x1388
 8001548:	4607      	mov	r7, r0
 800154a:	68b3      	ldr	r3, [r6, #8]
 800154c:	6862      	ldr	r2, [r4, #4]
 800154e:	f003 030c 	and.w	r3, r3, #12
 8001552:	ebb3 0f82 	cmp.w	r3, r2, lsl #2
 8001556:	d0a4      	beq.n	80014a2 <HAL_RCC_ClockConfig+0x26>
 8001558:	f7ff fa14 	bl	8000984 <HAL_GetTick>
 800155c:	1bc0      	subs	r0, r0, r7
 800155e:	4540      	cmp	r0, r8
 8001560:	d9f3      	bls.n	800154a <HAL_RCC_ClockConfig+0xce>
 8001562:	2003      	movs	r0, #3
 8001564:	e790      	b.n	8001488 <HAL_RCC_ClockConfig+0xc>
 8001566:	1e91      	subs	r1, r2, #2
 8001568:	2901      	cmp	r1, #1
 800156a:	681b      	ldr	r3, [r3, #0]
 800156c:	d802      	bhi.n	8001574 <HAL_RCC_ClockConfig+0xf8>
 800156e:	f013 7f00 	tst.w	r3, #33554432	; 0x2000000
 8001572:	e7de      	b.n	8001532 <HAL_RCC_ClockConfig+0xb6>
 8001574:	f013 0f02 	tst.w	r3, #2
 8001578:	e7db      	b.n	8001532 <HAL_RCC_ClockConfig+0xb6>
 800157a:	b2ea      	uxtb	r2, r5
 800157c:	701a      	strb	r2, [r3, #0]
 800157e:	681b      	ldr	r3, [r3, #0]
 8001580:	f003 030f 	and.w	r3, r3, #15
 8001584:	42ab      	cmp	r3, r5
 8001586:	f47f af7e 	bne.w	8001486 <HAL_RCC_ClockConfig+0xa>
 800158a:	e790      	b.n	80014ae <HAL_RCC_ClockConfig+0x32>
 800158c:	4904      	ldr	r1, [pc, #16]	; (80015a0 <HAL_RCC_ClockConfig+0x124>)
 800158e:	68e0      	ldr	r0, [r4, #12]
 8001590:	688b      	ldr	r3, [r1, #8]
 8001592:	f423 53e0 	bic.w	r3, r3, #7168	; 0x1c00
 8001596:	4303      	orrs	r3, r0
 8001598:	608b      	str	r3, [r1, #8]
 800159a:	e78b      	b.n	80014b4 <HAL_RCC_ClockConfig+0x38>
 800159c:	40023c00 	.word	0x40023c00
 80015a0:	40023800 	.word	0x40023800
 80015a4:	080020e0 	.word	0x080020e0
 80015a8:	20000000 	.word	0x20000000
 80015ac:	20000008 	.word	0x20000008

080015b0 <HAL_RCC_GetPCLK1Freq>:
 80015b0:	4b04      	ldr	r3, [pc, #16]	; (80015c4 <HAL_RCC_GetPCLK1Freq+0x14>)
 80015b2:	4a05      	ldr	r2, [pc, #20]	; (80015c8 <HAL_RCC_GetPCLK1Freq+0x18>)
 80015b4:	689b      	ldr	r3, [r3, #8]
 80015b6:	f3c3 2382 	ubfx	r3, r3, #10, #3
 80015ba:	5cd3      	ldrb	r3, [r2, r3]
 80015bc:	4a03      	ldr	r2, [pc, #12]	; (80015cc <HAL_RCC_GetPCLK1Freq+0x1c>)
 80015be:	6810      	ldr	r0, [r2, #0]
 80015c0:	40d8      	lsrs	r0, r3
 80015c2:	4770      	bx	lr
 80015c4:	40023800 	.word	0x40023800
 80015c8:	080020f0 	.word	0x080020f0
 80015cc:	20000000 	.word	0x20000000

080015d0 <HAL_RCC_GetPCLK2Freq>:
 80015d0:	4b04      	ldr	r3, [pc, #16]	; (80015e4 <HAL_RCC_GetPCLK2Freq+0x14>)
 80015d2:	4a05      	ldr	r2, [pc, #20]	; (80015e8 <HAL_RCC_GetPCLK2Freq+0x18>)
 80015d4:	689b      	ldr	r3, [r3, #8]
 80015d6:	f3c3 3342 	ubfx	r3, r3, #13, #3
 80015da:	5cd3      	ldrb	r3, [r2, r3]
 80015dc:	4a03      	ldr	r2, [pc, #12]	; (80015ec <HAL_RCC_GetPCLK2Freq+0x1c>)
 80015de:	6810      	ldr	r0, [r2, #0]
 80015e0:	40d8      	lsrs	r0, r3
 80015e2:	4770      	bx	lr
 80015e4:	40023800 	.word	0x40023800
 80015e8:	080020f0 	.word	0x080020f0
 80015ec:	20000000 	.word	0x20000000

080015f0 <UART_SetConfig>:
 80015f0:	6803      	ldr	r3, [r0, #0]
 80015f2:	68c1      	ldr	r1, [r0, #12]
 80015f4:	691a      	ldr	r2, [r3, #16]
 80015f6:	b570      	push	{r4, r5, r6, lr}
 80015f8:	f422 5240 	bic.w	r2, r2, #12288	; 0x3000
 80015fc:	4604      	mov	r4, r0
 80015fe:	430a      	orrs	r2, r1
 8001600:	611a      	str	r2, [r3, #16]
 8001602:	6925      	ldr	r5, [r4, #16]
 8001604:	68a2      	ldr	r2, [r4, #8]
 8001606:	68d9      	ldr	r1, [r3, #12]
 8001608:	69c0      	ldr	r0, [r0, #28]
 800160a:	432a      	orrs	r2, r5
 800160c:	6965      	ldr	r5, [r4, #20]
 800160e:	f421 4116 	bic.w	r1, r1, #38400	; 0x9600
 8001612:	432a      	orrs	r2, r5
 8001614:	f021 010c 	bic.w	r1, r1, #12
 8001618:	4302      	orrs	r2, r0
 800161a:	430a      	orrs	r2, r1
 800161c:	60da      	str	r2, [r3, #12]
 800161e:	695a      	ldr	r2, [r3, #20]
 8001620:	69a1      	ldr	r1, [r4, #24]
 8001622:	f422 7240 	bic.w	r2, r2, #768	; 0x300
 8001626:	430a      	orrs	r2, r1
 8001628:	f5b0 4f00 	cmp.w	r0, #32768	; 0x8000
 800162c:	615a      	str	r2, [r3, #20]
 800162e:	4a26      	ldr	r2, [pc, #152]	; (80016c8 <UART_SetConfig+0xd8>)
 8001630:	d129      	bne.n	8001686 <UART_SetConfig+0x96>
 8001632:	4293      	cmp	r3, r2
 8001634:	d003      	beq.n	800163e <UART_SetConfig+0x4e>
 8001636:	f502 6280 	add.w	r2, r2, #1024	; 0x400
 800163a:	4293      	cmp	r3, r2
 800163c:	d120      	bne.n	8001680 <UART_SetConfig+0x90>
 800163e:	f7ff ffc7 	bl	80015d0 <HAL_RCC_GetPCLK2Freq>
 8001642:	6862      	ldr	r2, [r4, #4]
 8001644:	2600      	movs	r6, #0
 8001646:	1892      	adds	r2, r2, r2
 8001648:	f04f 0119 	mov.w	r1, #25
 800164c:	eb46 0306 	adc.w	r3, r6, r6
 8001650:	fba0 0101 	umull	r0, r1, r0, r1
 8001654:	f7fe fdb8 	bl	80001c8 <__aeabi_uldivmod>
 8001658:	2164      	movs	r1, #100	; 0x64
 800165a:	fbb0 f5f1 	udiv	r5, r0, r1
 800165e:	fb01 0315 	mls	r3, r1, r5, r0
 8001662:	00db      	lsls	r3, r3, #3
 8001664:	3332      	adds	r3, #50	; 0x32
 8001666:	fbb3 f3f1 	udiv	r3, r3, r1
 800166a:	f003 0207 	and.w	r2, r3, #7
 800166e:	005b      	lsls	r3, r3, #1
 8001670:	6821      	ldr	r1, [r4, #0]
 8001672:	eb02 1205 	add.w	r2, r2, r5, lsl #4
 8001676:	f403 73f8 	and.w	r3, r3, #496	; 0x1f0
 800167a:	4413      	add	r3, r2
 800167c:	608b      	str	r3, [r1, #8]
 800167e:	bd70      	pop	{r4, r5, r6, pc}
 8001680:	f7ff ff96 	bl	80015b0 <HAL_RCC_GetPCLK1Freq>
 8001684:	e7dd      	b.n	8001642 <UART_SetConfig+0x52>
 8001686:	4293      	cmp	r3, r2
 8001688:	d002      	beq.n	8001690 <UART_SetConfig+0xa0>
 800168a:	4a10      	ldr	r2, [pc, #64]	; (80016cc <UART_SetConfig+0xdc>)
 800168c:	4293      	cmp	r3, r2
 800168e:	d117      	bne.n	80016c0 <UART_SetConfig+0xd0>
 8001690:	f7ff ff9e 	bl	80015d0 <HAL_RCC_GetPCLK2Freq>
 8001694:	6863      	ldr	r3, [r4, #4]
 8001696:	2119      	movs	r1, #25
 8001698:	009a      	lsls	r2, r3, #2
 800169a:	fba0 0101 	umull	r0, r1, r0, r1
 800169e:	0f9b      	lsrs	r3, r3, #30
 80016a0:	f7fe fd92 	bl	80001c8 <__aeabi_uldivmod>
 80016a4:	2264      	movs	r2, #100	; 0x64
 80016a6:	fbb0 f1f2 	udiv	r1, r0, r2
 80016aa:	fb02 0311 	mls	r3, r2, r1, r0
 80016ae:	6824      	ldr	r4, [r4, #0]
 80016b0:	011b      	lsls	r3, r3, #4
 80016b2:	3332      	adds	r3, #50	; 0x32
 80016b4:	fbb3 f3f2 	udiv	r3, r3, r2
 80016b8:	eb03 1301 	add.w	r3, r3, r1, lsl #4
 80016bc:	60a3      	str	r3, [r4, #8]
 80016be:	e7de      	b.n	800167e <UART_SetConfig+0x8e>
 80016c0:	f7ff ff76 	bl	80015b0 <HAL_RCC_GetPCLK1Freq>
 80016c4:	e7e6      	b.n	8001694 <UART_SetConfig+0xa4>
 80016c6:	bf00      	nop
 80016c8:	40011000 	.word	0x40011000
 80016cc:	40011400 	.word	0x40011400

080016d0 <HAL_UART_Init>:
 80016d0:	b510      	push	{r4, lr}
 80016d2:	4604      	mov	r4, r0
 80016d4:	b340      	cbz	r0, 8001728 <HAL_UART_Init+0x58>
 80016d6:	f890 3039 	ldrb.w	r3, [r0, #57]	; 0x39
 80016da:	f003 02ff 	and.w	r2, r3, #255	; 0xff
 80016de:	b91b      	cbnz	r3, 80016e8 <HAL_UART_Init+0x18>
 80016e0:	f880 2038 	strb.w	r2, [r0, #56]	; 0x38
 80016e4:	f7ff f8a4 	bl	8000830 <HAL_UART_MspInit>
 80016e8:	6822      	ldr	r2, [r4, #0]
 80016ea:	2324      	movs	r3, #36	; 0x24
 80016ec:	f884 3039 	strb.w	r3, [r4, #57]	; 0x39
 80016f0:	68d3      	ldr	r3, [r2, #12]
 80016f2:	f423 5300 	bic.w	r3, r3, #8192	; 0x2000
 80016f6:	60d3      	str	r3, [r2, #12]
 80016f8:	4620      	mov	r0, r4
 80016fa:	f7ff ff79 	bl	80015f0 <UART_SetConfig>
 80016fe:	6823      	ldr	r3, [r4, #0]
 8001700:	691a      	ldr	r2, [r3, #16]
 8001702:	f422 4290 	bic.w	r2, r2, #18432	; 0x4800
 8001706:	611a      	str	r2, [r3, #16]
 8001708:	695a      	ldr	r2, [r3, #20]
 800170a:	f022 022a 	bic.w	r2, r2, #42	; 0x2a
 800170e:	615a      	str	r2, [r3, #20]
 8001710:	68da      	ldr	r2, [r3, #12]
 8001712:	f442 5200 	orr.w	r2, r2, #8192	; 0x2000
 8001716:	60da      	str	r2, [r3, #12]
 8001718:	2000      	movs	r0, #0
 800171a:	2320      	movs	r3, #32
 800171c:	63e0      	str	r0, [r4, #60]	; 0x3c
 800171e:	f884 3039 	strb.w	r3, [r4, #57]	; 0x39
 8001722:	f884 303a 	strb.w	r3, [r4, #58]	; 0x3a
 8001726:	bd10      	pop	{r4, pc}
 8001728:	2001      	movs	r0, #1
 800172a:	e7fc      	b.n	8001726 <HAL_UART_Init+0x56>

0800172c <u8g2_send_buffer>:
 800172c:	e92d 43f7 	stmdb	sp!, {r0, r1, r2, r4, r5, r6, r7, r8, r9, lr}
 8001730:	6803      	ldr	r3, [r0, #0]
 8001732:	f890 9038 	ldrb.w	r9, [r0, #56]	; 0x38
 8001736:	f890 7039 	ldrb.w	r7, [r0, #57]	; 0x39
 800173a:	f893 8011 	ldrb.w	r8, [r3, #17]
 800173e:	4605      	mov	r5, r0
 8001740:	2600      	movs	r6, #0
 8001742:	682b      	ldr	r3, [r5, #0]
 8001744:	7c1b      	ldrb	r3, [r3, #16]
 8001746:	b2b1      	uxth	r1, r6
 8001748:	00d8      	lsls	r0, r3, #3
 800174a:	fb10 f101 	smulbb	r1, r0, r1
 800174e:	6b68      	ldr	r0, [r5, #52]	; 0x34
 8001750:	b2f4      	uxtb	r4, r6
 8001752:	b289      	uxth	r1, r1
 8001754:	4401      	add	r1, r0
 8001756:	193a      	adds	r2, r7, r4
 8001758:	3401      	adds	r4, #1
 800175a:	9100      	str	r1, [sp, #0]
 800175c:	b2d2      	uxtb	r2, r2
 800175e:	2100      	movs	r1, #0
 8001760:	4628      	mov	r0, r5
 8001762:	b2e4      	uxtb	r4, r4
 8001764:	f000 fc23 	bl	8001fae <u8x8_DrawTile>
 8001768:	45a1      	cmp	r9, r4
 800176a:	d904      	bls.n	8001776 <u8g2_send_buffer+0x4a>
 800176c:	3601      	adds	r6, #1
 800176e:	19bb      	adds	r3, r7, r6
 8001770:	b2db      	uxtb	r3, r3
 8001772:	4598      	cmp	r8, r3
 8001774:	d8e5      	bhi.n	8001742 <u8g2_send_buffer+0x16>
 8001776:	b003      	add	sp, #12
 8001778:	e8bd 83f0 	ldmia.w	sp!, {r4, r5, r6, r7, r8, r9, pc}

0800177c <u8g2_ClearBuffer>:
 800177c:	6803      	ldr	r3, [r0, #0]
 800177e:	7c1a      	ldrb	r2, [r3, #16]
 8001780:	f890 3038 	ldrb.w	r3, [r0, #56]	; 0x38
 8001784:	6b40      	ldr	r0, [r0, #52]	; 0x34
 8001786:	00db      	lsls	r3, r3, #3
 8001788:	435a      	muls	r2, r3
 800178a:	2100      	movs	r1, #0
 800178c:	f000 bc94 	b.w	80020b8 <memset>

08001790 <u8g2_SendBuffer>:
 8001790:	b510      	push	{r4, lr}
 8001792:	4604      	mov	r4, r0
 8001794:	f7ff ffca 	bl	800172c <u8g2_send_buffer>
 8001798:	4620      	mov	r0, r4
 800179a:	e8bd 4010 	ldmia.w	sp!, {r4, lr}
 800179e:	f000 bc32 	b.w	8002006 <u8x8_RefreshDisplay>

080017a2 <u8g2_draw_circle_section>:
 80017a2:	e92d 43f8 	stmdb	sp!, {r3, r4, r5, r6, r7, r8, r9, lr}
 80017a6:	f89d 9024 	ldrb.w	r9, [sp, #36]	; 0x24
 80017aa:	f8bd 7020 	ldrh.w	r7, [sp, #32]
 80017ae:	f019 0f01 	tst.w	r9, #1
 80017b2:	4680      	mov	r8, r0
 80017b4:	460d      	mov	r5, r1
 80017b6:	4616      	mov	r6, r2
 80017b8:	461c      	mov	r4, r3
 80017ba:	d00c      	beq.n	80017d6 <u8g2_draw_circle_section+0x34>
 80017bc:	1859      	adds	r1, r3, r1
 80017be:	1aba      	subs	r2, r7, r2
 80017c0:	b292      	uxth	r2, r2
 80017c2:	b289      	uxth	r1, r1
 80017c4:	f000 f921 	bl	8001a0a <u8g2_DrawPixel>
 80017c8:	1b7a      	subs	r2, r7, r5
 80017ca:	19a1      	adds	r1, r4, r6
 80017cc:	b292      	uxth	r2, r2
 80017ce:	b289      	uxth	r1, r1
 80017d0:	4640      	mov	r0, r8
 80017d2:	f000 f91a 	bl	8001a0a <u8g2_DrawPixel>
 80017d6:	f019 0f02 	tst.w	r9, #2
 80017da:	d00d      	beq.n	80017f8 <u8g2_draw_circle_section+0x56>
 80017dc:	1bba      	subs	r2, r7, r6
 80017de:	1b61      	subs	r1, r4, r5
 80017e0:	b292      	uxth	r2, r2
 80017e2:	b289      	uxth	r1, r1
 80017e4:	4640      	mov	r0, r8
 80017e6:	f000 f910 	bl	8001a0a <u8g2_DrawPixel>
 80017ea:	1b7a      	subs	r2, r7, r5
 80017ec:	1ba1      	subs	r1, r4, r6
 80017ee:	b292      	uxth	r2, r2
 80017f0:	b289      	uxth	r1, r1
 80017f2:	4640      	mov	r0, r8
 80017f4:	f000 f909 	bl	8001a0a <u8g2_DrawPixel>
 80017f8:	f019 0f08 	tst.w	r9, #8
 80017fc:	d00d      	beq.n	800181a <u8g2_draw_circle_section+0x78>
 80017fe:	19ba      	adds	r2, r7, r6
 8001800:	1961      	adds	r1, r4, r5
 8001802:	b292      	uxth	r2, r2
 8001804:	b289      	uxth	r1, r1
 8001806:	4640      	mov	r0, r8
 8001808:	f000 f8ff 	bl	8001a0a <u8g2_DrawPixel>
 800180c:	19ea      	adds	r2, r5, r7
 800180e:	19a1      	adds	r1, r4, r6
 8001810:	b292      	uxth	r2, r2
 8001812:	b289      	uxth	r1, r1
 8001814:	4640      	mov	r0, r8
 8001816:	f000 f8f8 	bl	8001a0a <u8g2_DrawPixel>
 800181a:	f019 0f04 	tst.w	r9, #4
 800181e:	d00f      	beq.n	8001840 <u8g2_draw_circle_section+0x9e>
 8001820:	19ba      	adds	r2, r7, r6
 8001822:	1b61      	subs	r1, r4, r5
 8001824:	4640      	mov	r0, r8
 8001826:	b292      	uxth	r2, r2
 8001828:	b289      	uxth	r1, r1
 800182a:	f000 f8ee 	bl	8001a0a <u8g2_DrawPixel>
 800182e:	19ea      	adds	r2, r5, r7
 8001830:	1ba1      	subs	r1, r4, r6
 8001832:	4640      	mov	r0, r8
 8001834:	b292      	uxth	r2, r2
 8001836:	b289      	uxth	r1, r1
 8001838:	e8bd 43f8 	ldmia.w	sp!, {r3, r4, r5, r6, r7, r8, r9, lr}
 800183c:	f000 b8e5 	b.w	8001a0a <u8g2_DrawPixel>
 8001840:	e8bd 83f8 	ldmia.w	sp!, {r3, r4, r5, r6, r7, r8, r9, pc}

08001844 <u8g2_DrawCircle>:
 8001844:	e92d 4ff7 	stmdb	sp!, {r0, r1, r2, r4, r5, r6, r7, r8, r9, sl, fp, lr}
 8001848:	4691      	mov	r9, r2
 800184a:	461c      	mov	r4, r3
 800184c:	f109 0501 	add.w	r5, r9, #1
 8001850:	3301      	adds	r3, #1
 8001852:	4425      	add	r5, r4
 8001854:	440b      	add	r3, r1
 8001856:	4688      	mov	r8, r1
 8001858:	1b12      	subs	r2, r2, r4
 800185a:	1b09      	subs	r1, r1, r4
 800185c:	b2ad      	uxth	r5, r5
 800185e:	9500      	str	r5, [sp, #0]
 8001860:	b29b      	uxth	r3, r3
 8001862:	b292      	uxth	r2, r2
 8001864:	b289      	uxth	r1, r1
 8001866:	4682      	mov	sl, r0
 8001868:	f89d b030 	ldrb.w	fp, [sp, #48]	; 0x30
 800186c:	f000 f8f4 	bl	8001a58 <u8g2_IsIntersection>
 8001870:	b188      	cbz	r0, 8001896 <u8g2_DrawCircle+0x52>
 8001872:	e9cd 9b00 	strd	r9, fp, [sp]
 8001876:	4643      	mov	r3, r8
 8001878:	4622      	mov	r2, r4
 800187a:	2100      	movs	r1, #0
 800187c:	4650      	mov	r0, sl
 800187e:	ebc4 37c4 	rsb	r7, r4, r4, lsl #15
 8001882:	f7ff ff8e 	bl	80017a2 <u8g2_draw_circle_section>
 8001886:	f1c4 0501 	rsb	r5, r4, #1
 800188a:	007f      	lsls	r7, r7, #1
 800188c:	b22d      	sxth	r5, r5
 800188e:	b23f      	sxth	r7, r7
 8001890:	2600      	movs	r6, #0
 8001892:	42b4      	cmp	r4, r6
 8001894:	d802      	bhi.n	800189c <u8g2_DrawCircle+0x58>
 8001896:	b003      	add	sp, #12
 8001898:	e8bd 8ff0 	ldmia.w	sp!, {r4, r5, r6, r7, r8, r9, sl, fp, pc}
 800189c:	2d00      	cmp	r5, #0
 800189e:	db06      	blt.n	80018ae <u8g2_DrawCircle+0x6a>
 80018a0:	3702      	adds	r7, #2
 80018a2:	b2bb      	uxth	r3, r7
 80018a4:	3c01      	subs	r4, #1
 80018a6:	441d      	add	r5, r3
 80018a8:	b2a4      	uxth	r4, r4
 80018aa:	b21f      	sxth	r7, r3
 80018ac:	b22d      	sxth	r5, r5
 80018ae:	3601      	adds	r6, #1
 80018b0:	b2b6      	uxth	r6, r6
 80018b2:	eb05 0546 	add.w	r5, r5, r6, lsl #1
 80018b6:	3501      	adds	r5, #1
 80018b8:	e9cd 9b00 	strd	r9, fp, [sp]
 80018bc:	4643      	mov	r3, r8
 80018be:	4622      	mov	r2, r4
 80018c0:	4631      	mov	r1, r6
 80018c2:	4650      	mov	r0, sl
 80018c4:	b22d      	sxth	r5, r5
 80018c6:	f7ff ff6c 	bl	80017a2 <u8g2_draw_circle_section>
 80018ca:	e7e2      	b.n	8001892 <u8g2_DrawCircle+0x4e>

080018cc <u8g2_m_16_8_f>:
 80018cc:	2308      	movs	r3, #8
 80018ce:	7003      	strb	r3, [r0, #0]
 80018d0:	4800      	ldr	r0, [pc, #0]	; (80018d4 <u8g2_m_16_8_f+0x8>)
 80018d2:	4770      	bx	lr
 80018d4:	200000a9 	.word	0x200000a9

080018d8 <u8g2_Setup_ssd1306_i2c_128x64_noname_f>:
 80018d8:	b530      	push	{r4, r5, lr}
 80018da:	b085      	sub	sp, #20
 80018dc:	460d      	mov	r5, r1
 80018de:	9300      	str	r3, [sp, #0]
 80018e0:	4909      	ldr	r1, [pc, #36]	; (8001908 <u8g2_Setup_ssd1306_i2c_128x64_noname_f+0x30>)
 80018e2:	4613      	mov	r3, r2
 80018e4:	4a09      	ldr	r2, [pc, #36]	; (800190c <u8g2_Setup_ssd1306_i2c_128x64_noname_f+0x34>)
 80018e6:	4604      	mov	r4, r0
 80018e8:	f000 fbb4 	bl	8002054 <u8x8_Setup>
 80018ec:	f10d 000f 	add.w	r0, sp, #15
 80018f0:	f7ff ffec 	bl	80018cc <u8g2_m_16_8_f>
 80018f4:	f89d 200f 	ldrb.w	r2, [sp, #15]
 80018f8:	9500      	str	r5, [sp, #0]
 80018fa:	4601      	mov	r1, r0
 80018fc:	4b04      	ldr	r3, [pc, #16]	; (8001910 <u8g2_Setup_ssd1306_i2c_128x64_noname_f+0x38>)
 80018fe:	4620      	mov	r0, r4
 8001900:	f000 f988 	bl	8001c14 <u8g2_SetupBuffer>
 8001904:	b005      	add	sp, #20
 8001906:	bd30      	pop	{r4, r5, pc}
 8001908:	08001f0d 	.word	0x08001f0d
 800190c:	08001d85 	.word	0x08001d85
 8001910:	08001a89 	.word	0x08001a89

08001914 <u8g2_font_calc_vref_font>:
 8001914:	2000      	movs	r0, #0
 8001916:	4770      	bx	lr

08001918 <u8g2_SetFontPosBaseline>:
 8001918:	4b01      	ldr	r3, [pc, #4]	; (8001920 <u8g2_SetFontPosBaseline+0x8>)
 800191a:	65c3      	str	r3, [r0, #92]	; 0x5c
 800191c:	4770      	bx	lr
 800191e:	bf00      	nop
 8001920:	08001915 	.word	0x08001915

08001924 <u8g2_draw_hv_line_2dir>:
 8001924:	b470      	push	{r4, r5, r6}
 8001926:	8fc4      	ldrh	r4, [r0, #62]	; 0x3e
 8001928:	f89d 600c 	ldrb.w	r6, [sp, #12]
 800192c:	9603      	str	r6, [sp, #12]
 800192e:	1b12      	subs	r2, r2, r4
 8001930:	6ac4      	ldr	r4, [r0, #44]	; 0x2c
 8001932:	b292      	uxth	r2, r2
 8001934:	46a4      	mov	ip, r4
 8001936:	bc70      	pop	{r4, r5, r6}
 8001938:	4760      	bx	ip

0800193a <u8g2_DrawHVLine>:
 800193a:	b470      	push	{r4, r5, r6}
 800193c:	f890 408c 	ldrb.w	r4, [r0, #140]	; 0x8c
 8001940:	f89d 500c 	ldrb.w	r5, [sp, #12]
 8001944:	2c00      	cmp	r4, #0
 8001946:	d03a      	beq.n	80019be <u8g2_DrawHVLine+0x84>
 8001948:	2b00      	cmp	r3, #0
 800194a:	d038      	beq.n	80019be <u8g2_DrawHVLine+0x84>
 800194c:	2b01      	cmp	r3, #1
 800194e:	d904      	bls.n	800195a <u8g2_DrawHVLine+0x20>
 8001950:	2d02      	cmp	r5, #2
 8001952:	d12b      	bne.n	80019ac <u8g2_DrawHVLine+0x72>
 8001954:	3101      	adds	r1, #1
 8001956:	1ac9      	subs	r1, r1, r3
 8001958:	b289      	uxth	r1, r1
 800195a:	f015 0501 	ands.w	r5, r5, #1
 800195e:	d130      	bne.n	80019c2 <u8g2_DrawHVLine+0x88>
 8001960:	f8b0 404c 	ldrh.w	r4, [r0, #76]	; 0x4c
 8001964:	4294      	cmp	r4, r2
 8001966:	d82a      	bhi.n	80019be <u8g2_DrawHVLine+0x84>
 8001968:	f8b0 404e 	ldrh.w	r4, [r0, #78]	; 0x4e
 800196c:	4294      	cmp	r4, r2
 800196e:	d926      	bls.n	80019be <u8g2_DrawHVLine+0x84>
 8001970:	440b      	add	r3, r1
 8001972:	b29b      	uxth	r3, r3
 8001974:	428b      	cmp	r3, r1
 8001976:	f8b0 6048 	ldrh.w	r6, [r0, #72]	; 0x48
 800197a:	f8b0 404a 	ldrh.w	r4, [r0, #74]	; 0x4a
 800197e:	d21c      	bcs.n	80019ba <u8g2_DrawHVLine+0x80>
 8001980:	428c      	cmp	r4, r1
 8001982:	d919      	bls.n	80019b8 <u8g2_DrawHVLine+0x7e>
 8001984:	1e63      	subs	r3, r4, #1
 8001986:	b29b      	uxth	r3, r3
 8001988:	429e      	cmp	r6, r3
 800198a:	d218      	bcs.n	80019be <u8g2_DrawHVLine+0x84>
 800198c:	42b1      	cmp	r1, r6
 800198e:	bf38      	it	cc
 8001990:	4631      	movcc	r1, r6
 8001992:	429c      	cmp	r4, r3
 8001994:	bf94      	ite	ls
 8001996:	ebc1 0404 	rsbls	r4, r1, r4
 800199a:	ebc1 0403 	rsbhi	r4, r1, r3
 800199e:	b2a3      	uxth	r3, r4
 80019a0:	6b04      	ldr	r4, [r0, #48]	; 0x30
 80019a2:	9503      	str	r5, [sp, #12]
 80019a4:	68a4      	ldr	r4, [r4, #8]
 80019a6:	46a4      	mov	ip, r4
 80019a8:	bc70      	pop	{r4, r5, r6}
 80019aa:	4760      	bx	ip
 80019ac:	2d03      	cmp	r5, #3
 80019ae:	bf02      	ittt	eq
 80019b0:	3201      	addeq	r2, #1
 80019b2:	1ad2      	subeq	r2, r2, r3
 80019b4:	b292      	uxtheq	r2, r2
 80019b6:	e7d0      	b.n	800195a <u8g2_DrawHVLine+0x20>
 80019b8:	4631      	mov	r1, r6
 80019ba:	428c      	cmp	r4, r1
 80019bc:	d8e4      	bhi.n	8001988 <u8g2_DrawHVLine+0x4e>
 80019be:	bc70      	pop	{r4, r5, r6}
 80019c0:	4770      	bx	lr
 80019c2:	f8b0 4048 	ldrh.w	r4, [r0, #72]	; 0x48
 80019c6:	428c      	cmp	r4, r1
 80019c8:	d8f9      	bhi.n	80019be <u8g2_DrawHVLine+0x84>
 80019ca:	f8b0 404a 	ldrh.w	r4, [r0, #74]	; 0x4a
 80019ce:	428c      	cmp	r4, r1
 80019d0:	d9f5      	bls.n	80019be <u8g2_DrawHVLine+0x84>
 80019d2:	4413      	add	r3, r2
 80019d4:	b29b      	uxth	r3, r3
 80019d6:	4293      	cmp	r3, r2
 80019d8:	f8b0 604c 	ldrh.w	r6, [r0, #76]	; 0x4c
 80019dc:	f8b0 404e 	ldrh.w	r4, [r0, #78]	; 0x4e
 80019e0:	d210      	bcs.n	8001a04 <u8g2_DrawHVLine+0xca>
 80019e2:	4294      	cmp	r4, r2
 80019e4:	d90d      	bls.n	8001a02 <u8g2_DrawHVLine+0xc8>
 80019e6:	1e63      	subs	r3, r4, #1
 80019e8:	b29b      	uxth	r3, r3
 80019ea:	429e      	cmp	r6, r3
 80019ec:	d2e7      	bcs.n	80019be <u8g2_DrawHVLine+0x84>
 80019ee:	42b2      	cmp	r2, r6
 80019f0:	bf38      	it	cc
 80019f2:	4632      	movcc	r2, r6
 80019f4:	429c      	cmp	r4, r3
 80019f6:	bf94      	ite	ls
 80019f8:	ebc2 0404 	rsbls	r4, r2, r4
 80019fc:	ebc2 0403 	rsbhi	r4, r2, r3
 8001a00:	e7cd      	b.n	800199e <u8g2_DrawHVLine+0x64>
 8001a02:	4632      	mov	r2, r6
 8001a04:	4294      	cmp	r4, r2
 8001a06:	d9da      	bls.n	80019be <u8g2_DrawHVLine+0x84>
 8001a08:	e7ef      	b.n	80019ea <u8g2_DrawHVLine+0xb0>

08001a0a <u8g2_DrawPixel>:
 8001a0a:	b573      	push	{r0, r1, r4, r5, r6, lr}
 8001a0c:	f8b0 604c 	ldrh.w	r6, [r0, #76]	; 0x4c
 8001a10:	4296      	cmp	r6, r2
 8001a12:	d810      	bhi.n	8001a36 <u8g2_DrawPixel+0x2c>
 8001a14:	f8b0 604e 	ldrh.w	r6, [r0, #78]	; 0x4e
 8001a18:	4296      	cmp	r6, r2
 8001a1a:	d90c      	bls.n	8001a36 <u8g2_DrawPixel+0x2c>
 8001a1c:	f8b0 5048 	ldrh.w	r5, [r0, #72]	; 0x48
 8001a20:	428d      	cmp	r5, r1
 8001a22:	d808      	bhi.n	8001a36 <u8g2_DrawPixel+0x2c>
 8001a24:	f8b0 304a 	ldrh.w	r3, [r0, #74]	; 0x4a
 8001a28:	428b      	cmp	r3, r1
 8001a2a:	d904      	bls.n	8001a36 <u8g2_DrawPixel+0x2c>
 8001a2c:	2300      	movs	r3, #0
 8001a2e:	9300      	str	r3, [sp, #0]
 8001a30:	2301      	movs	r3, #1
 8001a32:	f7ff ff82 	bl	800193a <u8g2_DrawHVLine>
 8001a36:	b002      	add	sp, #8
 8001a38:	bd70      	pop	{r4, r5, r6, pc}

08001a3a <u8g2_is_intersection_decision_tree>:
 8001a3a:	428a      	cmp	r2, r1
 8001a3c:	d206      	bcs.n	8001a4c <u8g2_is_intersection_decision_tree+0x12>
 8001a3e:	4283      	cmp	r3, r0
 8001a40:	d808      	bhi.n	8001a54 <u8g2_is_intersection_decision_tree+0x1a>
 8001a42:	429a      	cmp	r2, r3
 8001a44:	bf94      	ite	ls
 8001a46:	2000      	movls	r0, #0
 8001a48:	2001      	movhi	r0, #1
 8001a4a:	4770      	bx	lr
 8001a4c:	4283      	cmp	r3, r0
 8001a4e:	d8f8      	bhi.n	8001a42 <u8g2_is_intersection_decision_tree+0x8>
 8001a50:	2000      	movs	r0, #0
 8001a52:	4770      	bx	lr
 8001a54:	2001      	movs	r0, #1
 8001a56:	4770      	bx	lr

08001a58 <u8g2_IsIntersection>:
 8001a58:	b570      	push	{r4, r5, r6, lr}
 8001a5a:	4604      	mov	r4, r0
 8001a5c:	460d      	mov	r5, r1
 8001a5e:	461e      	mov	r6, r3
 8001a60:	f8b0 104e 	ldrh.w	r1, [r0, #78]	; 0x4e
 8001a64:	f8bd 3010 	ldrh.w	r3, [sp, #16]
 8001a68:	f8b0 004c 	ldrh.w	r0, [r0, #76]	; 0x4c
 8001a6c:	f7ff ffe5 	bl	8001a3a <u8g2_is_intersection_decision_tree>
 8001a70:	b148      	cbz	r0, 8001a86 <u8g2_IsIntersection+0x2e>
 8001a72:	4633      	mov	r3, r6
 8001a74:	462a      	mov	r2, r5
 8001a76:	f8b4 104a 	ldrh.w	r1, [r4, #74]	; 0x4a
 8001a7a:	f8b4 0048 	ldrh.w	r0, [r4, #72]	; 0x48
 8001a7e:	e8bd 4070 	ldmia.w	sp!, {r4, r5, r6, lr}
 8001a82:	f7ff bfda 	b.w	8001a3a <u8g2_is_intersection_decision_tree>
 8001a86:	bd70      	pop	{r4, r5, r6, pc}

08001a88 <u8g2_ll_hvline_vertical_top_lsb>:
 8001a88:	b5f0      	push	{r4, r5, r6, r7, lr}
 8001a8a:	f890 5092 	ldrb.w	r5, [r0, #146]	; 0x92
 8001a8e:	f89d 6014 	ldrb.w	r6, [sp, #20]
 8001a92:	f002 0707 	and.w	r7, r2, #7
 8001a96:	2401      	movs	r4, #1
 8001a98:	40bc      	lsls	r4, r7
 8001a9a:	2d01      	cmp	r5, #1
 8001a9c:	b2e4      	uxtb	r4, r4
 8001a9e:	d81a      	bhi.n	8001ad6 <u8g2_ll_hvline_vertical_top_lsb+0x4e>
 8001aa0:	4625      	mov	r5, r4
 8001aa2:	d01a      	beq.n	8001ada <u8g2_ll_hvline_vertical_top_lsb+0x52>
 8001aa4:	f022 0207 	bic.w	r2, r2, #7
 8001aa8:	fa1f fe82 	uxth.w	lr, r2
 8001aac:	6802      	ldr	r2, [r0, #0]
 8001aae:	7c12      	ldrb	r2, [r2, #16]
 8001ab0:	fb12 f20e 	smulbb	r2, r2, lr
 8001ab4:	b292      	uxth	r2, r2
 8001ab6:	4411      	add	r1, r2
 8001ab8:	6b42      	ldr	r2, [r0, #52]	; 0x34
 8001aba:	4411      	add	r1, r2
 8001abc:	b97e      	cbnz	r6, 8001ade <u8g2_ll_hvline_vertical_top_lsb+0x56>
 8001abe:	3b01      	subs	r3, #1
 8001ac0:	b29b      	uxth	r3, r3
 8001ac2:	3301      	adds	r3, #1
 8001ac4:	440b      	add	r3, r1
 8001ac6:	780a      	ldrb	r2, [r1, #0]
 8001ac8:	432a      	orrs	r2, r5
 8001aca:	4062      	eors	r2, r4
 8001acc:	f801 2b01 	strb.w	r2, [r1], #1
 8001ad0:	4299      	cmp	r1, r3
 8001ad2:	d1f8      	bne.n	8001ac6 <u8g2_ll_hvline_vertical_top_lsb+0x3e>
 8001ad4:	bdf0      	pop	{r4, r5, r6, r7, pc}
 8001ad6:	2500      	movs	r5, #0
 8001ad8:	e7e4      	b.n	8001aa4 <u8g2_ll_hvline_vertical_top_lsb+0x1c>
 8001ada:	2400      	movs	r4, #0
 8001adc:	e7e2      	b.n	8001aa4 <u8g2_ll_hvline_vertical_top_lsb+0x1c>
 8001ade:	780a      	ldrb	r2, [r1, #0]
 8001ae0:	3701      	adds	r7, #1
 8001ae2:	432a      	orrs	r2, r5
 8001ae4:	4062      	eors	r2, r4
 8001ae6:	3b01      	subs	r3, #1
 8001ae8:	f017 0707 	ands.w	r7, r7, #7
 8001aec:	700a      	strb	r2, [r1, #0]
 8001aee:	b29b      	uxth	r3, r3
 8001af0:	d10b      	bne.n	8001b0a <u8g2_ll_hvline_vertical_top_lsb+0x82>
 8001af2:	8f42      	ldrh	r2, [r0, #58]	; 0x3a
 8001af4:	4411      	add	r1, r2
 8001af6:	f890 2092 	ldrb.w	r2, [r0, #146]	; 0x92
 8001afa:	2a01      	cmp	r2, #1
 8001afc:	d80a      	bhi.n	8001b14 <u8g2_ll_hvline_vertical_top_lsb+0x8c>
 8001afe:	d00b      	beq.n	8001b18 <u8g2_ll_hvline_vertical_top_lsb+0x90>
 8001b00:	2401      	movs	r4, #1
 8001b02:	4625      	mov	r5, r4
 8001b04:	2b00      	cmp	r3, #0
 8001b06:	d1ea      	bne.n	8001ade <u8g2_ll_hvline_vertical_top_lsb+0x56>
 8001b08:	e7e4      	b.n	8001ad4 <u8g2_ll_hvline_vertical_top_lsb+0x4c>
 8001b0a:	006d      	lsls	r5, r5, #1
 8001b0c:	0064      	lsls	r4, r4, #1
 8001b0e:	b2ed      	uxtb	r5, r5
 8001b10:	b2e4      	uxtb	r4, r4
 8001b12:	e7f7      	b.n	8001b04 <u8g2_ll_hvline_vertical_top_lsb+0x7c>
 8001b14:	2401      	movs	r4, #1
 8001b16:	e7f5      	b.n	8001b04 <u8g2_ll_hvline_vertical_top_lsb+0x7c>
 8001b18:	4615      	mov	r5, r2
 8001b1a:	e7f3      	b.n	8001b04 <u8g2_ll_hvline_vertical_top_lsb+0x7c>

08001b1c <u8g2_update_dimension_common>:
 8001b1c:	b5f0      	push	{r4, r5, r6, r7, lr}
 8001b1e:	f890 4038 	ldrb.w	r4, [r0, #56]	; 0x38
 8001b22:	6802      	ldr	r2, [r0, #0]
 8001b24:	f890 7039 	ldrb.w	r7, [r0, #57]	; 0x39
 8001b28:	b2a5      	uxth	r5, r4
 8001b2a:	00eb      	lsls	r3, r5, #3
 8001b2c:	8783      	strh	r3, [r0, #60]	; 0x3c
 8001b2e:	7c13      	ldrb	r3, [r2, #16]
 8001b30:	b2be      	uxth	r6, r7
 8001b32:	00db      	lsls	r3, r3, #3
 8001b34:	8743      	strh	r3, [r0, #58]	; 0x3a
 8001b36:	00f3      	lsls	r3, r6, #3
 8001b38:	87c3      	strh	r3, [r0, #62]	; 0x3e
 8001b3a:	7c51      	ldrb	r1, [r2, #17]
 8001b3c:	f8a0 3040 	strh.w	r3, [r0, #64]	; 0x40
 8001b40:	443c      	add	r4, r7
 8001b42:	428c      	cmp	r4, r1
 8001b44:	bfc4      	itt	gt
 8001b46:	1b89      	subgt	r1, r1, r6
 8001b48:	b28d      	uxthgt	r5, r1
 8001b4a:	eb03 03c5 	add.w	r3, r3, r5, lsl #3
 8001b4e:	f8a0 3042 	strh.w	r3, [r0, #66]	; 0x42
 8001b52:	8a93      	ldrh	r3, [r2, #20]
 8001b54:	f8a0 3044 	strh.w	r3, [r0, #68]	; 0x44
 8001b58:	8ad3      	ldrh	r3, [r2, #22]
 8001b5a:	f8a0 3046 	strh.w	r3, [r0, #70]	; 0x46
 8001b5e:	bdf0      	pop	{r4, r5, r6, r7, pc}

08001b60 <u8g2_update_dimension_r0>:
 8001b60:	f7ff bfdc 	b.w	8001b1c <u8g2_update_dimension_common>

08001b64 <u8g2_draw_l90_r0>:
 8001b64:	b410      	push	{r4}
 8001b66:	f89d 4004 	ldrb.w	r4, [sp, #4]
 8001b6a:	9401      	str	r4, [sp, #4]
 8001b6c:	f85d 4b04 	ldr.w	r4, [sp], #4
 8001b70:	f7ff bed8 	b.w	8001924 <u8g2_draw_hv_line_2dir>

08001b74 <u8g2_apply_clip_window>:
 8001b74:	b537      	push	{r0, r1, r2, r4, r5, lr}
 8001b76:	f8b0 5056 	ldrh.w	r5, [r0, #86]	; 0x56
 8001b7a:	f8b0 3052 	ldrh.w	r3, [r0, #82]	; 0x52
 8001b7e:	f8b0 2054 	ldrh.w	r2, [r0, #84]	; 0x54
 8001b82:	f8b0 1050 	ldrh.w	r1, [r0, #80]	; 0x50
 8001b86:	9500      	str	r5, [sp, #0]
 8001b88:	4604      	mov	r4, r0
 8001b8a:	f7ff ff65 	bl	8001a58 <u8g2_IsIntersection>
 8001b8e:	b918      	cbnz	r0, 8001b98 <u8g2_apply_clip_window+0x24>
 8001b90:	f884 008c 	strb.w	r0, [r4, #140]	; 0x8c
 8001b94:	b003      	add	sp, #12
 8001b96:	bd30      	pop	{r4, r5, pc}
 8001b98:	2301      	movs	r3, #1
 8001b9a:	f8b4 2048 	ldrh.w	r2, [r4, #72]	; 0x48
 8001b9e:	f884 308c 	strb.w	r3, [r4, #140]	; 0x8c
 8001ba2:	f8b4 3050 	ldrh.w	r3, [r4, #80]	; 0x50
 8001ba6:	429a      	cmp	r2, r3
 8001ba8:	bf38      	it	cc
 8001baa:	f8a4 3048 	strhcc.w	r3, [r4, #72]	; 0x48
 8001bae:	f8b4 204a 	ldrh.w	r2, [r4, #74]	; 0x4a
 8001bb2:	f8b4 3052 	ldrh.w	r3, [r4, #82]	; 0x52
 8001bb6:	429a      	cmp	r2, r3
 8001bb8:	bf88      	it	hi
 8001bba:	f8a4 304a 	strhhi.w	r3, [r4, #74]	; 0x4a
 8001bbe:	f8b4 204c 	ldrh.w	r2, [r4, #76]	; 0x4c
 8001bc2:	f8b4 3054 	ldrh.w	r3, [r4, #84]	; 0x54
 8001bc6:	429a      	cmp	r2, r3
 8001bc8:	bf38      	it	cc
 8001bca:	f8a4 304c 	strhcc.w	r3, [r4, #76]	; 0x4c
 8001bce:	f8b4 204e 	ldrh.w	r2, [r4, #78]	; 0x4e
 8001bd2:	f8b4 3056 	ldrh.w	r3, [r4, #86]	; 0x56
 8001bd6:	429a      	cmp	r2, r3
 8001bd8:	bf88      	it	hi
 8001bda:	f8a4 304e 	strhhi.w	r3, [r4, #78]	; 0x4e
 8001bde:	e7d9      	b.n	8001b94 <u8g2_apply_clip_window+0x20>

08001be0 <u8g2_update_page_win_r0>:
 8001be0:	2200      	movs	r2, #0
 8001be2:	f8a0 2048 	strh.w	r2, [r0, #72]	; 0x48
 8001be6:	f8b0 2044 	ldrh.w	r2, [r0, #68]	; 0x44
 8001bea:	f8a0 204a 	strh.w	r2, [r0, #74]	; 0x4a
 8001bee:	f8b0 2040 	ldrh.w	r2, [r0, #64]	; 0x40
 8001bf2:	f8a0 204c 	strh.w	r2, [r0, #76]	; 0x4c
 8001bf6:	f8b0 2042 	ldrh.w	r2, [r0, #66]	; 0x42
 8001bfa:	f8a0 204e 	strh.w	r2, [r0, #78]	; 0x4e
 8001bfe:	f7ff bfb9 	b.w	8001b74 <u8g2_apply_clip_window>
	...

08001c04 <u8g2_SetMaxClipWindow>:
 8001c04:	4a02      	ldr	r2, [pc, #8]	; (8001c10 <u8g2_SetMaxClipWindow+0xc>)
 8001c06:	6b03      	ldr	r3, [r0, #48]	; 0x30
 8001c08:	e9c0 2214 	strd	r2, r2, [r0, #80]	; 0x50
 8001c0c:	685b      	ldr	r3, [r3, #4]
 8001c0e:	4718      	bx	r3
 8001c10:	ffff0000 	.word	0xffff0000

08001c14 <u8g2_SetupBuffer>:
 8001c14:	b570      	push	{r4, r5, r6, lr}
 8001c16:	9e04      	ldr	r6, [sp, #16]
 8001c18:	62c3      	str	r3, [r0, #44]	; 0x2c
 8001c1a:	2500      	movs	r5, #0
 8001c1c:	2301      	movs	r3, #1
 8001c1e:	f880 2038 	strb.w	r2, [r0, #56]	; 0x38
 8001c22:	f880 5039 	strb.w	r5, [r0, #57]	; 0x39
 8001c26:	f880 506d 	strb.w	r5, [r0, #109]	; 0x6d
 8001c2a:	f880 5091 	strb.w	r5, [r0, #145]	; 0x91
 8001c2e:	f880 3092 	strb.w	r3, [r0, #146]	; 0x92
 8001c32:	f880 3093 	strb.w	r3, [r0, #147]	; 0x93
 8001c36:	4604      	mov	r4, r0
 8001c38:	6341      	str	r1, [r0, #52]	; 0x34
 8001c3a:	6833      	ldr	r3, [r6, #0]
 8001c3c:	6585      	str	r5, [r0, #88]	; 0x58
 8001c3e:	6306      	str	r6, [r0, #48]	; 0x30
 8001c40:	4798      	blx	r3
 8001c42:	4620      	mov	r0, r4
 8001c44:	f7ff ffde 	bl	8001c04 <u8g2_SetMaxClipWindow>
 8001c48:	4620      	mov	r0, r4
 8001c4a:	f7ff fe65 	bl	8001918 <u8g2_SetFontPosBaseline>
 8001c4e:	f884 5070 	strb.w	r5, [r4, #112]	; 0x70
 8001c52:	bd70      	pop	{r4, r5, r6, pc}

08001c54 <u8x8_byte_SendBytes>:
 8001c54:	b410      	push	{r4}
 8001c56:	6904      	ldr	r4, [r0, #16]
 8001c58:	4613      	mov	r3, r2
 8001c5a:	46a4      	mov	ip, r4
 8001c5c:	460a      	mov	r2, r1
 8001c5e:	f85d 4b04 	ldr.w	r4, [sp], #4
 8001c62:	2117      	movs	r1, #23
 8001c64:	4760      	bx	ip

08001c66 <u8x8_byte_SendByte>:
 8001c66:	b507      	push	{r0, r1, r2, lr}
 8001c68:	aa02      	add	r2, sp, #8
 8001c6a:	f802 1d01 	strb.w	r1, [r2, #-1]!
 8001c6e:	2101      	movs	r1, #1
 8001c70:	f7ff fff0 	bl	8001c54 <u8x8_byte_SendBytes>
 8001c74:	b003      	add	sp, #12
 8001c76:	f85d fb04 	ldr.w	pc, [sp], #4

08001c7a <u8x8_byte_StartTransfer>:
 8001c7a:	b410      	push	{r4}
 8001c7c:	6904      	ldr	r4, [r0, #16]
 8001c7e:	2300      	movs	r3, #0
 8001c80:	46a4      	mov	ip, r4
 8001c82:	461a      	mov	r2, r3
 8001c84:	2118      	movs	r1, #24
 8001c86:	f85d 4b04 	ldr.w	r4, [sp], #4
 8001c8a:	4760      	bx	ip

08001c8c <u8x8_byte_EndTransfer>:
 8001c8c:	b410      	push	{r4}
 8001c8e:	6904      	ldr	r4, [r0, #16]
 8001c90:	2300      	movs	r3, #0
 8001c92:	46a4      	mov	ip, r4
 8001c94:	461a      	mov	r2, r3
 8001c96:	2119      	movs	r1, #25
 8001c98:	f85d 4b04 	ldr.w	r4, [sp], #4
 8001c9c:	4760      	bx	ip

08001c9e <u8x8_i2c_data_transfer>:
 8001c9e:	b5f8      	push	{r3, r4, r5, r6, r7, lr}
 8001ca0:	4604      	mov	r4, r0
 8001ca2:	4617      	mov	r7, r2
 8001ca4:	460e      	mov	r6, r1
 8001ca6:	f7ff ffe8 	bl	8001c7a <u8x8_byte_StartTransfer>
 8001caa:	2140      	movs	r1, #64	; 0x40
 8001cac:	4620      	mov	r0, r4
 8001cae:	f7ff ffda 	bl	8001c66 <u8x8_byte_SendByte>
 8001cb2:	6925      	ldr	r5, [r4, #16]
 8001cb4:	463b      	mov	r3, r7
 8001cb6:	4632      	mov	r2, r6
 8001cb8:	4620      	mov	r0, r4
 8001cba:	2117      	movs	r1, #23
 8001cbc:	47a8      	blx	r5
 8001cbe:	4620      	mov	r0, r4
 8001cc0:	e8bd 40f8 	ldmia.w	sp!, {r3, r4, r5, r6, r7, lr}
 8001cc4:	f7ff bfe2 	b.w	8001c8c <u8x8_byte_EndTransfer>

08001cc8 <u8x8_cad_SendCmd>:
 8001cc8:	b410      	push	{r4}
 8001cca:	68c4      	ldr	r4, [r0, #12]
 8001ccc:	460a      	mov	r2, r1
 8001cce:	46a4      	mov	ip, r4
 8001cd0:	2300      	movs	r3, #0
 8001cd2:	2115      	movs	r1, #21
 8001cd4:	f85d 4b04 	ldr.w	r4, [sp], #4
 8001cd8:	4760      	bx	ip

08001cda <u8x8_cad_SendArg>:
 8001cda:	b410      	push	{r4}
 8001cdc:	68c4      	ldr	r4, [r0, #12]
 8001cde:	460a      	mov	r2, r1
 8001ce0:	46a4      	mov	ip, r4
 8001ce2:	2300      	movs	r3, #0
 8001ce4:	2116      	movs	r1, #22
 8001ce6:	f85d 4b04 	ldr.w	r4, [sp], #4
 8001cea:	4760      	bx	ip

08001cec <u8x8_cad_SendData>:
 8001cec:	b410      	push	{r4}
 8001cee:	68c4      	ldr	r4, [r0, #12]
 8001cf0:	4613      	mov	r3, r2
 8001cf2:	46a4      	mov	ip, r4
 8001cf4:	460a      	mov	r2, r1
 8001cf6:	f85d 4b04 	ldr.w	r4, [sp], #4
 8001cfa:	2117      	movs	r1, #23
 8001cfc:	4760      	bx	ip

08001cfe <u8x8_cad_StartTransfer>:
 8001cfe:	b410      	push	{r4}
 8001d00:	68c4      	ldr	r4, [r0, #12]
 8001d02:	2300      	movs	r3, #0
 8001d04:	46a4      	mov	ip, r4
 8001d06:	461a      	mov	r2, r3
 8001d08:	2118      	movs	r1, #24
 8001d0a:	f85d 4b04 	ldr.w	r4, [sp], #4
 8001d0e:	4760      	bx	ip

08001d10 <u8x8_cad_EndTransfer>:
 8001d10:	b410      	push	{r4}
 8001d12:	68c4      	ldr	r4, [r0, #12]
 8001d14:	2300      	movs	r3, #0
 8001d16:	46a4      	mov	ip, r4
 8001d18:	461a      	mov	r2, r3
 8001d1a:	2119      	movs	r1, #25
 8001d1c:	f85d 4b04 	ldr.w	r4, [sp], #4
 8001d20:	4760      	bx	ip

08001d22 <u8x8_cad_SendSequence>:
 8001d22:	b573      	push	{r0, r1, r4, r5, r6, lr}
 8001d24:	4605      	mov	r5, r0
 8001d26:	460c      	mov	r4, r1
 8001d28:	7821      	ldrb	r1, [r4, #0]
 8001d2a:	2917      	cmp	r1, #23
 8001d2c:	d019      	beq.n	8001d62 <u8x8_cad_SendSequence+0x40>
 8001d2e:	d803      	bhi.n	8001d38 <u8x8_cad_SendSequence+0x16>
 8001d30:	2915      	cmp	r1, #21
 8001d32:	d20d      	bcs.n	8001d50 <u8x8_cad_SendSequence+0x2e>
 8001d34:	b002      	add	sp, #8
 8001d36:	bd70      	pop	{r4, r5, r6, pc}
 8001d38:	2919      	cmp	r1, #25
 8001d3a:	d91c      	bls.n	8001d76 <u8x8_cad_SendSequence+0x54>
 8001d3c:	29fe      	cmp	r1, #254	; 0xfe
 8001d3e:	d1f9      	bne.n	8001d34 <u8x8_cad_SendSequence+0x12>
 8001d40:	7862      	ldrb	r2, [r4, #1]
 8001d42:	f88d 2007 	strb.w	r2, [sp, #7]
 8001d46:	2129      	movs	r1, #41	; 0x29
 8001d48:	4628      	mov	r0, r5
 8001d4a:	f000 f965 	bl	8002018 <u8x8_gpio_call>
 8001d4e:	e006      	b.n	8001d5e <u8x8_cad_SendSequence+0x3c>
 8001d50:	7862      	ldrb	r2, [r4, #1]
 8001d52:	f88d 2007 	strb.w	r2, [sp, #7]
 8001d56:	68ee      	ldr	r6, [r5, #12]
 8001d58:	2300      	movs	r3, #0
 8001d5a:	4628      	mov	r0, r5
 8001d5c:	47b0      	blx	r6
 8001d5e:	3402      	adds	r4, #2
 8001d60:	e7e2      	b.n	8001d28 <u8x8_cad_SendSequence+0x6>
 8001d62:	7863      	ldrb	r3, [r4, #1]
 8001d64:	f88d 3007 	strb.w	r3, [sp, #7]
 8001d68:	f10d 0207 	add.w	r2, sp, #7
 8001d6c:	2101      	movs	r1, #1
 8001d6e:	4628      	mov	r0, r5
 8001d70:	f7ff ffbc 	bl	8001cec <u8x8_cad_SendData>
 8001d74:	e7f3      	b.n	8001d5e <u8x8_cad_SendSequence+0x3c>
 8001d76:	2300      	movs	r3, #0
 8001d78:	68ee      	ldr	r6, [r5, #12]
 8001d7a:	461a      	mov	r2, r3
 8001d7c:	4628      	mov	r0, r5
 8001d7e:	3401      	adds	r4, #1
 8001d80:	47b0      	blx	r6
 8001d82:	e7d1      	b.n	8001d28 <u8x8_cad_SendSequence+0x6>

08001d84 <u8x8_cad_ssd13xx_fast_i2c>:
 8001d84:	3914      	subs	r1, #20
 8001d86:	e92d 41f0 	stmdb	sp!, {r4, r5, r6, r7, r8, lr}
 8001d8a:	4604      	mov	r4, r0
 8001d8c:	4615      	mov	r5, r2
 8001d8e:	461e      	mov	r6, r3
 8001d90:	2905      	cmp	r1, #5
 8001d92:	d84e      	bhi.n	8001e32 <u8x8_cad_ssd13xx_fast_i2c+0xae>
 8001d94:	e8df f001 	tbb	[pc, r1]
 8001d98:	1c170333 	.word	0x1c170333
 8001d9c:	4541      	.short	0x4541
 8001d9e:	4e26      	ldr	r6, [pc, #152]	; (8001e38 <u8x8_cad_ssd13xx_fast_i2c+0xb4>)
 8001da0:	7832      	ldrb	r2, [r6, #0]
 8001da2:	b10a      	cbz	r2, 8001da8 <u8x8_cad_ssd13xx_fast_i2c+0x24>
 8001da4:	f7ff ff72 	bl	8001c8c <u8x8_byte_EndTransfer>
 8001da8:	4620      	mov	r0, r4
 8001daa:	f7ff ff66 	bl	8001c7a <u8x8_byte_StartTransfer>
 8001dae:	2100      	movs	r1, #0
 8001db0:	4620      	mov	r0, r4
 8001db2:	f7ff ff58 	bl	8001c66 <u8x8_byte_SendByte>
 8001db6:	4629      	mov	r1, r5
 8001db8:	4620      	mov	r0, r4
 8001dba:	f7ff ff54 	bl	8001c66 <u8x8_byte_SendByte>
 8001dbe:	2001      	movs	r0, #1
 8001dc0:	7030      	strb	r0, [r6, #0]
 8001dc2:	e8bd 81f0 	ldmia.w	sp!, {r4, r5, r6, r7, r8, pc}
 8001dc6:	4611      	mov	r1, r2
 8001dc8:	f7ff ff4d 	bl	8001c66 <u8x8_byte_SendByte>
 8001dcc:	2001      	movs	r0, #1
 8001dce:	e7f8      	b.n	8001dc2 <u8x8_cad_ssd13xx_fast_i2c+0x3e>
 8001dd0:	4f19      	ldr	r7, [pc, #100]	; (8001e38 <u8x8_cad_ssd13xx_fast_i2c+0xb4>)
 8001dd2:	783a      	ldrb	r2, [r7, #0]
 8001dd4:	b10a      	cbz	r2, 8001dda <u8x8_cad_ssd13xx_fast_i2c+0x56>
 8001dd6:	f7ff ff59 	bl	8001c8c <u8x8_byte_EndTransfer>
 8001dda:	2d18      	cmp	r5, #24
 8001ddc:	4632      	mov	r2, r6
 8001dde:	d806      	bhi.n	8001dee <u8x8_cad_ssd13xx_fast_i2c+0x6a>
 8001de0:	4629      	mov	r1, r5
 8001de2:	4620      	mov	r0, r4
 8001de4:	f7ff ff5b 	bl	8001c9e <u8x8_i2c_data_transfer>
 8001de8:	2300      	movs	r3, #0
 8001dea:	703b      	strb	r3, [r7, #0]
 8001dec:	e7ee      	b.n	8001dcc <u8x8_cad_ssd13xx_fast_i2c+0x48>
 8001dee:	2118      	movs	r1, #24
 8001df0:	4620      	mov	r0, r4
 8001df2:	3d18      	subs	r5, #24
 8001df4:	f7ff ff53 	bl	8001c9e <u8x8_i2c_data_transfer>
 8001df8:	b2ed      	uxtb	r5, r5
 8001dfa:	3618      	adds	r6, #24
 8001dfc:	e7ed      	b.n	8001dda <u8x8_cad_ssd13xx_fast_i2c+0x56>
 8001dfe:	f890 3024 	ldrb.w	r3, [r0, #36]	; 0x24
 8001e02:	6907      	ldr	r7, [r0, #16]
 8001e04:	2bff      	cmp	r3, #255	; 0xff
 8001e06:	bf04      	itt	eq
 8001e08:	2378      	moveq	r3, #120	; 0x78
 8001e0a:	f880 3024 	strbeq.w	r3, [r0, #36]	; 0x24
 8001e0e:	46bc      	mov	ip, r7
 8001e10:	4633      	mov	r3, r6
 8001e12:	2114      	movs	r1, #20
 8001e14:	e8bd 41f0 	ldmia.w	sp!, {r4, r5, r6, r7, r8, lr}
 8001e18:	4760      	bx	ip
 8001e1a:	4b07      	ldr	r3, [pc, #28]	; (8001e38 <u8x8_cad_ssd13xx_fast_i2c+0xb4>)
 8001e1c:	2200      	movs	r2, #0
 8001e1e:	701a      	strb	r2, [r3, #0]
 8001e20:	e7d4      	b.n	8001dcc <u8x8_cad_ssd13xx_fast_i2c+0x48>
 8001e22:	4d05      	ldr	r5, [pc, #20]	; (8001e38 <u8x8_cad_ssd13xx_fast_i2c+0xb4>)
 8001e24:	782a      	ldrb	r2, [r5, #0]
 8001e26:	b10a      	cbz	r2, 8001e2c <u8x8_cad_ssd13xx_fast_i2c+0xa8>
 8001e28:	f7ff ff30 	bl	8001c8c <u8x8_byte_EndTransfer>
 8001e2c:	2300      	movs	r3, #0
 8001e2e:	702b      	strb	r3, [r5, #0]
 8001e30:	e7cc      	b.n	8001dcc <u8x8_cad_ssd13xx_fast_i2c+0x48>
 8001e32:	2000      	movs	r0, #0
 8001e34:	e7c5      	b.n	8001dc2 <u8x8_cad_ssd13xx_fast_i2c+0x3e>
 8001e36:	bf00      	nop
 8001e38:	200004a9 	.word	0x200004a9

08001e3c <u8x8_d_ssd1306_sh1106_generic>:
 8001e3c:	390b      	subs	r1, #11
 8001e3e:	b5f8      	push	{r3, r4, r5, r6, r7, lr}
 8001e40:	4604      	mov	r4, r0
 8001e42:	4615      	mov	r5, r2
 8001e44:	461f      	mov	r7, r3
 8001e46:	2904      	cmp	r1, #4
 8001e48:	d855      	bhi.n	8001ef6 <u8x8_d_ssd1306_sh1106_generic+0xba>
 8001e4a:	e8df f001 	tbb	[pc, r1]
 8001e4e:	5403      	.short	0x5403
 8001e50:	1b0c      	.short	0x1b0c
 8001e52:	29          	.byte	0x29
 8001e53:	00          	.byte	0x00
 8001e54:	b92a      	cbnz	r2, 8001e62 <u8x8_d_ssd1306_sh1106_generic+0x26>
 8001e56:	4929      	ldr	r1, [pc, #164]	; (8001efc <u8x8_d_ssd1306_sh1106_generic+0xc0>)
 8001e58:	4620      	mov	r0, r4
 8001e5a:	f7ff ff62 	bl	8001d22 <u8x8_cad_SendSequence>
 8001e5e:	2001      	movs	r0, #1
 8001e60:	bdf8      	pop	{r3, r4, r5, r6, r7, pc}
 8001e62:	4927      	ldr	r1, [pc, #156]	; (8001f00 <u8x8_d_ssd1306_sh1106_generic+0xc4>)
 8001e64:	e7f8      	b.n	8001e58 <u8x8_d_ssd1306_sh1106_generic+0x1c>
 8001e66:	b93a      	cbnz	r2, 8001e78 <u8x8_d_ssd1306_sh1106_generic+0x3c>
 8001e68:	4926      	ldr	r1, [pc, #152]	; (8001f04 <u8x8_d_ssd1306_sh1106_generic+0xc8>)
 8001e6a:	f7ff ff5a 	bl	8001d22 <u8x8_cad_SendSequence>
 8001e6e:	6823      	ldr	r3, [r4, #0]
 8001e70:	7c9b      	ldrb	r3, [r3, #18]
 8001e72:	f884 3022 	strb.w	r3, [r4, #34]	; 0x22
 8001e76:	e7f2      	b.n	8001e5e <u8x8_d_ssd1306_sh1106_generic+0x22>
 8001e78:	4923      	ldr	r1, [pc, #140]	; (8001f08 <u8x8_d_ssd1306_sh1106_generic+0xcc>)
 8001e7a:	f7ff ff52 	bl	8001d22 <u8x8_cad_SendSequence>
 8001e7e:	6823      	ldr	r3, [r4, #0]
 8001e80:	7cdb      	ldrb	r3, [r3, #19]
 8001e82:	e7f6      	b.n	8001e72 <u8x8_d_ssd1306_sh1106_generic+0x36>
 8001e84:	f7ff ff3b 	bl	8001cfe <u8x8_cad_StartTransfer>
 8001e88:	2181      	movs	r1, #129	; 0x81
 8001e8a:	4620      	mov	r0, r4
 8001e8c:	f7ff ff1c 	bl	8001cc8 <u8x8_cad_SendCmd>
 8001e90:	4629      	mov	r1, r5
 8001e92:	4620      	mov	r0, r4
 8001e94:	f7ff ff21 	bl	8001cda <u8x8_cad_SendArg>
 8001e98:	4620      	mov	r0, r4
 8001e9a:	f7ff ff39 	bl	8001d10 <u8x8_cad_EndTransfer>
 8001e9e:	e7de      	b.n	8001e5e <u8x8_d_ssd1306_sh1106_generic+0x22>
 8001ea0:	f7ff ff2d 	bl	8001cfe <u8x8_cad_StartTransfer>
 8001ea4:	797b      	ldrb	r3, [r7, #5]
 8001ea6:	f894 6022 	ldrb.w	r6, [r4, #34]	; 0x22
 8001eaa:	eb06 06c3 	add.w	r6, r6, r3, lsl #3
 8001eae:	f006 06ff 	and.w	r6, r6, #255	; 0xff
 8001eb2:	2140      	movs	r1, #64	; 0x40
 8001eb4:	4620      	mov	r0, r4
 8001eb6:	f7ff ff07 	bl	8001cc8 <u8x8_cad_SendCmd>
 8001eba:	0931      	lsrs	r1, r6, #4
 8001ebc:	f041 0110 	orr.w	r1, r1, #16
 8001ec0:	4620      	mov	r0, r4
 8001ec2:	f7ff ff01 	bl	8001cc8 <u8x8_cad_SendCmd>
 8001ec6:	f006 010f 	and.w	r1, r6, #15
 8001eca:	4620      	mov	r0, r4
 8001ecc:	f7ff ff05 	bl	8001cda <u8x8_cad_SendArg>
 8001ed0:	79b9      	ldrb	r1, [r7, #6]
 8001ed2:	4620      	mov	r0, r4
 8001ed4:	f041 01b0 	orr.w	r1, r1, #176	; 0xb0
 8001ed8:	f7ff feff 	bl	8001cda <u8x8_cad_SendArg>
 8001edc:	7939      	ldrb	r1, [r7, #4]
 8001ede:	683a      	ldr	r2, [r7, #0]
 8001ee0:	00c9      	lsls	r1, r1, #3
 8001ee2:	f001 01f8 	and.w	r1, r1, #248	; 0xf8
 8001ee6:	4620      	mov	r0, r4
 8001ee8:	3d01      	subs	r5, #1
 8001eea:	f7ff feff 	bl	8001cec <u8x8_cad_SendData>
 8001eee:	f015 05ff 	ands.w	r5, r5, #255	; 0xff
 8001ef2:	d1f3      	bne.n	8001edc <u8x8_d_ssd1306_sh1106_generic+0xa0>
 8001ef4:	e7d0      	b.n	8001e98 <u8x8_d_ssd1306_sh1106_generic+0x5c>
 8001ef6:	2000      	movs	r0, #0
 8001ef8:	e7b2      	b.n	8001e60 <u8x8_d_ssd1306_sh1106_generic+0x24>
 8001efa:	bf00      	nop
 8001efc:	08002147 	.word	0x08002147
 8001f00:	0800214c 	.word	0x0800214c
 8001f04:	08002104 	.word	0x08002104
 8001f08:	0800210b 	.word	0x0800210b

08001f0c <u8x8_d_ssd1306_128x64_noname>:
 8001f0c:	b538      	push	{r3, r4, r5, lr}
 8001f0e:	4604      	mov	r4, r0
 8001f10:	460d      	mov	r5, r1
 8001f12:	f7ff ff93 	bl	8001e3c <u8x8_d_ssd1306_sh1106_generic>
 8001f16:	b950      	cbnz	r0, 8001f2e <u8x8_d_ssd1306_128x64_noname+0x22>
 8001f18:	2d09      	cmp	r5, #9
 8001f1a:	d00a      	beq.n	8001f32 <u8x8_d_ssd1306_128x64_noname+0x26>
 8001f1c:	2d0a      	cmp	r5, #10
 8001f1e:	d107      	bne.n	8001f30 <u8x8_d_ssd1306_128x64_noname+0x24>
 8001f20:	4620      	mov	r0, r4
 8001f22:	f000 f814 	bl	8001f4e <u8x8_d_helper_display_init>
 8001f26:	4905      	ldr	r1, [pc, #20]	; (8001f3c <u8x8_d_ssd1306_128x64_noname+0x30>)
 8001f28:	4620      	mov	r0, r4
 8001f2a:	f7ff fefa 	bl	8001d22 <u8x8_cad_SendSequence>
 8001f2e:	2001      	movs	r0, #1
 8001f30:	bd38      	pop	{r3, r4, r5, pc}
 8001f32:	4903      	ldr	r1, [pc, #12]	; (8001f40 <u8x8_d_ssd1306_128x64_noname+0x34>)
 8001f34:	4620      	mov	r0, r4
 8001f36:	f000 f805 	bl	8001f44 <u8x8_d_helper_display_setup_memory>
 8001f3a:	e7f8      	b.n	8001f2e <u8x8_d_ssd1306_128x64_noname+0x22>
 8001f3c:	08002112 	.word	0x08002112
 8001f40:	08002154 	.word	0x08002154

08001f44 <u8x8_d_helper_display_setup_memory>:
 8001f44:	6001      	str	r1, [r0, #0]
 8001f46:	7c8b      	ldrb	r3, [r1, #18]
 8001f48:	f880 3022 	strb.w	r3, [r0, #34]	; 0x22
 8001f4c:	4770      	bx	lr

08001f4e <u8x8_d_helper_display_init>:
 8001f4e:	b538      	push	{r3, r4, r5, lr}
 8001f50:	2300      	movs	r3, #0
 8001f52:	4604      	mov	r4, r0
 8001f54:	461a      	mov	r2, r3
 8001f56:	6945      	ldr	r5, [r0, #20]
 8001f58:	2128      	movs	r1, #40	; 0x28
 8001f5a:	47a8      	blx	r5
 8001f5c:	2300      	movs	r3, #0
 8001f5e:	461a      	mov	r2, r3
 8001f60:	68e5      	ldr	r5, [r4, #12]
 8001f62:	2114      	movs	r1, #20
 8001f64:	4620      	mov	r0, r4
 8001f66:	47a8      	blx	r5
 8001f68:	4620      	mov	r0, r4
 8001f6a:	2201      	movs	r2, #1
 8001f6c:	214b      	movs	r1, #75	; 0x4b
 8001f6e:	f000 f853 	bl	8002018 <u8x8_gpio_call>
 8001f72:	6823      	ldr	r3, [r4, #0]
 8001f74:	4620      	mov	r0, r4
 8001f76:	791a      	ldrb	r2, [r3, #4]
 8001f78:	2129      	movs	r1, #41	; 0x29
 8001f7a:	f000 f84d 	bl	8002018 <u8x8_gpio_call>
 8001f7e:	4620      	mov	r0, r4
 8001f80:	2200      	movs	r2, #0
 8001f82:	214b      	movs	r1, #75	; 0x4b
 8001f84:	f000 f848 	bl	8002018 <u8x8_gpio_call>
 8001f88:	6823      	ldr	r3, [r4, #0]
 8001f8a:	4620      	mov	r0, r4
 8001f8c:	791a      	ldrb	r2, [r3, #4]
 8001f8e:	2129      	movs	r1, #41	; 0x29
 8001f90:	f000 f842 	bl	8002018 <u8x8_gpio_call>
 8001f94:	4620      	mov	r0, r4
 8001f96:	2201      	movs	r2, #1
 8001f98:	214b      	movs	r1, #75	; 0x4b
 8001f9a:	f000 f83d 	bl	8002018 <u8x8_gpio_call>
 8001f9e:	6823      	ldr	r3, [r4, #0]
 8001fa0:	4620      	mov	r0, r4
 8001fa2:	795a      	ldrb	r2, [r3, #5]
 8001fa4:	2129      	movs	r1, #41	; 0x29
 8001fa6:	e8bd 4038 	ldmia.w	sp!, {r3, r4, r5, lr}
 8001faa:	f000 b835 	b.w	8002018 <u8x8_gpio_call>

08001fae <u8x8_DrawTile>:
 8001fae:	b513      	push	{r0, r1, r4, lr}
 8001fb0:	f88d 3004 	strb.w	r3, [sp, #4]
 8001fb4:	ab02      	add	r3, sp, #8
 8001fb6:	f88d 2006 	strb.w	r2, [sp, #6]
 8001fba:	9a04      	ldr	r2, [sp, #16]
 8001fbc:	f88d 1005 	strb.w	r1, [sp, #5]
 8001fc0:	f843 2d08 	str.w	r2, [r3, #-8]!
 8001fc4:	6884      	ldr	r4, [r0, #8]
 8001fc6:	2201      	movs	r2, #1
 8001fc8:	210f      	movs	r1, #15
 8001fca:	47a0      	blx	r4
 8001fcc:	b002      	add	sp, #8
 8001fce:	bd10      	pop	{r4, pc}

08001fd0 <u8x8_SetupMemory>:
 8001fd0:	b410      	push	{r4}
 8001fd2:	6884      	ldr	r4, [r0, #8]
 8001fd4:	2300      	movs	r3, #0
 8001fd6:	46a4      	mov	ip, r4
 8001fd8:	461a      	mov	r2, r3
 8001fda:	2109      	movs	r1, #9
 8001fdc:	f85d 4b04 	ldr.w	r4, [sp], #4
 8001fe0:	4760      	bx	ip

08001fe2 <u8x8_InitDisplay>:
 8001fe2:	b410      	push	{r4}
 8001fe4:	6884      	ldr	r4, [r0, #8]
 8001fe6:	2300      	movs	r3, #0
 8001fe8:	46a4      	mov	ip, r4
 8001fea:	461a      	mov	r2, r3
 8001fec:	210a      	movs	r1, #10
 8001fee:	f85d 4b04 	ldr.w	r4, [sp], #4
 8001ff2:	4760      	bx	ip

08001ff4 <u8x8_SetPowerSave>:
 8001ff4:	b410      	push	{r4}
 8001ff6:	6884      	ldr	r4, [r0, #8]
 8001ff8:	460a      	mov	r2, r1
 8001ffa:	46a4      	mov	ip, r4
 8001ffc:	2300      	movs	r3, #0
 8001ffe:	210b      	movs	r1, #11
 8002000:	f85d 4b04 	ldr.w	r4, [sp], #4
 8002004:	4760      	bx	ip

08002006 <u8x8_RefreshDisplay>:
 8002006:	b410      	push	{r4}
 8002008:	6884      	ldr	r4, [r0, #8]
 800200a:	2300      	movs	r3, #0
 800200c:	46a4      	mov	ip, r4
 800200e:	461a      	mov	r2, r3
 8002010:	2110      	movs	r1, #16
 8002012:	f85d 4b04 	ldr.w	r4, [sp], #4
 8002016:	4760      	bx	ip

08002018 <u8x8_gpio_call>:
 8002018:	b410      	push	{r4}
 800201a:	6944      	ldr	r4, [r0, #20]
 800201c:	2300      	movs	r3, #0
 800201e:	46a4      	mov	ip, r4
 8002020:	f85d 4b04 	ldr.w	r4, [sp], #4
 8002024:	4760      	bx	ip

08002026 <u8x8_dummy_cb>:
 8002026:	2000      	movs	r0, #0
 8002028:	4770      	bx	lr
	...

0800202c <u8x8_SetupDefaults>:
 800202c:	2300      	movs	r3, #0
 800202e:	4a08      	ldr	r2, [pc, #32]	; (8002050 <u8x8_SetupDefaults+0x24>)
 8002030:	6003      	str	r3, [r0, #0]
 8002032:	f880 3023 	strb.w	r3, [r0, #35]	; 0x23
 8002036:	f880 3026 	strb.w	r3, [r0, #38]	; 0x26
 800203a:	6183      	str	r3, [r0, #24]
 800203c:	23ff      	movs	r3, #255	; 0xff
 800203e:	e9c0 2202 	strd	r2, r2, [r0, #8]
 8002042:	e9c0 2204 	strd	r2, r2, [r0, #16]
 8002046:	f880 3024 	strb.w	r3, [r0, #36]	; 0x24
 800204a:	f880 3028 	strb.w	r3, [r0, #40]	; 0x28
 800204e:	4770      	bx	lr
 8002050:	08002027 	.word	0x08002027

08002054 <u8x8_Setup>:
 8002054:	b5f8      	push	{r3, r4, r5, r6, r7, lr}
 8002056:	9d06      	ldr	r5, [sp, #24]
 8002058:	4617      	mov	r7, r2
 800205a:	461e      	mov	r6, r3
 800205c:	f7ff ffe6 	bl	800202c <u8x8_SetupDefaults>
 8002060:	e9c0 1702 	strd	r1, r7, [r0, #8]
 8002064:	e9c0 6504 	strd	r6, r5, [r0, #16]
 8002068:	e8bd 40f8 	ldmia.w	sp!, {r3, r4, r5, r6, r7, lr}
 800206c:	f7ff bfb0 	b.w	8001fd0 <u8x8_SetupMemory>

08002070 <__libc_init_array>:
 8002070:	b570      	push	{r4, r5, r6, lr}
 8002072:	4e0d      	ldr	r6, [pc, #52]	; (80020a8 <__libc_init_array+0x38>)
 8002074:	4c0d      	ldr	r4, [pc, #52]	; (80020ac <__libc_init_array+0x3c>)
 8002076:	1ba4      	subs	r4, r4, r6
 8002078:	10a4      	asrs	r4, r4, #2
 800207a:	2500      	movs	r5, #0
 800207c:	42a5      	cmp	r5, r4
 800207e:	d109      	bne.n	8002094 <__libc_init_array+0x24>
 8002080:	4e0b      	ldr	r6, [pc, #44]	; (80020b0 <__libc_init_array+0x40>)
 8002082:	4c0c      	ldr	r4, [pc, #48]	; (80020b4 <__libc_init_array+0x44>)
 8002084:	f000 f820 	bl	80020c8 <_init>
 8002088:	1ba4      	subs	r4, r4, r6
 800208a:	10a4      	asrs	r4, r4, #2
 800208c:	2500      	movs	r5, #0
 800208e:	42a5      	cmp	r5, r4
 8002090:	d105      	bne.n	800209e <__libc_init_array+0x2e>
 8002092:	bd70      	pop	{r4, r5, r6, pc}
 8002094:	f856 3025 	ldr.w	r3, [r6, r5, lsl #2]
 8002098:	4798      	blx	r3
 800209a:	3501      	adds	r5, #1
 800209c:	e7ee      	b.n	800207c <__libc_init_array+0xc>
 800209e:	f856 3025 	ldr.w	r3, [r6, r5, lsl #2]
 80020a2:	4798      	blx	r3
 80020a4:	3501      	adds	r5, #1
 80020a6:	e7f2      	b.n	800208e <__libc_init_array+0x1e>
 80020a8:	08002174 	.word	0x08002174
 80020ac:	08002174 	.word	0x08002174
 80020b0:	08002174 	.word	0x08002174
 80020b4:	08002178 	.word	0x08002178

080020b8 <memset>:
 80020b8:	4402      	add	r2, r0
 80020ba:	4603      	mov	r3, r0
 80020bc:	4293      	cmp	r3, r2
 80020be:	d100      	bne.n	80020c2 <memset+0xa>
 80020c0:	4770      	bx	lr
 80020c2:	f803 1b01 	strb.w	r1, [r3], #1
 80020c6:	e7f9      	b.n	80020bc <memset+0x4>

080020c8 <_init>:
 80020c8:	b5f8      	push	{r3, r4, r5, r6, r7, lr}
 80020ca:	bf00      	nop
 80020cc:	bcf8      	pop	{r3, r4, r5, r6, r7}
 80020ce:	bc08      	pop	{r3}
 80020d0:	469e      	mov	lr, r3
 80020d2:	4770      	bx	lr

080020d4 <_fini>:
 80020d4:	b5f8      	push	{r3, r4, r5, r6, r7, lr}
 80020d6:	bf00      	nop
 80020d8:	bcf8      	pop	{r3, r4, r5, r6, r7}
 80020da:	bc08      	pop	{r3}
 80020dc:	469e      	mov	lr, r3
 80020de:	4770      	bx	lr
